:1000000000180020C1000000E91C0000AD1C000029
:10001000AD1C0000AD1C0000AD1C0000AD1C0000BC
:10002000AD1C0000AD1C0000AD1C0000E91C000070
:10003000E91C0000AD1C0000E91C00009D1C000034
:10004000E91C0000E91C0000E91C0000E91C00009C
:10005000E91C0000E91C0000E91C0000E91C00008C
:10006000E91C0000E91C0000E91C0000E91C00007C
:10007000D50A0000610F000021150000E91C0000F6
:10008000E91C0000E91C0000E91C0000E91C00005C
:10009000E91C0000E91C0000E91C0000E91C00004C
:1000A000D9200000E91C0000E91C0000E91C000048
:1000B000E91C0000E91C0000E91C0000E91C00002C
:1000C000F8B501F015FE0821474A484B1A60484A26
:1000D000484B1A60484A494B1A60494B1A780A4201
:1000E00002D01A780A431A702A22464B46481A70E0
:1000F00000234649464C1A188A4203D2E558043375
:100100001560F8E70021434B434A934201D202C3F2
:10011000FBE70023414A424958589446985004331B
:10012000C02BF9D100210326FF2580248A083D4BEE
:100130009200D2180B002F003340DB009F40106864
:100140000131B84307002000984003003B4313608F
:100150002029EBD16246344B1A608A22334B1A7045
:10016000334B663A5A707C321A709E3A9979114232
:10017000FCD0102299791142FCD10C209A792C499B
:100180000240082AFAD1053A0A713D324A71203AF2
:1001900099791142FCD0402299791142FCD025492D
:1001A000254A11602021224A117014399A790A4097
:1001B0000C2AFBD1214A224B1A60224A224B1A6098
:1001C0000022224B1A60224B07321A60214A224B2E
:1001D0001A6062B601F054FE02F08CFC01F08EFD54
:1001E00000F046F9FEE7C046300004F034800440D9
:1001F000823F0000388004400100000F3C80044032
:1002000002D0074000E0074020FDFF1FC8FDFF1F90
:10021000542E0000C8FDFF1FC000002000F9FF1F82
:100220000000000000E400E008ED00E0005006409F
:10023000004006400000011044800440C000050555
:10024000048004407FBB000014E000E018E000E000
:1002500010E000E00000202020ED00E0FFFFFFFFA5
:10026000FFFFFFFFFFFFFFFFFFFFFFFFFFFFFFFF9E
:10027000FFFFFFFFFFFFFFFFFFFFFFFFFFFFFFFF8E
:10028000FFFFFFFFFFFFFFFFFFFFFFFFFFFFFFFF7E
:10029000FFFFFFFFFFFFFFFFFFFFFFFFFFFFFFFF6E
:1002A000FFFFFFFFFFFFFFFFFFFFFFFFFFFFFFFF5E
:1002B000FFFFFFFFFFFFFFFFFFFFFFFFFFFFFFFF4E
:1002C000FFFFFFFFFFFFFFFFFFFFFFFFFFFFFFFF3E
:1002D000FFFFFFFFFFFFFFFFFFFFFFFFFFFFFFFF2E
:1002E000FFFFFFFFFFFFFFFFFFFFFFFFFFFFFFFF1E
:1002F000FFFFFFFFFFFFFFFFFFFFFFFFFFFFFFFF0E
:10030000FFFFFFFFFFFFFFFFFFFFFFFFFFFFFFFFFD
:10031000FFFFFFFFFFFFFFFFFFFFFFFFFFFFFFFFED
:10032000FFFFFFFFFFFFFFFFFFFFFFFFFFFFFFFFDD
:10033000FFFFFFFFFFFFFFFFFFFFFFFFFFFFFFFFCD
:10034000FFFFFFFFFFFFFFFFFFFFFFFFFFFFFFFFBD
:10035000FFFFFFFFFFFFFFFFFFFFFFFFFFFFFFFFAD
:10036000FFFFFFFFFFFFFFFFFFFFFFFFFFFFFFFF9D
:10037000FFFFFFFFFFFFFFFFFFFFFFFFFFFFFFFF8D
:10038000FFFFFFFFFFFFFFFFFFFFFFFFFFFFFFFF7D
:10039000FFFFFFFFFFFFFFFFFFFFFFFFFFFFFFFF6D
:1003A000FFFFFFFFFFFFFFFFFFFFFFFFFFFFFFFF5D
:1003B000FFFFFFFFFFFFFFFFFFFFFFFFFFFFFFFF4D
:1003C000FFFFFFFFFFFFFFFFFFFFFFFFFFFFFFFF3D
:1003D000FFFFFFFFFFFFFFFFFFFFFFFFFFFFFFFF2D
:1003E000FFFFFFFFFFFFFFFFFFFFFFFFFFFFFFFF1D
:1003F000FFFFFFFFFFFFFFFFFFFFFFFFFFFFFFFF0D
:10040000FFFFFFFFFFFFFFFFFFFFFFFFDEF9FFFF23
:1004100010B5064C2378002B07D1054B002B02D0DA
:10042000044800E000BF0123237010BDC8FDFF1F7A
:1004300000000000542E0000084B10B5002B03D024
:100440000749084800E000BF07480368002B00D1B7
:1004500010BD064B002BFBD09847F9E700000000C9
:10046000CCFDFF1F542E0000C8FDFF1F0000000040
:1004700010B502F067FA02F06BFA00F001F8FAE743
:1004800010B5104C2378002B1BD10133237001F0E1
:1004900001F9002801D001F0F2FB00F0ADFA0028CC
:1004A00001D001F07DFA00F0EDFC002801D001F050
:1004B00017FB00F0C7FF002801D001F0B1FB0023BB
:1004C000237010BDE4FDFF1F80212C4AC900136872
:1004D0000B43136000232A4A13702A4A13702A4AD6
:1004E00013702A4A13702A4A13702A4B1B78032B65
:1004F0000FD004D8002B0FD1274A284B0BE0152B27
:1005000004D0192B08D1264A264B04E0224A264B58
:1005100001E0264A264B1A60264B1B78042B11D08B
:1005200005D8012B12D1D122234B92000DE0052BCF
:1005300004D0182B0AD1214A214B06E0D122214BAD
:10054000920002E09122204B92001A601F4BC204DD
:10055000D20E1A700022C0B258709A702C32DA7023
:10056000FF231B4A116899430B0040210B43136082
:100570008022184B52011A607047C04634800440F4
:1005800071FEFF1FEDFDFF1F78FEFF1F72FEFF1FB4
:10059000ECFDFF1F2EFEFF1F1303000040A00440D0
:1005A0001304000054D0044018C00440130200009B
:1005B0000490044020FDFF1F44A0044044040000B8
:1005C00050D004401CC004400890044000A00640E5
:1005D0000CE400E000E100E0132110B5164B9A781E
:1005E0008A431100032202400A43410701D510212A
:1005F0000A439A700F2210490240042A03D1402472
:100600008A7922438A7110215A798A43084200D09C
:100610000A4310215A719A798A43840600D50A4305
:1006200005499A71C30506D520204B780A78DBB2BC
:1006300002430A704B7010BD00A006402B4B10B552
:100640001B685B0551D52A4B1B78DBB2002B02D00F
:10065000FFF716FFF7E78021264A49011160264A75
:10066000D370264B1B78032B12D005D8002B13D147
:100670000422234BFF320EE0152B05D0192B0BD192
:100680000422204BFF3206E004221F4BFF3202E01F
:1006900004221E4BFF321A601D4B1A787F23134031
:1006A000042B12D005D8012B13D10422194BFF3291
:1006B0000EE0052B05D0182B0BD10422164BFF3270
:1006C00006E00422154BFF3202E00422144BFF32F5
:1006D0001A600023134A1370134A1370134B1B68DC
:1006E000002B02D0124A12781A7110BD34800440D7
:1006F000ECFDFF1F80E100E000A006402EFEFF1F82
:1007000040A0044054D0044018C004400490044069
:1007100020FDFF1F44A0044050D004401CC00440F2
:100720000890044071FEFF1FEDFDFF1FE8FDFF1F55
:100730002FFEFF1F70B505000C4B1C78E4B2002C97
:10074000FBD12800012101F027FB2800210001F046
:1007500003FB0C236B431800054A064B8158101805
:100760001960027A044B1A7070BDC046ECFDFF1F81
:10077000942C000074FEFF1F70FEFF1F10B50029AF
:1007800001D080231843224C227890423ED0214B46
:100790001B685B0539D57F231340042B0FD004D889
:1007A000012B0FD100221C4B0BE0052B04D0182B82
:1007B00008D10022194B04E00022194B01E000226D
:1007C000184B1A606023002900D11C3B7F22024095
:1007D000042A15D006D8012A17D1C022920013434B
:1007E0000D4A11E0052A06D0182A0ED18022D20027
:1007F00013430A4A08E0C02292001343084A03E068
:10080000802292001343074A1360207010BDC04637
:1008100020FDFF1F3480044044A0044050D0044019
:100820001CC0044008900440194A137883422ED01B
:1008300018490968490529D5032B0FD004D8002B86
:100840000FD115490B600CE0152B04D0192B08D1E2
:100850000021124B04E00021114B01E00021114B5B
:10086000196003280FD004D800280FD10E490A4B75
:100870000BE0152804D0192808D10C49074B04E0D7
:100880000949074B01E00A49064B1960107070478F
:100890002EFEFF1F3480044040A0044054D004408A
:1008A00018C0044004900440130300001304000027
:1008B000130200000E4B70B51A680023520515D5BF
:1008C0000C4C1A2811D80C22130043430A490B4D33
:1008D0005A58CB181B7A012122602B7001F05CFA68
:1008E00023682A781A72012300E02360180070BD83
:1008F00034800440E8FDFF1F942C00002FFEFF1FF2
:1009000000207047F8B51F4B06001B685B0537D504
:100910001D4B1B68002B02D01C4A12781A711C4D0B
:100920002C7801343F2C0AD9002408E001F0E8F9C2
:10093000402815DC17490B795BB2002B04DB164FFE
:100940003B78A342F2D010E03B7801333F2B00D933
:100950000023124AD25CDBB2D2B2CA713B70EEE71E
:10096000FF28ECDDFFF78CFDE9E701220B4BF6B227
:100970001E550B4BE4B21A70064BAB322C70DA707A
:10098000F8BDC0463480044074FEFF1F70FEFF1F98
:1009900078FEFF1F00A0064072FEFF1FEEFDFF1F46
:1009A000ECFDFF1F70B504004518AC4204D0207860
:1009B000FFF7A8FF0134F8E770BDFFFF10B5044B47
:1009C0001B78002B02D0FFF75BFDF8E710BDC04697
:1009D000ECFDFF1F064B1878064BC2B21B78D8B24D
:1009E000824201D33F3000E00138801A7047C04690
:1009F00078FEFF1F72FEFF1F054B1878054BC0B233
:100A00001A78D3B2984200D24030C01A7047C0461C
:100A100071FEFF1FEDFDFF1F10B5124B12491A7832
:100A20000878D2B2C3B29A4218D001333F2B00D912
:100A300000230E48C45CD8B208700D49E4B20968BE
:100A4000200000290CD0934200D94032D31A200054
:100A50001A2B05DC074B1B780B7201E0012040428A
:100A600010BDC04671FEFF1FEDFDFF1F30FEFF1FD2
:100A7000E8FDFF1F2FFEFF1F084B1A78084B1B785D
:100A8000DBB29A4207D001333F2B00D90023054A3D
:100A9000D05CC0B201E001204042704771FEFF1FF0
:100AA000EDFDFF1F30FEFF1F064B074A1B78DBB230
:100AB0001370064B1B68002B02D0054A12781A727D
:100AC0007047C046EDFDFF1F71FEFF1FE8FDFF1FD1
:100AD0002FFEFF1F30B5234A13799B0611D5224BF9
:100AE000D479187819000130E4B200233F2800DCE3
:100AF00003001E480078834203D01D48C454DBB273
:100B00000B70D1781748C9B24BB2002B17DA0379B2
:100B10005BB2002B13DA174B174C1D782378DBB22E
:100B20009D4202D16C23C37009E001333F2B00D9F1
:100B300000231248C05CDBB2C0B2D07123704023E6
:100B400019420ED0117919420BD000210C4B1970AB
:100B50000C4B1B688B4202D00B49097819722C236D
:100B6000D37030BD00A0064071FEFF1FEDFDFF1FDA
:100B700030FEFF1F78FEFF1F72FEFF1FEEFDFF1FFE
:100B8000ECFDFF1F74FEFF1F70FEFF1F8021164A41
:100B9000090113680B4313600023144A14491370AE
:100BA000144A1370144A1370144A1370144A1370C1
:100BB000144A1160144A31311160144AC104C90E3B
:100BC000C0B21170507093702C33D370104A114B17
:100BD00011680B408021C9010B43136080220E4B2A
:100BE00092011A607047C04634800440ECFEFF1F3B
:100BF0001303000081FEFF1FF4FEFF1FEDFEFF1F29
:100C000080FEFF1F0CB0044010B0044000B006404E
:100C10000CE400E0FF00FFFF00E100E0132110B54D
:100C2000164B9A788A431100032202400A43410777
:100C300001D510210A439A700F2210490240042A5C
:100C400003D140248A7922438A7110215A798A4338
:100C5000084200D00A4310215A719A798A438406C7
:100C600000D50A4305499A71C30506D520204B7863
:100C70000A78DBB202430A704B7010BD00B0064028
:100C8000124B10B51B681B051ED5114B1B78DBB230
:100C9000002B02D0FFF7F4FBF7E780210D4A890112
:100CA00011600D4A0D49D3700422FF320A600C49CD
:100CB0000A600C4A13700C4A13700C4B1B68002B13
:100CC00002D00B4A12781A7110BDC046348004401D
:100CD00080FEFF1F80E100E000B006400CB0044041
:100CE00010B00440ECFEFF1F81FEFF1F7CFEFF1FC3
:100CF000AAFEFF1F70B505000C4B1C78E4B2002C57
:100D0000FBD12800012101F047F82800210001F063
:100D100023F80C236B431800054A064B8158101822
:100D20001960027A044B1A7070BDC04680FEFF1F26
:100D3000942C0000F0FEFF1FEBFEFF1F7047704772
:100D40000E4B70B51A680023120515D50C4C1A28E5
:100D500011D80C22130043430A490B4D5A58CB18A3
:100D60001B7A012122602B7001F016F823682A7883
:100D70001A72012300E02360180070BD3480044023
:100D80007CFEFF1F942C0000AAFEFF1F002070476E
:100D9000F8B51F4B06001B681B0537D51D4B1B689C
:100DA000002B02D01C4A12781A711C4D2C78013489
:100DB000272C0AD9002408E000F0A2FF402815DC07
:100DC00017490B795BB2002B04DB164F3B78A3422B
:100DD000F2D010E03B780133272B00D90023124AD0
:100DE000D25CDBB2D2B2CA713B70EEE7FF28ECDD19
:100DF000FFF746FBE9E701220B4BF6B21E550B4B02
:100E0000E4B21A70064BAB322C70DA70F8BDC046F3
:100E100034800440F0FEFF1FEBFEFF1FF4FEFF1FB7
:100E200000B00640EDFEFF1F82FEFF1F80FEFF1F89
:100E300070B504004518AC4204D02078FFF7A8FF35
:100E40000134F8E770BDFFFF10B5044B1B78002B91
:100E500002D0FFF715FBF8E710BDC04680FEFF1F6C
:100E6000064B1878064BC2B21B78D8B2824201D327
:100E7000273000E00138801A7047C046F4FEFF1F9B
:100E8000EDFEFF1F054B1878054BC0B21A78D3B2A0
:100E9000984200D24030C01A7047C046ECFEFF1F97
:100EA00081FEFF1F10B5124B12491A780878D2B292
:100EB000C3B29A4218D001333F2B00D900230E4809
:100EC000C45CD8B208700D49E4B20968200000295A
:100ED0000CD0934200D94032D31A20001A2B05DCE3
:100EE000074B1B780B7201E00120404210BDC04649
:100EF000ECFEFF1F81FEFF1FABFEFF1F7CFEFF1FEE
:100F0000AAFEFF1F084B1A78084B1B78DBB29A42E7
:100F100007D001333F2B00D90023054AD05CC0B273
:100F200001E0012040427047ECFEFF1F81FEFF1FE1
:100F3000ABFEFF1F064B074A1B78DBB21370064B54
:100F40001B68002B02D0054A12781A727047C046FF
:100F500081FEFF1FECFEFF1F7CFEFF1FAAFEFF1F8E
:100F600030B5234A13799B0611D5224BD4791878D2
:100F700019000130E4B200233F2800DC03001E48C2
:100F80000078834203D01D48C454DBB20B70D17883
:100F90001748C9B24BB2002B17DA03795BB2002BAA
:100FA00013DA174B174C1D782378DBB29D4202D120
:100FB0006C23C37009E00133272B00D900231248AA
:100FC000C05CDBB2C0B2D0712370402319420ED096
:100FD000117919420BD000210C4B19700C4B1B6876
:100FE0008B4202D00B49097819722C23D37030BD83
:100FF00000B00640ECFEFF1F81FEFF1FABFEFF1F8F
:10100000F4FEFF1FEDFEFF1F82FEFF1F80FEFF1F8D
:10101000F0FEFF1FEBFEFF1F8021204A49011368ED
:101020000B43136000231E4A13701E4A13701E4A9E
:1010300013701E4A13701E4A13701E4B1B78062B2A
:1010400004D0072B05D11C4A1C4B01E01A4A1C4B4B
:101050001A601C4B1B78082B05D0142B07D1D1220A
:10106000194B920002E0D122184B92001A60184BE3
:10107000C204D20E1A700022C0B258709A702C327C
:10108000DA70144A144B11680B408021C9030B43DA
:1010900013608022114BD2011A60704734800440E3
:1010A00068FFFF1FFDFEFF1F70FFFF1F69FFFF1F8F
:1010B000FCFEFF1F21FDFF1F1303000008C00440BA
:1010C00010C0044022FDFF1F14C004400CC00440A7
:1010D00000C006400CE400E0FFFF00FF00E100E07C
:1010E000132110B5164B9A788A431100032202404F
:1010F0000A43410701D510210A439A700F22104973
:101100000240042A03D140248A7922438A711021A3
:101110005A798A43084200D00A4310215A719A79B9
:101120008A43840600D50A4305499A71C30506D54A
:1011300020204B780A78DBB202430A704B7010BD56
:1011400000C006401E4B10B51B68DB0437D51D4B95
:101150001B78DBB2002B02D0FFF792F9F7E7802172
:10116000194AC9011160194AD370194B1B78062B13
:1011700005D0072B07D10422164BFF3202E00422D0
:10118000154BFF321A60154B1A787F231340082B3A
:1011900005D0142B07D10422114BFF3202E00422A8
:1011A000104BFF321A6000230F4A13700F4A13705E
:1011B0000F4B1B68002B02D00E4A12781A7110BD1B
:1011C00034800440FCFEFF1F80E100E000C00640C8
:1011D00021FDFF1F08C0044010C0044022FDFF1F76
:1011E00014C004400CC0044068FFFF1FFDFEFF1F39
:1011F000F8FEFF1F26FFFF1F70B505000C4B1C7883
:10120000E4B2002CFBD12800012100F0C5FD28002C
:10121000210000F0A1FD0C236B431800054A064B8A
:10122000815810181960027A044B1A7070BDC046BC
:10123000FCFEFF1F942C00006CFFFF1F67FFFF1FC9
:1012400010B5002901D080231843154A1478A04214
:1012500024D0144B1B68DB041FD57F232340082BAD
:1012600004D0142B05D100240F4B01E000240F4BB8
:101270001C606023002900D11C3B7F21014008290C
:1012800006D0142909D1C02189000B43064903E087
:10129000C02189000B4305490B60107010BDC0468A
:1012A00022FDFF1F3480044014C004400CC00440E1
:1012B0000E4A1378834218D00D490968C90413D522
:1012C000062B04D0072B05D100210A4B01E0002199
:1012D000094B1960062804D0072805D10749054B9A
:1012E00001E00649044B19601070704721FDFF1F93
:1012F0003480044008C0044010C0044013030000C0
:101300000E4B70B51A680023D20415D50C4C1A2860
:1013100011D80C22130043430A490B4D5A58CB18DD
:101320001B7A012122602B7000F036FD23682A7899
:101330001A72012300E02360180070BD348004405D
:10134000F8FEFF1F942C000026FFFF1F00207047AF
:10135000F8B51F4B06001B68DB0437D51D4B1B6817
:10136000002B02D01C4A12781A711C4D2C780134C3
:10137000272C0AD9002408E000F0C2FC402815DC24
:1013800017490B795BB2002B04DB164F3B78A34265
:10139000F2D010E03B780133272B00D90023124A0A
:1013A000D25CDBB2D2B2CA713B70EEE7FF28ECDD53
:1013B000FFF766F8E9E701220B4BF6B21E550B4B1F
:1013C000E4B21A70064BAB322C70DA70F8BDC0462E
:1013D000348004406CFFFF1F67FFFF1F70FFFF1F7B
:1013E00000C0064069FFFF1FFEFEFF1FFCFEFF1F3F
:1013F00070B504004518AC4204D02078FFF7A8FF70
:101400000134F8E770BDFFFF10B5044B1B78002BCB
:1014100002D0FFF735F8F8E710BDC046FCFEFF1F0D
:10142000064B1878064BC2B21B78D8B2824201D361
:10143000273000E00138801A7047C04670FFFF1F58
:1014400069FFFF1F054B1878054BC0B21A78D3B25D
:10145000984200D24030C01A7047C04668FFFF1F54
:10146000FDFEFF1F10B5124B12491A780878D2B250
:10147000C3B29A4218D001333F2B00D900230E4843
:10148000C45CD8B208700D49E4B209682000002994
:101490000CD0934200D94032D31A20001A2B05DC1D
:1014A000074B1B780B7201E00120404210BDC04683
:1014B00068FFFF1FFDFEFF1F27FFFF1FF8FEFF1F36
:1014C00026FFFF1F084B1A78084B1B78DBB29A42A5
:1014D00007D001333F2B00D90023054AD05CC0B2AE
:1014E00001E001204042704768FFFF1FFDFEFF1F23
:1014F00027FFFF1F064B074A1B78DBB21370064B12
:101500001B68002B02D0054A12781A727047C04639
:10151000FDFEFF1F68FFFF1FF8FEFF1F26FFFF1FD6
:1015200030B52C4A13799B0623D52B4BD4791878E8
:1015300019000130E4B200233F2800DC03002748F3
:101540000078834203D02648C454D8B20870254995
:10155000086800280DD024490978C9B28B4201D30C
:101560005B1A01E05B1A4033272B02DD1F4B1B780F
:101570000371D1781748C9B24BB2002B17DA03793F
:101580005BB2002B13DA1A4B174C1D782378DBB2B1
:101590009D4202D16C23C37009E00133272B00D98F
:1015A00000231448C05CDBB2C0B2D071237040236A
:1015B00019420ED0117919420BD000210E4B19702F
:1015C0000E4B1B688B4202D00D49097819722C23EF
:1015D000D37030BD00C0064068FFFF1FFDFEFF1F37
:1015E00027FFFF1FF8FEFF1F69FFFF1F26FFFF1FDA
:1015F00070FFFF1FFEFEFF1FFCFEFF1F6CFFFF1FA3
:1016000067FFFF1F70B5114D2B68002B0CD02868A9
:1016100043885A1CC3181C7A03889A4212D301F0DB
:10162000BDF800232B600EE0094B1B78002B02D184
:101630000120404208E0032000F0A8FC28600028B8
:10164000E5D1F5E74280200070BDC0467CFFFF1F5A
:10165000A700002010B50D4C2368002B03D0226892
:10166000002A0ED103E00A4B1B78002B02D1012087
:10167000404209E0032000F089FC20600028EED100
:10168000F5E75388D318187A10BDC0467CFFFF1FBA
:10169000A7000020054B9888054B1A68002A03D044
:1016A000138852889B1AC0187047C046B8000020A3
:1016B0007CFFFF1F10B50A4B1B78002B0FD0094C85
:1016C0002068002803D001F069F80023236003207C
:1016D00000F05CFC002802D001F060F8F7E710BDD4
:1016E000A70000207CFFFF1F314A0123F0B50C004A
:1016F000170085B00190029113700393002C53D012
:101700002C4D2B68002B25D12B4E2C4B1B78DBB29C
:10171000002B01D13B7017E0042000F051FC07289A
:1017200009D86B461B7B3B7001F01AF8214B1860FF
:1017300000280FD13870013E214B002E02D01A78BC
:10174000002A04D001221A70012040422EE0FEF748
:1017500097FEDAE700221A4B29681A7040234A885C
:10176000981A2300844200D903000800083080182A
:10177000D2184A800022E41A934204D0019EB65C3B
:1017800086540132F8E7019AD31801934B883F2B16
:1017900006D9402304200B8000F060FC00232B605E
:1017A0000522084B1A70A9E702983C7005B0F0BDFD
:1017B00072FFFF1F74FFFF1F09750000A7000020C4
:1017C00078FFFF1F71FFFF1F07B56B46D871073306
:1017D00001211800FFF788FF0EBDFFFFF7B5124B80
:1017E0001B78002B1FD00126104F114B3C681E7038
:1017F0000193104D002C09D000262E706388210023
:101800002380042000F02AFC3E6009E000F0A8FFDD
:10181000011E04D004202C7000F020FC00E02E708B
:101820000023019A1370F7BDA700002074FFFF1F6B
:1018300072FFFF1F71FFFF1F70B50E4B1C78E4B2E3
:10184000002C15D10C4D2968002906D04B880420A6
:101850000B8000F003FC2C600AE000F081FF011E09
:1018600003D0042000F0FAFB02E00122034B1A70BF
:1018700070BDC04672FFFF1F74FFFF1F71FFFF1F87
:1018800010B50368C9B21B68984710BD10B503684E
:10189000C9B21B68984710BD10B50368C9B21B6870
:1018A000984710BD10B50368C9B21B68984710BDB2
:1018B00010B50800FFF726F8012010BD10B508008C
:1018C000FFF720F8012010BD70B508000D0001F0F1
:1018D00037F9040001002800FFF764F8200070BD0C
:1018E00010B5140008001100FFF75CF8200010BDCF
:1018F00010B5FFF76FF810BD10B5FFF7D5F810BDA4
:1019000010B50800FEF7FCFF431E9841C0B210BDA1
:1019100010B50800FEF7CEFF431E9841C0B210BDBF
:1019200010B508001100FEF729FF10BD10B5080022
:10193000FEF77AFF10BD10B50800FEF7FBFE10BDE4
:1019400010B5FEF77BFE10BD10B5044B4808C0185B
:1019500001F026F8FEF7B8FD10BDC046C0C62D0048
:1019600010B51400054B4808C01801F019F8FEF72F
:10197000ABFD2000FEF730FE10BDC046C0C62D00F6
:1019800010B5FFF71BF810BD10B5FFF775F810BDC7
:1019900010B5FFF741F810BD10B5FFF72DF810BDD9
:1019A0007047FFFF0022FA21034B89001A711A7356
:1019B000024A99601A60704784FFFF1F582B00008D
:1019C00010B50368C9B21B68984710BD10B503680D
:1019D000C9B21B68984710BD10B50368C9B21B682F
:1019E000984710BD10B50368C9B21B68984710BD71
:1019F00010B50800FFF7CCF9012010BD10B50800A4
:101A0000FFF7C6F9012010BD70B508000D0001F008
:101A100097F8040001002800FFF70AFA200070BDC3
:101A200010B5140008001100FFF702FA200010BDE5
:101A300010B5FFF715FA10BD10B5FFF77BFA10BD12
:101A400010B50800FFF7A2F9431E9841C0B210BDBF
:101A500010B50800FFF774F9431E9841C0B210BDDD
:101A600010B508001100FFF769F910BD10B50800A6
:101A7000FFF765F910BD10B50800FFF73BF910BD81
:101A800010B5FFF7FDF810BD10B5044B4808C0189D
:101A900000F086FFFFF77AF810BDC04660E316003D
:101AA00010B51400054B4808C01800F079FFFFF787
:101AB0006DF82000FFF7B2F810BDC04660E31600D5
:101AC00010B5FFF7C1F910BD10B5FFF71BFA10BD37
:101AD00010B5FFF7E7F910BD10B5FFF7D3F910BD4A
:101AE0007047FFFF0022FA21034B89001A711A7315
:101AF000024A99601A60704794FFFF1FB82B0000DC
:101B000010B50368C9B21B68984710BD10B50368CB
:101B1000C9B21B68984710BD10B50368C9B21B68ED
:101B2000984710BD10B50368C9B21B68984710BD2F
:101B300010B50800FFF70CFC012010BD10B508001F
:101B4000FFF706FC012010BD70B508000D0000F085
:101B5000F7FF040001002800FFF74AFC200070BDD9
:101B600010B5140008001100FFF742FC200010BD62
:101B700010B5FFF755FC10BD10B5FFF7BBFC10BD4D
:101B800010B50800FFF7E2FB431E9841C0B210BD3C
:101B900010B50800FFF7B4FB431E9841C0B210BD5A
:101BA00010B508001100FFF74BFB10BD10B5080081
:101BB000FFF77EFB10BD10B50800FFF71DFB10BD41
:101BC00010B5FFF7BFFA10BD10B5044B4808C01898
:101BD00000F0E6FEFFF720FA10BDC04660E31600F5
:101BE00010B51400054B4808C01800F0D9FEFFF7E7
:101BF00013FA2000FFF774FA10BDC04660E3160028
:101C000010B5FFF701FC10BD10B5FFF75BFC10BD70
:101C100010B5FFF727FC10BD10B5FFF713FC10BD82
:101C20007047FFFF0022FA21034B89001A711A73D3
:101C3000024A99601A607047A4FFFF1F182C000029
:101C400010B5FFF737FD10BD10B5FFF7C7FD10BD8C
:101C500010B5FFF7FFFC10BD10B5FFF7D3FC10BDAA
:101C600010B5FFF717FD10BD10B508001100FFF704
:101C70003BFD10BD10B50800FFF7A6FD10BD704775
:101C80000022FA21034B89001A711A73024A9960E3
:101C90001A607047B4FFFF1F782C0000024A1368D7
:101CA000013313607047C046C4FFFF1F70B5802525
:101CB0008026ED02F6000B4C23682B4201D000F089
:101CC0000BFA2368334201D0FEF704FF23681B059B
:101CD00001D5FFF745F92368DB04ECD5FFF720FCBD
:101CE000E9E7C0463480044010B5FFF7DFFFFFFF8F
:101CF0000022014B1A607047008104407047FFFFCB
:101D0000EFF31383002B22D1EFF310821800002A87
:101D10001FD1EFF3058100290FD010000F290ED934
:101D20000B00103B0B4A9B089B009B180322186872
:101D30000A40D200D040C0B201E080204000EFF362
:101D40001183002B05D0834203D2180001E001204B
:101D50004042704700E400E010B51A2818D80C2360
:101D600058430C4A835810181C7D027A224205D031
:101D7000002901D01A710BE01A7209E043681A6851
:101D8000002902D003210A4301E002218A431A609C
:101D900010BDC046942C0000F0B51A282FD80C2294
:101DA00017004743164CE5196B682600012901D03E
:101DB000042911D1504334583018257D027A20204F
:101DC0002A432275A22252001A601A68042901D1FE
:101DD000024313E0824311E038592C7A027DA2437A
:101DE00002758022002908D0022902D10422FF3284
:101DF00004E00022032901D1812252001A60F0BDC3
:101E0000942C000072B60C4B1A680C4B18680C4BE3
:101E10001B6862B65B0104D5322393429B415B424F
:101E2000C018084B9A1A084B5A43FA239B00584390
:101E3000920D10187047C04618E000E0C4FFFF1F65
:101E400004ED00E07FBB00005555010070B50400B3
:101E5000FFF7D8FF0500002C0FD0FFF7D3FF074B8B
:101E6000401B984206D9013C002C06D0FA239B0067
:101E7000ED18F2E7FEF704FBEFE770BDE7030000A3
:101E800080221E4BD20510B51A6080220020120657
:101E90001A601B4B1B4918601B4B1C4A19602823F6
:101EA00013601B4A1B4C13601B4A13601B4A1360D0
:101EB0001B4A13601B4A1360092222601A4C2060DF
:101EC0001A4C21601A4C23601A4C23601A4C226071
:101ED0001A4C20601A4801601A490B601A490B60BD
:101EE0001A4B1A6000F082FC3220FFF7AFFF00F0BF
:101EF000DFFBAF204000FFF7A9FF10BD00E100E0CD
:101F000004800340FFBF0000088003400C800340B2
:101F100014800340008003401C8003402480034061
:101F20002C80034034800340049003400890034019
:101F30000C900340149003400090034004A0034021
:101F400008A003400CA0034014A0034000A00340DD
:101F50000223F0B50A4A0B4E1478C8272343DB004E
:101F6000F518686008480578002D00D1403F090445
:101F70000F43F75001235D405C4005701470F0BDC5
:101F80003000002000F8FF1FA8000020431E10B5FD
:101F90000020032B0ED872B6074A990088580028F3
:101FA00007D044685B008C50044904885A5A121BBD
:101FB0005A5262B610BDC04620000020B800002072
:101FC000431E0020032B09D872B6054A9B009B587C
:101FD000002B02D001305B68FAE762B67047C0465A
:101FE00074000020F8B572B60123174A08259446FC
:101FF0001E00164964465A1EA25C2A421AD05F018E
:102000007C589A00002C05D1CB1908305860104B31
:10201000CB5109E03243D2005458002C0AD18B181E
:10202000083058600B4B8B500B4A1378013B1370F0
:1020300062B608E00133052BDCD162B60022064B04
:102040001A7000F0ABFBF8BDD82D000000F8FF1FA0
:1020500088004000C80040009E000020421E10B5CD
:10206000032A30D8022380001843174BC0001B18E6
:1020700072B6164CA05C03280BD800F07DFC160449
:102080000207052012E0083302200FE00833042085
:102090000CE00F48920014580E4B002C01D1115047
:1020A00001E09858416099500CE00320A0540A00C8
:1020B00008325A60C822180700D4403A0988090437
:1020C0000A431A6062B610BD00F8FF1FDCFFFF1F55
:1020D0007400002084000020F7B5B54B1C781D006B
:1020E0000423E4B21C421DD0B24B1B78002B16D047
:1020F000B14A1378DBB2002B05D0013BDBB2137081
:10210000002B00D100BEAD4A1378DBB2002B06D005
:10211000013BDBB21370002B01D1FFF78DFB0422D2
:10212000A34B1A700822224000D157E2A44BA54FBE
:102130001B78DBB29C08E4001D093C19002D00D07F
:10214000DDE1226863689006000F01380C2800D991
:10215000D1E100F01BFC94019401D001D001D00129
:10216000D001D001D001AD01D001D001D0010D00CE
:102170001A68954E5B689549736000230B600121D6
:10218000934832602060934C92B22170924C3B6134
:10219000BB610190A24218D8D020C000824200D377
:1021A000E5E081204000824200D1C2E006D8802ACA
:1021B00000D1A9E0822A00D1ABE0F5E0874B9A423A
:1021C00000D1C5E0FF33FF331AE08548824200D1D9
:1021D00052E110D888231B019A4200D18EE080334F
:1021E0009A4200D0E0E03C003D00B278714B2034D0
:1021F0001A70A03508E07B498A4200D1CCE07A4BC6
:102200009A4200D112E1CFE080222368134203D02A
:102210006068083800F0C2FA0834AC42F4D10024F7
:102220002500724BE058002805D04368009300F069
:10223000B5FA0098F7E76D4B18516D4BE0506D4BB8
:10224000E058002805D04368009300F0A7FA0098F2
:10225000F7E7684B684A1851684BE0506B00D05262
:10226000674BE85C0238032807D800F085FB0204BE
:102270000204002200E001225A5501350434042DE5
:10228000CFD1002301245F4D2B705F4B5F49621E4D
:10229000E3188A5C9B001A7008231A4220D000F0D1
:1022A0005FFA6301002805D0FA1808305060584AD8
:1022B000FA5003E0F8502B7801332B7000F050FAFD
:1022C0000122A3001343DB00002805D0FA180830D0
:1022D0005060019AFA5003E0F8502B789B182B704D
:1022E00002210023A2001143C9007B5003210A43AD
:1022F0008A400134BB50052CC7D198E02D4B454C8A
:102300001B7823700B0093E0424C23706370022310
:102310008EE0B288042A47D83E4C92002370637046
:102320003D4BD218022312781A4200D180E021706E
:102330007EE07F23B2881A40042A35D87388002BA8
:1023400032D102203449920052181178814329E099
:102350007F23B2881A40042A26D87388002B23D101
:1023600002202D4992005218117801431AE0728818
:10237000B1882A4B5C68002C16D01888904209D18D
:102380005888884206D1120A032A01D123784FE0E7
:102390001B894DE00C33EDE7214A1168214A116099
:1023A000B178214A117042E00F221B4B1A7063E092
:1023B00080200740A70000203100002071FFFF1F90
:1023C0009020074000F8FF1F94000020C8FFFF1F67
:1023D000C8004000A80000208106000002030000A1
:1023E00021200000212200002123000020000020E5
:1023F000CCFFFF1F74000020B800002084000020E4
:10240000DCFFFF1F9E00002030C80110D82D000007
:10241000880040009F000020C0200740DC2D000005
:10242000C4FFFF1FB400002080FFFF1F00231C001B
:10243000F5889D4200D91D002E00402D00D9402670
:1024400020003100FFF784FDA419AD1B03D12F003C
:10245000402E04D010E04027AF4200D92F002000CA
:102460003900FFF775FDE419ED1B01D1402F03D1B1
:10247000764B1C60764B1D800122764B3AE0764904
:10248000764A0988914210D100227549985C885497
:102490000132072AFAD10B68862B02D1714B083220
:1024A0001A7000210800FFF753FD6F4B236022E0F4
:1024B000664F3E68002E13D0654B1C882500402CCB
:1024C00000D9402529003000FFF742FD641B604B16
:1024D000A4B21C80002C01D1402D00D174193C60A5
:1024E000A0225D4BD2001988914204D100225A707B
:1024F0009A785E4B1A700122564B1A706AE00822D5
:102500006068013D0838EDB2134037D000F046F95D
:102510005749A8004258574B002A1CD056684650CD
:102520001100585D0831616003280BD800F024FACF
:1025300002040608032104E0022102E0052100E074
:10254000042159550821C8230C4200D1403B128870
:10255000120413433DE0585D032808D800F00CFA3C
:102560003A3A0204002200E001225A5532E00822E1
:102570001440621E944102345C552BE02268110C19
:102580008AB2028000291ED03B4943804360AB00E1
:102590005F583A4E002F01D1585001E0F158486081
:1025A00037496D00F0506B5AD2186A5200F0D8F8D3
:1025B000002802D00830606005E0324A20601378BD
:1025C0000133137006E008231C4201D12E4B00E0BA
:1025D000254B236008222D4B1A707EE50120044212
:1025E0001ED002231B49284C0B70294B294E1A7010
:1025F000294B1C609C60294C1A61DC600D249A6197
:102600005E60274B1C70FF23264C2370174C2B70E9
:102610002270254A13709F22244B1A70087013E011
:1026200063B2002B04DA0D221D4B1A7080232B702D
:102630000222144204D01B490B78DBB20B702A70C3
:1026400010231C4200D02B70F7BDC046C8FFFF1FEF
:102650009C000020942007409400002021200000CE
:10266000AC00002031000020C80040009820074046
:1026700074000020DCFFFF1F20000020CCFFFF1FA4
:10268000B80000209E000020880040008020074005
:1026900030000020E0FFFF1F00F8FF1F3400002083
:1026A000C0200740882007408C2007408420074036
:1026B00010B500F0E3F8002211001B4BD150981820
:1026C00008324160882AF9D180201849C0020A687E
:1026D00002430A601A0A1649D2B20A701A0C154946
:1026E000D2B20A70144A1B0E1370FF23134A002043
:1026F0001370134A13491370134A137001220A709E
:102700001249087012490A70124A116899430B0065
:1027100070210B43136080220F4B52041A60102269
:102720000E4B1A7010BDC04600F8FF1F34800440E5
:102730009C200740B0200740B4200740802007407D
:1027400088200740942007401020074000210740C0
:102750008420074018E400E000E100E00821074081
:1027600070B572B60B4D2C68200000F0A5F90B284F
:1027700002DD62B600200CE080231B06C3409C43B0
:102780002C6062B648235843034B1818002303609B
:10279000436070BD24FDFF1FC0F9FF1F10B504008A
:1027A0000E484821201A00F0FBF80B2814D80C4BD7
:1027B0001B78002B07D00B4B1B78002B03D020007D
:1027C000FFF710FC08E072B680231B06C340064AE0
:1027D00011680B43136062B610BDC046C0F9FF1FFD
:1027E0009E000020A700002024FDFF1F1B4B1C4A59
:1027F00019781C4B082901D1002102E00A2903D1D4
:102800002E311160132206E00C2901D1283100E09D
:102810003C21116012221A60134B1A78134B002AC4
:1028200001D0002200E001221A60114B1A78114BEE
:10283000012A01D880220CE0042A01D8842208E071
:10284000082A01D8852204E0102A01D8862200E057
:1028500087221A600122084B1A70704728FDFF1F5B
:1028600008B003400CB00340AA00002020B0034091
:1028700029FDFF1F24B00340A900002030B585B01A
:1028800072B670224121154B1A70154A1170154A03
:102890003239117080221A701A7852B2002AFBDA8B
:1028A000114B186862B6114B984201D80A2358435D
:1028B00001AC0A22210000F01DF800230C48E15C65
:1028C0000500002905D05A008218013351800A2BD7
:1028D000F5D101335B002B7005B030BD0000024024
:1028E0000700024006000240080002407F96980060
:1028F000B2FDFF1FF8B506000D00170000243900D7
:10290000300000F0D3F80B003733DBB2092901D8CF
:102910003031CBB230002B55390000F041F8061EA3
:1029200001D00134EBE72B1958702B005A1B94424D
:1029300006DD1A78295D19702A550133013CF5E747
:102940002800F8BD10B501210D20FFF725FA10BDB4
:10295000064B10B51A6820231A4201D1044A00E040
:10296000044A13603220FFF771FA10BD900000F89E
:10297000840000F8880000F802B471464908490054
:10298000095C49008E4402BC7047C04603B47146DE
:10299000490840004900095A49008E4403BC704769
:1029A000002243088B4274D303098B425FD3030A8E
:1029B0008B4244D3030B8B4228D3030C8B420DD3A1
:1029C000FF22090212BA030C8B4202D3121209022F
:1029D00065D0030B8B4219D300E0090AC30B8B426D
:1029E00001D3CB03C01A5241830B8B4201D38B031B
:1029F000C01A5241430B8B4201D34B03C01A5241C0
:102A0000030B8B4201D30B03C01A5241C30A8B4202
:102A100001D3CB02C01A5241830A8B4201D38B02ED
:102A2000C01A5241430A8B4201D34B02C01A524191
:102A3000030A8B4201D30B02C01A5241CDD2C30903
:102A40008B4201D3CB01C01A524183098B4201D37F
:102A50008B01C01A524143098B4201D34B01C01A6A
:102A6000524103098B4201D30B01C01A5241C308E2
:102A70008B4201D3CB00C01A524183088B4201D351
:102A80008B00C01A524143088B4201D34B00C01A3D
:102A90005241411A00D20146524110467047FFE7A9
:102AA00001B5002000F006F802BDC0460029F7D0AD
:102AB00076E770477047C0461C2101231B049842EB
:102AC00001D3000C10391B0A984201D3000A0839BF
:102AD0001B09984201D30009043902A2105C401876
:102AE0007047C0460403020201010101000000001A
:102AF000000000000E4B70B500251E000D4CE41ABE
:102B0000A410A54204D0AB00F35898470135F8E76C
:102B100000F08EF9084B00251E00084CE41AA410A2
:102B2000A54204D0AB00F35898470135F8E770BDD3
:102B30003C2E00003C2E00003C2E0000502E0000D9
:102B40000023C25C0133002AFBD1581E7047FFFFEF
:102B50000000000000000000BD180000E1180000A7
:102B600099190000911900008919000081190000CD
:102B700049190000611900004119000037190000CF
:102B80002D19000021190000111900000119000081
:102B9000F9180000F1180000811800008D180000DD
:102BA00099180000A5180000C9180000B11800000D
:102BB0000000000000000000FD190000211A0000C4
:102BC000D91A0000D11A0000C91A0000C11A000069
:102BD000891A0000A11A0000811A0000771A00006B
:102BE0006D1A0000611A0000511A0000411A00001D
:102BF000391A0000311A0000C1190000CD19000077
:102C0000D9190000E5190000091A0000F1190000A7
:102C100000000000000000003D1B0000611B0000E0
:102C2000191C0000111C0000091C0000011C000000
:102C3000C91B0000E11B0000C11B0000B71B000006
:102C4000AD1B0000A11B0000911B0000811B0000B8
:102C5000791B0000711B0000011B00000D1B000010
:102C6000191B0000251B0000491B0000311B000040
:102C70000000000000000000751C0000691C00003E
:102C8000611C0000591C0000511C0000491C000080
:102C9000411C0000420000F840A004400100000078
:102CA000420000F844A0044002000000C00000F808
:102CB00000C0044001000000000000F8049004403F
:102CC00002000000000000F808900440040000002A
:102CD000C00000F81CC0044080000000C00000F8E4
:102CE00010C0044010000000C00000F808C00440FC
:102CF00004000000C00000F80CC004400800000000
:102D0000800000F80CB0044008000000800000F8CB
:102D100010B0044010000000800000F818B004401B
:102D200040000000800000F81CB00440800000005B
:102D3000800000F814B0044020000000C00000F83B
:102D400004C0044002000000800000F800B004400D
:102D500001000000400000F800A004400100000055
:102D6000400000F804A0044002000000400000F809
:102D70000CA0044008000000400000F808A0044037
:102D800004000000C00000F814C00440200000004F
:102D9000C00000F818C0044040000000800000F8A7
:102DA00004B0044002000000800000F808B00440B5
:102DB00004000000020100F850D0044010000000A0
:102DC000020100F854D0044020000000030100F884
:102DD00078D00440400000000015191500010000E3
:102DE0002AFDFF1F120000000002000054FDFF1F1B
:102DF0004300000000030000AEFDFF1F00000000C4
:102E0000010309043CFDFF1F000000000203090448
:102E100098FDFF1F0000000003030904B2FDFF1F1F
:102E200000000000000000000000000000000000A2
:102E3000F8B5C046F8BC08BC9E467047390400008F
:102E4000A5190000E51A0000251C0000811C0000E7
:042E5000F8B5C046CB
:102E540001070800FFFFFFFF0A041201010102003D
:102E64000040C01683040002010203011803540049
:102E7400650065006E0073007900640075006900E8
:102E84006E006F0009024300020100C03209040011
:102E940000010202010005240010010524010101C2
:102EA40004240206052406000107058203100040DD
:102EB40009040100020A00000007050302400000A3
:102EC4000705840240000000160355005300420029
:102ED4002000530065007200690061006C00040367
:102EE40009040C03000000000000000000000000C2
:082EF4000000000000000000D6
:00000001FF
