:1000000000800020BD010000A91F0000611F00004A
:10001000611F0000611F0000611F0000611F0000E0
:10002000611F0000611F0000611F0000A91F000088
:10003000A91F0000611F0000A91F0000511F000040
:10004000A91F0000A91F0000A91F0000A91F000090
:10005000A91F0000A91F0000A91F0000A91F000080
:10006000A91F0000A91F0000A91F0000A91F000070
:10007000A91F0000A91F0000A91F0000A91F000060
:10008000A91F0000A91F0000A91F0000A91F000050
:10009000A91F0000A91F0000A91F0000A91F000040
:1000A000A91F0000A91F0000A91F0000A91F000030
:1000B000A91F0000A91F0000A91F0000A91F000020
:1000C000A91F0000A91F0000A91F0000A91F000010
:1000D000A91F0000A91F0000A91F0000A91F000000
:1000E000A91F0000A91F0000A91F0000A91F0000F0
:1000F000A91F00001D0B0000A91F000061120000D5
:10010000A91F0000D1170000A91F0000A91F0000AF
:10011000A91F0000A91F0000A91F0000A91F0000BF
:10012000A91F0000A91F0000A91F0000A91F0000AF
:10013000A91F0000A91F0000A91F0000A91F00009F
:10014000A91F0000A91F0000A91F0000A91F00008F
:10015000A91F0000A91F0000A91F0000A91F00007F
:10016000A91F0000E1230000A91F0000A91F000033
:10017000A91F0000A91F0000A91F0000A91F00005F
:10018000A91F0000A91F0000A91F0000A91F00004F
:10019000A91F0000A91F0000A91F0000A91F00003F
:1001A000A91F0000A91F0000A91F0000A91F00002F
:1001B000A91F0000A91F0000A91F0000564B4CF208
:1001C000205210B51A804DF628121A8000BF00BFC9
:1001D00001F0EEFE514B4FF010621A60504A9A60E7
:1001E000504ADA60504A136813F4807304D14F49BF
:1001F0000B604FF4A85313604D4B1A78110703D5C9
:100200001A7842F008021A704A4B4B492A221A7097
:100210004A4A4B4B8B4204D252F8040F43F8040B6A
:10022000F8E7484B484900228B4202D243F8042B9E
:10023000FAE74649464A002352F8230041F82300D2
:1002400001336F2BF8D1434B434A802103F8011B44
:100250009342FBD1414B3D4A1A60414B8A221A70AE
:10026000A3F5805324225A70A0221A709A7992071B
:10027000FCD59A79D406FCD43A4A937903F00C035E
:10028000082B384BF9D103221A7140225A719A79FE
:100290009006FCD5334A9179324B4906FBD5324A58
:1002A000324911600221516020221A709A7902F0BD
:1002B0000C020C2AFAD12E4B2E4A1A602E4B2F4AD2
:1002C0001A6000225A60072243F8042C2C4AC3F813
:1002D0000C2D62B601F05CFF144B1B68DA0705D5E4
:1002E000284801F0E9FE284B284A1A60284B1B7861
:1002F0005B0609D5244C254B22689A4204D121483B
:1003000001F0DAFE0023236002F028FE01F056FE21
:1003100000F0ACF8FEE700BF0E200540308004403E
:10032000823F04000100002B10D0034014D0034092
:1003300002D0074000E00740F88BFF1F5C3400004C
:100340002087FF1FF88BFF1FFC8EFF1F0082FF1FFF
:100350000000000000E400E05FE400E008ED00E0E1
:100360000050064000400640448004400000030165
:1003700004800440C010050014E000E0FF76010096
:100380000000202000DD68501CE00340A5C3945A03
:1003900000F00740FFFFFFFFFFFFFFFFFFFFFFFF32
:1003A000FFFFFFFFFFFFFFFFFFFFFFFFFFFFFFFF5D
:1003B000FFFFFFFFFFFFFFFFFFFFFFFFFFFFFFFF4D
:1003C000FFFFFFFFFFFFFFFFFFFFFFFFFFFFFFFF3D
:1003D000FFFFFFFFFFFFFFFFFFFFFFFFFFFFFFFF2D
:1003E000FFFFFFFFFFFFFFFFFFFFFFFFFFFFFFFF1D
:1003F000FFFFFFFFFFFFFFFFFFFFFFFFFFFFFFFF0D
:10040000FFFFFFFFFFFFFFFFFFFFFFFFDEF9FFFF23
:1004100010B5054C237833B9044B13B10448AFF33E
:1004200000800123237010BDF88BFF1F0000000027
:1004300060340000084B10B51BB108490848AFF301
:1004400000800848036803B910BD074B002BFBD0A0
:10045000BDE81040184700BF00000000FC8BFF1FE4
:1004600060340000F88BFF1F0000000008B502F0A8
:100470005BFD02F05DFD00F001F8FAE710B5154CE8
:10048000237803B110BD0123237001F049FA58B954
:1004900000F0C2FA70B900F061FE88B901F02AF9E3
:1004A000A0B90023237010BD01F042FD00F0B4FAA2
:1004B0000028F0D001F0B2FB00F050FE0028EDD093
:1004C00001F060FC01F016F90028EAD001F00EFD01
:1004D000E7E700BF148CFF1F2DE9F84F214B1B6885
:1004E00007460BB101221A70DFF888901E4D99F86B
:1004F0000040DFF884801D4E01343F2C8ABF4FF04E
:10050000000A5FFA84FA5446AB462B78A34216D110
:1005100001F056FD40281FDC33791B06F5D59BF80A
:10052000003001333F2B86BF00221346DAB218F8A1
:100530000330DBB2F3712A702B78A342E8D00C4968
:100540000A4BFFB208F804700120BC22087089F839
:1005500000A0DA70BDE8F88FFF28D6DDFFF78EFF28
:10056000D3E700BFA88CFF1FA58CFF1F00A006408B
:10057000A48CFF1FAC8CFF1F208CFF1F274A28492B
:100580001368F0B543F4806313600A78254F264E54
:10059000264D274C274900233B7033702B70237066
:1005A0000B70002A35D0152A26D0234B1B78012B3F
:1005B0002AD0052B03D1214B4FF451721A60204BE6
:1005C000204C2149C0F34436C0F347151E7000F09B
:1005D0001F005D7004224FF0020E88273C26402544
:1005E00098729A704FF4005083F813E05A751F7494
:1005F000DE7025700860F0BD144B40F213321A60B3
:100600000D4B1B78012BD4D1114B4FF451721A6052
:10061000D5E7104B40F213321A60C6E7348004402D
:10062000608CFF1F1C8CFF1F1D8CFF1FAC8CFF1FDD
:10063000A58CFF1FA48CFF1F2087FF1F1CC0044038
:1006400000A006402DE400E004E100E018C00440F2
:1006500044A0044040A00440144B14499B7803F08C
:10066000EC0200F003031343420700F00F0248BFFF
:1006700043F01003042A8B7013D00C4B0B4A5B79A8
:10068000C10603F0EF0348BF43F0100353719379A1
:10069000820603F0EF03054A48BF43F0100393714D
:1006A00070478B7943F040038B71E6E700A006406A
:1006B000214B1B685B053ED510B5204C237823B138
:1006C000FFF7DCFE2378002BFAD11D481D4A1E4B94
:1006D0004FF4005400210460D1701B78E3B1152B56
:1006E00003D11A4B40F203121A60194B1B7803F026
:1006F0007F03012B1AD0052B03D1164B40F20312B6
:100700001A60154B154816491A68002303700B70C0
:100710000AB10123137010BD124B40F203121A608C
:100720000B4B1B7803F07F03012BE4D10E4B40F2FF
:1007300003121A60E5E7704734800440A48CFF1F61
:1007400084E100E000A00640608CFF1F18C0044058
:100750002087FF1F1CC00440188CFF1F1C8CFF1F2C
:100760001D8CFF1F40A0044044A004400A4A38B535
:100770000546137803F0FF04002BFAD10121284627
:1007800001F0B2FC2146284601F0A8FC034A044BC4
:1007900052F835201A6038BDA48CFF1FCC320000FF
:1007A000A88CFF1F09B140F08000174A13789842C7
:1007B00016D010B4154C246864050FD503F07F03E0
:1007C000012B1CD0052B11D0002900F07F0114BF94
:1007D0006023442301290DD0052902D0107010BCDC
:1007E00070470B4943F440730B60F7E7084B002454
:1007F0001C60E9E7074943F440730B60EEE7054BE3
:1008000000241C60E0E700BF2087FF1F3480044005
:100810001CC0044044A00440104B1A7882420AD005
:100820000F490968490505D5AAB1152A09D068B14B
:10083000152801D0187070470A4A40F21331116030
:10084000F8E7084A002111600028F1D1064A40F279
:1008500013311160EEE704490A60E8E7608CFF1F7E
:100860003480044018C0044040A004400D4B1B6875
:1008700013F4806305D0212805D90B4B00201860A4
:10088000704718467047094B10B5074C53F8303085
:100890002360012101F028FC236800221A70012046
:1008A00010BD00BF34800440188CFF1FCC32000004
:1008B0000F4B1B6813F4806308D0122808D014284B
:1008C00011D00C4A537B03F0FE0353730020704792
:1008D000094B40F202321A60064A537B43F001038F
:1008E000537301207047054B40F202321A60F3E760
:1008F0003480044000A006400CA0044014C0044012
:10090000034B1B685B0501D5FFF7E6BD704700BFD1
:10091000348004402DE9F84F294B1B685A0548D50F
:10092000284B1B6805460BB101221A7005EB010A22
:10093000554540D2DFF89C80234CDFF89C90234F34
:100940000AE015F8012B09F80B20214A0123AA45DA
:10095000137088F800602ED098F80030227803F1E8
:10096000010BBBF13F0F86BF0026B3465FFA8BF643
:100970009345E6D1BC22FA7005E03A7913060BD410
:1009800022789345DDD101F01BFB4028F5DDFF28DF
:10099000F6DDFFF773FDF3E7227801323F2A86BFC9
:1009A00000210A46D1B219F80220D2B2FA712170A0
:1009B000E6E7BDE8F88F054BBC22DA70BDE8F88F9A
:1009C00034800440A88CFF1FA58CFF1F00A00640A8
:1009D000A48CFF1FAC8CFF1F208CFF1F10B5044C94
:1009E000237823B1FFF74AFD2378002BFAD110BDFD
:1009F000A48CFF1F064A074B1B781078DBB2C0B2ED
:100A000083422CBF3F3000F1FF30C01A704700BF57
:100A1000A58CFF1FAC8CFF1F054A064B10781B7876
:100A2000C0B2DBB2984238BF4030C01A704700BF36
:100A30001C8CFF1F1D8CFF1F30B4154B154C1A78F2
:100A40002378D2B2DBB29A421ED001333F2B0ED9AB
:100A50001149124B087819680023C0B2237021B1E4
:100A6000D31A1A2B01DC00230B7030BC70470A48E4
:100A70000A49C05C0968DDB2C0B225700029F4D013
:100A80009A4238BF4032EBE74FF0FF30EDE700BF4E
:100A90001C8CFF1F1D8CFF1F648CFF1F188CFF1FF9
:100AA000084A094B12781B78DBB29A4207D001330F
:100AB000402B28BF0023054AD05CC0B270474FF0DE
:100AC000FF3070471C8CFF1F1D8CFF1F648CFF1FA5
:100AD0000D4B1B685B0516D530B40C4B0C4CDA780B
:100AE0000C480D4902F0CB024025DA705D74DA78CB
:100AF00042F03402DA7023780268DBB20B700AB17C
:100B00000023137030BC70473480044000A00640BE
:100B10001D8CFF1F188CFF1F1C8CFF1FF0B4384B5F
:100B20001A7912F0300F2CD072B6997D01F0FF02C5
:100B300000293DD062B6334F334938780D78334EB3
:100B40001C46C0B2EDB2431C402BE17928BF002304
:100B5000AB4202F1FF32C9B21CBFF154184612F089
:100B6000FF02F0D12A4B1B68C2B23A704BB1A842C7
:100B700036BFC5F14005401B40192728C4BF0122DC
:100B80001A701F49CA78D2B2150616D452060DD56E
:100B90001B4B1B795B0609D51E4B1F491B680022A6
:100BA0000A7003B11A70164B3C22DA70F0BC704721
:100BB0004022D9795A7462B6E3E70B791C06E5D571
:100BC000164B174E1C783378E4B2DBB29C420ED041
:100BD000144D01E0A3420AD00133402B28BF00236B
:100BE0000879E85CC0B2C871087D0728F2D9DBB289
:100BF000034933700B79180644BF7C23CB70C5E7DB
:100C000000A006401C8CFF1F1D8CFF1F648CFF1F63
:100C1000188CFF1FA88CFF1FA48CFF1FAC8CFF1F1C
:100C2000A58CFF1F208CFF1F274A28491368F0B5A9
:100C300043F4006313600A78254F264E264D274C57
:100C400027490023092A3B7033702B7023700B70E7
:100C500035D01A2A26D0234B1B780A2B2AD01F2BDB
:100C600003D1214B4FF451721A60204B204C214983
:100C7000C0F34436C0F347151E7000F01F005D70CE
:100C800004224FF0020E88273C26402598729A7065
:100C90004FF4004083F813E05A751F74DE7025701E
:100CA0000860F0BD144B40F213321A600D4B1B78F4
:100CB0000A2BD4D1114B4FF451721A60D5E7104B67
:100CC00040F213321A60C6E7348004402187FF1FC8
:100CD000208DFF1FB58CFF1F288DFF1F218DFF1F4B
:100CE000B48CFF1F2287FF1F00D0044000B00640D5
:100CF0002FE400E004E100E004D0044010B0044020
:100D00000CB00440144B14499B7803F0EC0200F043
:100D100003031343420700F00F0248BF43F01003E0
:100D2000042A8B7013D00C4B0B4A5B79C10603F07D
:100D3000EF0348BF43F0100353719379820603F029
:100D4000EF03054A48BF43F01003937170478B7956
:100D500043F040038B71E6E700B00640224B1B686E
:100D60001B053FD510B5214C237823B1FFF786FB37
:100D70002378002BFAD11E481E4A1F4B4FF4004423
:100D800000210460D1701B78092B1CD01A2B03D1D1
:100D90001A4B40F203121A60194B1B7803F07F03C1
:100DA0000A2B1AD01F2B03D1164B40F203121A60E4
:100DB000154B164816491A68002303700B700AB1C8
:100DC0000123137010BD134B40F203121A600C4B39
:100DD0001B7803F07F030A2BE4D10F4B40F2031280
:100DE0001A60E5E7704700BF34800440B48CFF1FF1
:100DF00084E100E000B006402187FF1F04D00440DA
:100E00002287FF1F00D00440B08CFF1F208DFF1FE2
:100E1000B58CFF1F0CB0044010B004400A4A38B52E
:100E20000546137803F0FF04002BFAD10121284670
:100E300001F05AF92146284601F050F9034A044BC3
:100E400052F835201A6038BDB48CFF1FCC32000038
:100E5000248DFF1F09B140F08000174A1378984293
:100E600016D010B4154C246824050FD503F07F0369
:100E70000A2B1CD01F2B11D0002900F07F0114BFBA
:100E8000602344230A290DD01F2902D0107010BC02
:100E900070470B4943F440730B60F7E7084B00249D
:100EA0001C60E9E7074943F440730B60EEE7054B2C
:100EB00000241C60E0E700BF2287FF1F348004404D
:100EC00000D0044010B00440124B1A7882420CD07B
:100ED00011490968090507D5092A16D01A2A0AD026
:100EE00009280DD01A2801D0187070470B4A40F21B
:100EF00013311160F8E7094A002109281160F1D186
:100F0000074A40F213311160EEE7054A00211160F3
:100F1000E6E700BF2187FF1F3480044004D004406F
:100F20000CB004400D4B1B6813F4006305D021285E
:100F300005D90B4B00201860704718467047094BC5
:100F400010B5074C53F830302360012101F0CCF884
:100F5000236800221A70012010BD00BF34800440B5
:100F6000B08CFF1FCC3200000C4B1B6813F40063E5
:100F700006D0172806D00A4A537B03F0FE035373AA
:100F800000207047074B064A40F202311960537B3C
:100F900043F0010353730120704700BF34800440C5
:100FA00000B0064008B004402DE9F84F234B1B6801
:100FB0001A053BD5224B1B680BB101221A70DFF8D2
:100FC0009090204D99F80040DFF888801E4E013443
:100FD000272C8ABF4FF0000A5FFA84FA544607466E
:100FE000AB462B789C4216D100F0EAFF40281FDC6C
:100FF00033791B06F5D59BF800300133272B86BFCC
:1010000000221346DAB218F80330DBB2F3712A700B
:101010002B789C42E8D00D490B4BFFB20120BC223B
:1010200008F80470087089F800A0DA70BDE8F88F3D
:10103000FF28D6DDFFF722FAD3E700BF3480044053
:10104000248DFF1F218DFF1F00B00640B48CFF1FB1
:10105000288DFF1FB88CFF1F2DE9F84F294B1B6807
:101060001A0548D5284B1B6805460BB101221A709A
:1010700005EB010A554540D2DFF89C80234CDFF890
:101080009C90234F0AE015F8012B09F80B20214A08
:101090000123AA45137088F800602ED098F800301C
:1010A000227803F1010BBBF1270F86BF0026B34660
:1010B0005FFA8BF69345E6D1BC22FA7005E03A79E7
:1010C00013060BD422789345DDD100F079FF402838
:1010D000F5DDFF28F6DDFFF7D1F9F3E722780132DD
:1010E000272A86BF00210A46D1B219F80220D2B2BF
:1010F000FA712170E6E7BDE8F88F054BBC22DA7083
:10110000BDE8F88F34800440248DFF1F218DFF1F20
:1011100000B00640B48CFF1F288DFF1FB88CFF1F46
:1011200010B5044C237823B1FFF7A8F92378002BDE
:10113000FAD110BDB48CFF1F064A074B1B781078FC
:10114000DBB2C0B283422CBF273000F1FF30C01A9F
:10115000704700BF218DFF1F288DFF1F054A064BDA
:1011600010781B78C0B2DBB2984238BF4030C01A4A
:10117000704700BF208DFF1FB58CFF1F30B4154B8B
:10118000154C1A782378D2B2DBB29A421ED00133C2
:101190003F2B0ED91149124B087819680023C0B2B1
:1011A000237021B1D31A1A2B01DC00230B7030BC41
:1011B00070470A480A49C05C0968DDB2C0B22570B0
:1011C0000029F4D09A4238BF4032EBE74FF0FF30AD
:1011D000EDE700BF208DFF1FB58CFF1FE08CFF1FC8
:1011E000B08CFF1F084A094B12781B78DBB29A4279
:1011F00007D00133402B28BF0023054AD05CC0B282
:1012000070474FF0FF307047208DFF1FB58CFF1FD8
:10121000E08CFF1F0D4B1B681B0516D530B40C4B23
:101220000C4CDA780C480D4902F0CB024025DA70FC
:101230005D74DA7842F03402DA7023780268DBB247
:101240000B700AB10023137030BC70473480044027
:1012500000B00640B58CFF1FB08CFF1F208DFF1F14
:10126000F0B4384B1A7912F0300F2CD072B6997D49
:1012700001F0FF0200293DD062B6334F3349387880
:101280000D78334E1C46C0B2EDB2431C402BE179C1
:1012900028BF0023AB4202F1FF32C9B21CBFF15498
:1012A000184612F0FF02F0D12A4B1B68C2B23A7006
:1012B0004BB1A84236BFC5F14005401B4019272855
:1012C000C4BF01221A701F49CA78D2B2150616D4BB
:1012D00052060DD51B4B1B795B0609D51E4B1F49CA
:1012E0001B6800220A7003B11A70164B3C22DA7098
:1012F000F0BC70474022D9795A7462B6E3E70B79A3
:101300001C06E5D5164B174E1C783378E4B2DBB2D9
:101310009C420ED0144D01E0A3420AD00133282B89
:1013200028BF00230879E85CC0B2C871087D07288F
:10133000F2D9DBB2034933700B79180644BF7C2322
:10134000CB70C5E700B00640208DFF1FB58CFF1F96
:10135000E08CFF1FB08CFF1F248DFF1FB48CFF1F7C
:10136000288DFF1F218DFF1FB88CFF1F2DE9F84F1F
:10137000214B1B6807460BB101221A70DFF88890D9
:101380001E4D99F80040DFF884801D4E0134272C53
:101390008ABF4FF0000A5FFA84FA5446AB462B78B6
:1013A000A34216D100F00CFE40281FDC33791B0647
:1013B000F5D59BF800300133272B86BF002213465A
:1013C000DAB218F80330DBB2F3712A702B78A3423B
:1013D000E8D00C490A4BFFB208F804700120AC2297
:1013E000087089F800A0DA70BDE8F88FFF28D6DD14
:1013F000FFF744F8D3E700BFA08DFF1F9D8DFF1FAF
:1014000000C006409C8DFF1FA48DFF1F348DFF1F61
:10141000184A19491368F0B543F48053174C184D16
:10142000184FDFF878E01360174E184A0023237036
:101430008EF80030164C2B700B703B7040F2133757
:101440003760144D1449C0F344364FF45177276088
:101450001670C0F347142C2700F01F00402654706C
:1014600090724FF4003493701374D7702E700C6028
:10147000F0BD00BF348004409D8DFF1F308DFF1FE5
:10148000A48DFF1F9C8DFF1F08C0044000C00640B4
:101490000CC0044031E400E004E100E0318DFF1FA6
:1014A000144B14499B7803F0EC0200F00303134340
:1014B000420700F00F0248BF43F01003042A8B706C
:1014C00013D00C4B0B4A5B79C10603F0EF0348BF06
:1014D00043F0100353719379820603F0EF03054A3A
:1014E00048BF43F01003937170478B7943F040037A
:1014F0008B71E6E700C00640F8B5124B1B68DB04B1
:101500001DD5114C237823B1FEF7B8FF2378002BAB
:10151000FAD10E4B0E4F0F4E0F4D104C1048114983
:101520004FF400321A600023FB7040F20312326065
:101530002A60226803700B7012B101231370F8BD8A
:10154000F8BD00BF348004409C8DFF1F84E100E0A3
:1015500000C0064008C004400CC004402C8DFF1F92
:10156000308DFF1F318DFF1F0A4A38B505461378AD
:1015700003F0FF04002BFAD10121284600F0B4FD4E
:101580002146284600F0AAFD034A044B52F83520B4
:101590001A6038BD9C8DFF1FCC320000A08DFF1F4C
:1015A00009B140F080000F4A1378984219D010B466
:1015B0000D4C2468E40412D503F07F03082B02D1FC
:1015C0000A4B00241C60002900F07F0314BF602137
:1015D0004421082B03D1054B41F440711960107070
:1015E00010BC70472387FF1F348004400CC00440A8
:1015F000704700BF0D4B1B6813F4805305D02128A2
:1016000005D90B4B00201860704718467047094BEE
:1016100010B5074C53F830302360012100F064FD11
:10162000236800221A70012010BD00BF34800440DE
:101630002C8DFF1FCC3200000C4B1B6813F4805321
:1016400006D00E2806D00A4A537B03F0FE035373DC
:1016500000207047074B064A40F202311960537B65
:1016600043F0010353730120704700BF34800440EE
:1016700000C0064004C00440034B1B68DB0401D5D6
:10168000FFF774BE704700BF3480044070B5094E48
:1016900004464518AC4204F101040AD03368DB0467
:1016A000F8D514F8010CFFF761FEAC4204F1010417
:1016B000F4D170BD3480044010B5044C237823B1BC
:1016C000FEF7DCFE2378002BFAD110BD9C8DFF1FA6
:1016D000064A074B1B781078DBB2C0B283422CBF9E
:1016E000273000F1FF30C01A704700BF9D8DFF1FEB
:1016F000A48DFF1F054A064B10781B78C0B2DBB2E1
:10170000984238BF4030C01A704700BF308DFF1F6D
:10171000318DFF1F30B4154B154C1A782378D2B297
:10172000DBB29A421ED001333F2B0ED91149124B26
:10173000087819680023C0B2237021B1D31A1A2B7C
:1017400001DC00230B7030BC70470A480A49C05CBA
:101750000968DDB2C0B225700029F4D09A4238BFC2
:101760004032EBE74FF0FF30EDE700BF308DFF1F59
:10177000318DFF1F5C8DFF1F2C8DFF1F084A094B09
:1017800012781B78DBB29A4207D00133402B28BF76
:101790000023054AD05CC0B270474FF0FF3070475D
:1017A000308DFF1F318DFF1F5C8DFF1F054B064ADB
:1017B0001B7806491268DBB20B700AB10023137064
:1017C000704700BF318DFF1F2C8DFF1F308DFF1F15
:1017D00030B42B4B1A7994061FD52A48DA7903784E
:1017E000294901333F2B0978C8BF00238B42D2B26D
:1017F00003D0264CD9B2E2540170254A116861B178
:10180000244A1278D2B2934236BFC2F140029B1AE8
:101810009B18272BC4BF01230B70194AD378DBB266
:10182000180611D45A060DD5154B1B795B0609D540
:10183000194B1A491B6800220A7003B11A70104B29
:101840002C22DA7030BC704711790906EAD51449A8
:1018500010480C780178C9B28C420DD04A1C272A56
:1018600084BF00210A460F4D054C98BFD1B2AA5C37
:10187000D2B2E2710170D5E76C21D170D2E700BF1E
:1018800000C00640308DFF1F318DFF1F5C8DFF1F94
:101890002C8DFF1F9D8DFF1FA08DFF1F9C8DFF1F97
:1018A000A48DFF1F348DFF1F38B50F4D286878B108
:1018B00043880288C118013393420C7A02D24380D4
:1018C000204638BD01F032FA002320462B6038BD97
:1018D000064B1B782BB1032000F0CAFC28600028BF
:1018E000E6D14FF0FF3038BDB08DFF1FDC8EFF1FFB
:1018F00010B5094C206818B143881844007A10BD0F
:10190000064B1B782BB1032000F0B2FC20600028AE
:10191000F2D14FF0FF3010BDB08DFF1FDC8EFF1FE6
:10192000044B054A1B6890881BB11A885B88D31A40
:1019300018447047B08DFF1FF48EFF1F0B4B1B78B0
:101940009BB110B50A4C206848B101F0EFF90023B3
:101950000320236000F08CFC30B101F0E7F9032094
:1019600000F086FC0028F8D110BD7047DC8EFF1F08
:10197000B08DFF1F2DE9F04FDFF8F89083B0012202
:1019800089F80020019169B3DFF8EC80364F019EA1
:101990008346D8F80000B0B3344D4488C4F1400108
:1019A000B14228BF314604EB010E00221FFA8EFE21
:1019B0002A70761AA0F802E000F1080251B1013C49
:1019C000224459441BF8014B02F8014F8B45F9D1D1
:1019D000B0F802E0BEF13F0F0BD8254A0521117087
:1019E000002ED6D10198002389F8003003B0BDE85D
:1019F000F08F402202800146042000F0AFFC00225C
:101A0000C8F80020E9E73A782AB3184D4AF2F924D9
:101A10004FF0010A07E0013C16D02A78A2B9FEF780
:101A20002DFD3A78BAB1042000F040FC0728F2D826
:101A300089F800A001F05AF9C8F800000028ACD1DC
:101A40000C4B013C1870E8D101234FF0FF302B7094
:101A500003B0BDE8F08F00234FF0FF3089F800306D
:101A600003B0BDE8F08F00BFDC8EFF1FAC8DFF1F01
:101A7000A58DFF1FA68DFF1FA88DFF1F00B583B08A
:101A800002AB012103F8010D1846FFF773FF03B005
:101A90005DF804FBF8B5114B1B788BB1104E114D5E
:101AA000346801272F7064B10F4A638800271770CC
:101AB00021462380042000F051FC376000232B7066
:101AC000F8BD01F013F9084B28B1014604201C7041
:101AD00000F044FCF2E71F70F0E700BFDC8EFF1F50
:101AE000A88DFF1FA68DFF1FA58DFF1F38B50E4BBC
:101AF0001B7873B90D4C216861B103F0FF054B8869
:101B00000B80042000F02AFC256038BD084B012220
:101B10001A7038BD01F0EAF80028F7D00146BDE898
:101B20003840042000F01ABCA68DFF1FA88DFF1FAF
:101B3000A58DFF1F0368C9B21B6818470368C9B2A7
:101B40001B6818470368C9B21B6818470368C9B205
:101B50001B68184708B50846FEF7D2FE012008BDED
:101B600008B50846FEF7CCFE012008BD38B508468A
:101B70000D4601F025FA044601462846FEF7CAFE46
:101B8000204638BD10B5084614461146FEF7C2FE81
:101B9000204610BDFEF72EBFFEF79ABF08B50846D7
:101BA000FEF786FE003018BF012008BD08B50846C4
:101BB000FEF75CFE003018BF012008BD0846114644
:101BC000FEF7F0BD0846FEF727BE00BF0846FEF749
:101BD000CDBD00BFFEF76CBD4B0803F1376000F5CB
:101BE000D830B0FBF1F0FEF7C9BC00BF10B54B0810
:101BF00003F13760144600F5D830B0FBF1F0FEF782
:101C0000BDFC2046BDE81040FEF726BDFEF7E6BE4F
:101C1000FEF746BFFEF710BFFEF7FEBE704700BFDF
:101C2000044B054A1A604FF47A71002299601A71C8
:101C30001A737047B88DFF1F9031000008B5084631
:101C4000FFF7B2F9012008BD08B50846FFF7ACF967
:101C5000012008BD38B508460D4601F0B1F904462B
:101C600001462846FFF7F8F9204638BD10B508466A
:101C700014461146FFF7F0F9204610BDFFF75CBA95
:101C8000FFF7C8BA08B50846FFF76EF9003018BF6D
:101C9000012008BD08B50846FFF744F9003018BF19
:101CA000012008BD08461146FFF7D4B80846FFF7E3
:101CB0000BB900BF0846FFF7B1B800BFFFF74EB839
:101CC0004B0803F1376000F5D830B0FBF1F0FEF7B8
:101CD000ABBF00BF10B54B0803F13760144600F5E9
:101CE000D830B0FBF1F0FEF79FFF2046BDE8104072
:101CF000FFF708B8FFF714BAFFF774BAFFF73EBA58
:101D0000FFF72CBA0368064A1B68934205D110B549
:101D1000C8B2FFF749F9012010BDC9B2184700BF8A
:101D2000491C00000368064A1B68934205D110B5A0
:101D3000C8B2FFF739F9012010BDC9B2184700BF7A
:101D4000491C00000368064A1B68934205D110B580
:101D5000C8B2FFF729F9012010BDC9B2184700BF6A
:101D6000491C00000368064A1B68934205D110B560
:101D7000C8B2FFF719F9012010BDC9B2184700BF5A
:101D8000491C0000704700BF044B054A1A604FF41D
:101D90007A71002299601A711A737047C88DFF1FFB
:101DA000F031000008B50846FFF766FC012008BDC9
:101DB00008B50846FFF760FC012008BD38B50846A5
:101DC0000D4601F0FDF8044601462846FFF75EFC8B
:101DD000204638BD10B5084614461146FFF756FC9C
:101DE000204610BDFFF774BCFFF7E0BC08B50846FD
:101DF000FFF722FC003018BF012008BD08B50846D7
:101E0000FFF7F8FB003018BF012008BD0846114657
:101E1000FFF7C6BB0846FFF7EBBB00BF0846FFF75E
:101E2000A3BB00BFFFF768BB4B0803F1B76000F529
:101E30005840B0FBF1F0FFF7EBBA00BF10B54B080C
:101E400003F1B760144600F55840B0FBF1F0FFF71E
:101E5000DFFA2046BDE81040FFF722BBFFF72CBC9D
:101E6000FFF78CBCFFF756BCFFF744BC0368064A7B
:101E70001B68934205D110B5C8B2FFF7FDFB0120E6
:101E800010BDC9B2184700BFB11D00000368064A63
:101E90001B68934205D110B5C8B2FFF7EDFB0120D6
:101EA00010BDC9B2184700BFB11D00000368064A43
:101EB0001B68934205D110B5C8B2FFF7DDFB0120C6
:101EC00010BDC9B2184700BFB11D00000368064A23
:101ED0001B68934205D110B5C8B2FFF7CDFB0120B6
:101EE00010BDC9B2184700BFB11D0000704700BF48
:101EF000044B054A1A604FF47A71002299601A71F6
:101F00001A737047D88DFF1F50320000FFF716BDBF
:101F1000FFF7C0BDFFF7ECBCFFF7C6BCFFF700BD85
:101F200008461146FFF726BD0846FFF7A7BD00BFCC
:101F3000704700BF044B054A1A604FF47A710022C3
:101F400099601A711A737047E88DFF1FB032000054
:101F5000024A136801331360704700BFF88DFF1FFA
:101F600008B5104C08E0236859050DD423681A05FC
:101F70000FD42368DB0411D423685803F3D500F091
:101F80002FFA23685905F1D5FEF7C8FD23681A0515
:101F9000EFD5FFF765F92368DB04EDD5FFF718FCF3
:101FA000EAE700BF3480044008B5FFF7D9FF00BF5F
:101FB000014B10221A80704700200540704700BF77
:101FC000EFF3138070B9EFF310836BB9EFF3058271
:101FD0005AB94FF48070EFF311832BB1984228BFA8
:101FE000184670474FF0FF3070470F2A01D8184647
:101FF000F1E7014BD05CEEE7F0E300E010B40F4BEB
:1020000053F8302092F880422CB1012369B182F854
:10201000803010BC704703EBC0035B681A6841B99D
:1020200022F002021A6010BC704782F8003110BC26
:10203000704742F003021A6010BC7047CC320000B7
:102040001C4A02EBC00301295B6811D004291BD094
:1020500052F83000002280F8802229B1022920D0D5
:10206000032922D01A6070474FF480721A607047BB
:1020700052F830004FF4A27280F880121A601A6889
:1020800022F020021A60704752F830104FF4A2720A
:10209000012081F880021A601A6842F020021A605A
:1020A000704740F203121A6070474FF481721A6051
:1020B000704700BFCC32000030B4054B054D064CD4
:1020C000002210211A602A602060196030BC70471D
:1020D00014D0034004D0034000D00340212801D88D
:1020E000FFF78CBF704700BF212801D8FFF7A8BFBA
:1020F000704700BF2DE9F843054672B6204F214BCB
:10210000214A1B683C68126862B6520102D5322B24
:1021100088BF013495B3C3F5BB331C4EDFF8649020
:10212000DFF86480FF334FF47A72A6FB031302FBDF
:1021300004F404EB931472B6D9F800103A68D8F896
:1021400000E062B6C1F5BB33FF33A6FB03031EF00C
:10215000806FC4EB93134FF47A7002D0322988BF9A
:10216000013200FB0233B3F57A7F04D3013D05D081
:1021700004F57A74DFE7FEF781F9DCE7BDE8F88360
:10218000F88DFF1F18E000E004ED00E0ABAAAAAA5A
:10219000F8B52D4B2D49DFF8D0E0DFF8D0C02C4E3C
:1021A0002C4D2D4C2D4A2E4F4FF4000018604FF04F
:1021B000807018604FF0007018604FF080601860F9
:1021C0004FF0006018600020086028234BF6FF7174
:1021D000CCF80010CEF80030336013602B60236021
:1021E0003B60B3629362092245F8242CC4F8D80FEF
:1021F00005F57F65C7F8D41F07F5FF2707F5FA67D0
:10220000C6F8F83F2B6006F5FF26C4F8D42F05F575
:10221000FD2504F5FF24386006F2F476114831609C
:1022200005F5FF6504F5FD642B602360026000F096
:10223000A3FD3220FFF75EFF00F0FCFC4FF4AF700F
:10224000BDE8F840FFF756BF08E100E00480034016
:1022500014800340248003402C8003401C800340F2
:102260003480034000800B400C8003400880034012
:10227000431E032B14D872B60A4951F8230068B1E3
:1022800070B4094C058834F81320466841F823607F
:10229000521B24F8132062B670BC704762B67047B8
:1022A00000207047548EFF1FF48EFF1F0138032853
:1022B0000BD872B6074B53F8203043B100205B684F
:1022C0000130002BFBD162B67047002070471846E2
:1022D000F9E700BFA88EFF1FF0B472B61A491B4E73
:1022E000012311F8014B194F9A00240742F0010510
:1022F00005D556F8324064B156F83520BAB10133ED
:10230000052BEED162B6124B00221A70F0BC00F021
:102310000DBD0F4C0F4D217847F8325007EB43139A
:1023200008304A1E5860227062B6F0BC70470849F7
:10233000094B0A7847F8353007EBC5030830013AF6
:1023400058600A7062B6F0E7DC3300000080FF1FBF
:10235000D18EFF1F88004000C8004000431E032BA1
:102360001DD81B4A400140F0100030B4104472B632
:10237000184CE25C032A1BD8DFE802F002121517A2
:1023800003220D88E25410F0080F14BFC8238823DD
:1023900043EA054308310360416062B630BC7047D0
:1023A00008300222EDE70522EBE708300422E8E7D7
:1023B000094A52F8230038B1084A52F82300416014
:1023C00042F8231062B6E9E742F82310034AF7E720
:1023D0000080FF1FE08EFF1FA88EFF1FB88EFF1F1B
:1023E0002DE9F04FDFF800A3DFF800B387B044E039
:1023F000A84F4FEA930807EBC809013ED9F804201B
:1024000003F00803F6B2A2F1080003F0FF04002B6A
:1024100040F0FC8057F838301B0C99B222F8081CA9
:10242000002B00F0EA809C4B22F8064C42F8044C4A
:1024300053F82620002A00F02982984D55F82630BE
:102440005860974C45F8260034F81630194424F8A3
:10245000161000F04BFC002800F01182914A924BBC
:1024600019F0080F00F1080018BF1346C9F804005E
:1024700047F8383008238AF800309AF80040E4B270
:1024800060071AD5894B1B78A3B189490A7802F0F5
:10249000FF0322B1013BDBB20B7003B900BE8549DB
:1024A0000A7802F0FF032AB1013BDBB20B70002B6C
:1024B00000F0BB8104238AF8003004F0080303F025
:1024C000FF02002B00F0C6809BF80030DBB21E0933
:1024D0008ED19C086F4F57F8342007EBC401C2F32C
:1024E0008302013A49680C2A00F28380DFE802F097
:1024F00077778181818181814081818107000868AE
:102500006D4B6E4D0193674B4A686D4E47F8343002
:1025100081B240F28164684B6A6028600022012029
:10252000A1421A603A61BA61307000F2E180B1F5FF
:10253000D06F80F02582B1F5817F00F0DE8100F25E
:10254000C181802900F03482822940F0DC81A98891
:102550005C4B042900F2D8815B4C89000B4422704B
:1025600062701A78930740F122832070022023E2E0
:10257000514B01931A683AB3544B514E5449188841
:1025800034780D784028864645F0020828BF4FF081
:10259000400E002C84F001043470CEEB00000CBF20
:1025A0008824C82407EBC80680B285F0010544EAF8
:1025B0000E447260188047F8384072440D7000284D
:1025C00000F0B780019B1A603C4B1A88B2F5A06FEF
:1025D0000FD100219A7859703E4B1A7009E0374AA2
:1025E000108842F22102904200F0A8802D4A47F85C
:1025F0003420394A012313703CE72A4A2A4B19F048
:10260000080F18BF134647F8383033E700F08EFB49
:10261000324A334952F82630002B00F03B8158688B
:102620008C5D42F8260003F10802C9F80420032C4F
:1026300005D8DFE804F02C02292602228A551A88E0
:1026400019F0080F0CBF8823C82343EA024347F858
:1026500038300FE7E00700F1EB80210600F1288118
:10266000A20706D51F4A204913780220DBB2137057
:102670000870E30602D51C4B10221A7007B0BDE8A3
:10268000F08F04228A55DAE705228A55D7E703221C
:102690008A55D4E70080FF1F548EFF1F008EFF1F56
:1026A000F48EFF1FC800400088004000DC8EFF1F32
:1026B000658EFF1FA58DFF1FFC8DFF1FC88EFF1F9E
:1026C000648EFF1FC0200740D48EFF1F108EFF1F97
:1026D000D08EFF1F9820074094200740A88EFF1F30
:1026E000E08EFF1F88200740802007409020074091
:1026F00042F22104A14200F0948043D8B1F5086F62
:1027000000F0A881B1F5106F40F0FD80B84AB94CD7
:10271000A978117004F1800503E00834AC4200F0A0
:102720009E81236A1906F8D5606A083800F0FEFA1F
:10273000F3E7BEF1400F18BF002243E7AE4ACD1DBC
:1027400011F8013B02F8013FA942F9D1AB4A1268E6
:10275000862A00F01181AA49AA4E0A78307882F0C0
:102760000105002842F002020D700CBF8821C8212B
:1027700047F8321007EBC20280F0010000213070F0
:10278000516033E742F22124A14240F0FE81DFF89C
:10279000BCC29D4B9D49AC78DCF800501D60814661
:1027A0000C700020029080468446044694490D78BF
:1027B00045F0020E07EBCE03B9F1000F5C600CBFD1
:1027C0008824C82444EA080385F0010447F83E3011
:1027D00032700C70DFF81CE28A4BDFF8248200288C
:1027E00040F09880BCF1400F1BD144F0020407EB8D
:1027F000C403029FDFF8FCE15F60002A40F09F8085
:10280000020442F0880207444EF8342086F8009013
:102810000D703B46402804D100207D4A019910806C
:102820000B607C4A01231370E3E6FFF75FF941E692
:10283000704B784872491A614FF0020E80F800E040
:10284000754F0A70754919609960754E754D764CD3
:102850009A610D213970FF213170DFF8F4E12970A0
:102860002270724D724A8EF800109F27012406F8DC
:10287000047C5D600470DA6007B0BDE8F08F6D4ADB
:1028800047F83800137801331370F3E543F8260056
:10289000694DD6E58B5D032B67D801A252F823F072
:1028A0007524000075240000F5280000EF280000C2
:1028B00059495C4B80220D2008701A70A2077FF5E1
:1028C000D8AECFE640F20232914240F05681A9885C
:1028D00001F07F01042916D86A88A2B94E4C8900FC
:1028E0000C448146217841F00201217059E701230F
:1028F0008B55BFE500238B55BCE5A98801F07F010E
:10290000042940F24781444B0F221A70414A0123A7
:1029100013706EE640287FF668AF44F002040EEBB9
:10292000C401029E4E60AAB1444A83F80090334627
:10293000403888F8005040334EF834206DE70204E8
:10294000029B86F8009042F0C8020D7003444EF8D6
:1029500034205FE783F80090029B304A88F80050EB
:10296000403840334EF8342057E719F0080F0CBFB9
:10297000022303238B557DE5314A0F211170EAE6CE
:10298000304A5468002CBED06888B5F804E003E0F3
:102990000C325468002CB6D013888342F8D1538887
:1029A0007345F5D1000A03280CBF2078108903E095
:1029B000254C022022706270EA88824280F00C81ED
:1029C0000F490D78402A45F0020E944607EBCE00E1
:1029D00028BF4FF0400C04EB0C0344600293CCEB97
:1029E00002004FEA0C484FF001090022C824E9E632
:1029F000DC8EFF1F0080FF1FE78EFF1FE88EFF1F8A
:102A0000D08EFF1F648EFF1FF08EFF1FB48DFF1F3F
:102A1000108EFF1F94200740C02007408800400010
:102A2000882007408020074098200740148EFF1F11
:102A3000688EFF1FD18EFF1F008EFF1FC800400051
:102A4000658EFF1FE0330000D48EFF1FF88DFF1F3F
:102A50008C200740684A694C12782270ACE76849BC
:102A6000684B694A02916949694C6A4D039405961D
:102A70004FF0000988461C4616460495206828B188
:102A8000456800F053F92846002DF9D10023236052
:102A9000049B30681A46002342F8293028B1456863
:102AA00000F044F92846002DF9D100223260029A44
:102AB00098F800301146002241F8042B039A029145
:102AC000023B4FF0000122F81910032B07D8DFE872
:102AD00003F0340234024FF0010388F8003009F1AA
:102AE0000109B9F1040F04F1040406F1040608F128
:102AF0000108C3D1484B059EDFF83091DFF83081E3
:102B000000211970012518F8013B09F8043B1A0748
:102B100018D4AC0044F0020244F00304002347F848
:102B2000323047F834303D4B994505F10105EAD183
:102B300096F8009089F0010233E64FF0000388F820
:102B40000030CCE700F0D2F8AC0007EB451300F101
:102B50000802002837D05A60314B47F8343000F073
:102B6000C5F844F0010307EBC30200F1080100B30C
:102B700051602C4A47F83320CCE7B1F5A06F7FF4C1
:102B8000C2AE00224FF001090BE642F2213291421F
:102B9000F7D0B8E66A88002A7FF4B5AE224C8900E7
:102BA0000C448146217821F002012170F9E50220D0
:102BB00002E7194B44F001021B7847F83200164A2D
:102BC00001331370A6E7144B134A1B78AC00013392
:102BD00047F834001370C2E74028844628BF4FF0FE
:102BE000400C04EB0C03CCEB00004FEA0C480293C2
:102BF00000224FF00109D9E5DC8EFF1FD48EFF1FA4
:102C0000B88EFF1F548EFF1FA88EFF1FE08EFF1F80
:102C1000F48EFF1F008EFF1FD18EFF1FD4200740B0
:102C200088004000C8004000C0200740C420074082
:102C3000DC3300002DE9F843204C00F00DF90022B0
:102C400004F1880023461A605A60083383424FF02B
:102C50000001F8D11A4A1B4F13681B4D1B481C4E2C
:102C6000DFF87880DFF878C0DFF87890DFF878E078
:102C700043F480231360C4F307233B70C4F307437A
:102C80002B70240EFF2302F528320470114D88F8B2
:102C9000003011488CF80030D4323370012389F8A9
:102CA000003070268EF800104FF40074102107F8E1
:102CB000183C2E7004601170BDE8F8830080FF1F7F
:102CC000348004409C200740B0200740B4200740D7
:102CD0001020074049E400E008E100E080200740C0
:102CE00088200740942007400021074072B60D4815
:102CF0000268B2FA82F30B2B10DC4FF00041D9408E
:102D000022EA0102026062B6074803EBC303DB005C
:102D1000C2180021C15010465160704762B60020B1
:102D2000704700BF2487FF1FBC83FF1F0D4B0E4A57
:102D3000C31AA2FB03231B090B2B0CD80B4A1278D6
:102D400052B972B60A484FF00041026821FA03F303
:102D50001A43026062B67047064A1278002AF0D021
:102D6000FFF7BABABC83FF1F398EE338D18EFF1F3D
:102D70002487FF1FDC8EFF1F30B42948294A2A4BC5
:102D80002A4D6024E121047011701B78284C082B17
:102D900030D00A2B2748284937D00C2B0CBF3522BE
:102DA0003D2212232A60236002600B60234B2449DA
:102DB0001B78244ABBB101230B601360224B2349CB
:102DC0001B78234A012B26D9042B0FD9082B1ED997
:102DD000102B94BF862387230B6013601D4B0122A9
:102DE0001A7030BC70470B601360E7E784230B60F8
:102DF0001360F3E700F58E200F49083001221323FA
:102E00002A60236002600B60D0E73922F7E7852350
:102E10000B601360E2E780230B601360DEE700BF06
:102E200000400740014007402887FF1F08B00340CB
:102E30000CB0034008B00B400CB00B40E58EFF1FF8
:102E400020B0034020B00B402987FF1F24B003406F
:102E500024B00B40E48EFF1F70B584B072B6194BDE
:102E6000194D1A48702241260F2480211A702E70A5
:102E70001A460470197013781B06FCD5144B186899
:102E800062B6144B144C984298BF00EB800001A925
:102E900098BF40000A2200F021F801A92046002333
:102EA00011F8012B01333AB10A2B20F8022FF7D188
:102EB0001623237004B070BD5B00DBB2237004B036
:102EC00070BD00BF00000240070002400600024043
:102ED000080002407F969800B887FF1FF0B44D1E8F
:102EE0002E46002400E00134B0FBF2F302FB130095
:102EF000092800F130078ABF3730F8B2C0B206F8AF
:102F0000010F1846002BEED10A1953704CB11078FE
:102F100015F8016F28700133E01A834202F8016945
:102F2000F5DB0846F0BC704701210D20FFF7DCB847
:102F3000074B1B689B0605D4064B20221A603220E3
:102F4000FFF7D8B8044B20221A603220FFF7D2B81E
:102F500090F00F4084F00F4088F00F4070B50F4E96
:102F60000F4D761BB61018BF002405D0013455F85C
:102F7000043B9847A642F9D10A4E0B4D761B00F050
:102F80005BFAB61018BF002406D0013455F8043B94
:102F90009847A642F9D170BD70BD00BF443400000F
:102FA000443400005C34000044340000FFFFFFFFA5
:102FB000FFFFFFFFFFFFFFFFFFFFFFFFFFFFFFFF21
:102FC00090F800F06DE9024520F007016FF0000C69
:102FD00010F0070491F820F040F049804FF0000411
:102FE0006FF00700D1E9002391F840F000F10800EC
:102FF00082FA4CF2A4FA8CF283FA4CF3A2FA8CF324
:103000004BBBD1E9022382FA4CF200F10800A4FA8A
:103010008CF283FA4CF3A2FA8CF3E3B9D1E90423DE
:1030200082FA4CF200F10800A4FA8CF283FA4CF315
:10303000A2FA8CF37BB9D1E9062301F1200182FACF
:103040004CF200F10800A4FA8CF283FA4CF3A2FAD5
:103050008CF3002BC6D0002A04BF04301A4612BAE3
:10306000B2FA82F2FDE8024500EBD2007047D1E9E6
:10307000002304F00305C4F100004FEAC50514F075
:10308000040F91F840F00CFA05F562EA05021CBF46
:1030900063EA050362464FF00004A9E7024B13B14F
:1030A000024800F005B8704700000000BD30000085
:1030B000002301461A46184600F014B838B5074DEB
:1030C000074C2C1BA41005D0013C55F8043D984733
:1030D000002CF9D1BDE8384000F0C0B90000000074
:1030E000000000002DE9F047254C2568D5F848413F
:1030F0000646884692469946C4B360681F2817DC86
:10310000431C76B104EB80050122C5F888A0D4F8F1
:10311000881182401143022EC4F88811C5F8089125
:103120001ED00230636044F820800020BDE8F087A4
:10313000144B03B34FF4C870AFF300800446D0B112
:10314000D5F84831002780E88800C5F8484138465E
:103150000123C4F88871C4F88C71002EE1D0D1E746
:10316000D4F88C110A43C4F88C21DAE705F5A6746B
:10317000C5F84841C1E74FF0FF30BDE8F08700BF18
:1031800034340000000000000000000000000000D7
:10319000611B0000851B0000191C0000151C0000AD
:1031A000111C00000D1C0000D91B0000ED1B0000CD
:1031B000D51B0000CD1B0000C51B0000BD1B00007F
:1031C000AD1B00009D1B0000991B0000951B00001B
:1031D000351B00003D1B0000451B00004D1B00007F
:1031E0006D1B0000551B00000000000000000000E7
:1031F000491C00006D1C0000011D0000FD1C0000AA
:10320000F91C0000F51C0000C11C0000D51C0000CA
:10321000BD1C0000B51C0000AD1C0000A51C00007A
:10322000951C0000851C0000811C00007D1C000016
:10323000251D0000451D0000651D0000051D000046
:10324000551C00003D1C00000000000000000000B4
:10325000B11D0000D51D0000691E0000651E0000A4
:10326000611E00005D1E0000291E00003D1E0000C2
:10327000251E00001D1E0000151E00000D1E000072
:10328000FD1D0000ED1D0000E91D0000E51D000012
:103290008D1E0000AD1E0000CD1E00006D1E000042
:1032A000BD1D0000A51D0000000000000000000082
:1032B000291F0000211F00001D1F0000191F000012
:1032C000151F0000111F00000D1F00004008FE43E5
:1032D00040A004404408FE4344A004400018FE43BC
:1032E00000C004403000FE43309004403400FE43F0
:1032F000349004401C18FE431CC004401018FE43C8
:1033000010C004400818FE4308C004400C18FE43D7
:103310000CC004400C10FE430CB004401010FE43DF
:1033200010B004401810FE4318B004401C10FE43B7
:103330001CB004401410FE4314B004400418FE43B3
:1033400004C004400010FE4300B004400008FE43E7
:1033500000A004400408FE4304A004400C08FE43FF
:103360000CA004400808FE4308A004401418FE43C3
:1033700014C004401818FE4318C004400410FE4353
:1033800004B004400810FE4308B004401400FE439B
:10339000149004404C08FE434CA004400420FE431B
:1033A00004D004402410FE4324B004402010FE4307
:1033B00020B004402810FE4328B004402C10FE43E7
:1033C0002CB004400020FE4300D004404808FE43D7
:1033D00048A004401000FE43109004400015191549
:1033E000000100002C87FF1F1200000000020000F7
:1033F0005887FF1F4300000000030000B487FF1F31
:1034000000000000010309044087FF1F00000000C6
:10341000020309049C87FF1F000000000303090446
:10342000B887FF1F0000000000000000000000003F
:1034300000000000D087FF1FF8B500BFF8BC08BC33
:103440009E4670479D30000035040000211C00009E
:0C345000891D0000F11E0000351F000067
:04345C00F8B500BF00
:1034600001090A08FFFFFFFF0A0400001201010121
:1034700002000040C01683040002010203010000A4
:1034800018035400650065006E0073007900640045
:10349000750069006E006F0009024300020100C060
:1034A0003209040000010202010005240010010598
:1034B00024010101042402060524060001070582F7
:1034C0000310004009040100020A00000007050380
:1034D000024000000705840240000000160355006A
:1034E0005300420020005300650072006900610033
:1034F0006C000000040309040C030000000000003D
:1035000000000000000000000000000000000000BB
:1035100000000000BC8AFF1F248BFF1F8C8BFF1F45
:10352000000000000000000000000000000000009B
:10353000000000000000000000000000000000008B
:10354000000000000000000000000000000000007B
:10355000000000000000000000000000000000006B
:10356000000000000000000000000000000000005B
:10357000000000000000000000000000000000004B
:10358000000000000000000000000000000000003B
:10359000000000000000000000000000000000002B
:1035A000000000000000000000000000000000001B
:1035B000000000000000000001000000000000000A
:1035C0000E33CDAB34126DE6ECDE05000B000000CF
:1035D00000000000000000000000000000000000EB
:1035E00000000000000000000000000000000000DB
:1035F00000000000000000000000000000000000CB
:1036000000000000000000000000000000000000BA
:00000001FF
