:100000000000022099010000893500004135000000
:100010004135000041350000413500004135000008
:1000200041350000413500004135000089350000B0
:100030008935000041350000893500003135000068
:1000400089350000893500008935000089350000B8
:1000500089350000893500008935000089350000A8
:100060008935000089350000893500008935000098
:100070008935000089350000893500008935000088
:100080008935000089350000893500008935000078
:100090008935000089350000893500008935000068
:1000A0008935000089350000893500008935000058
:1000B000893500008935000089350000ED0B00000E
:1000C000893500004913000089350000C918000077
:1000D00089350000E11E00008935000089350000E7
:1000E0008935000089350000893500008935000018
:1000F0008935000089350000893500008935000008
:1001000089350000893500008935000089350000F7
:1001100089350000113A000089350000893500005A
:1001200089350000893500008935000089350000D7
:1001300089350000893500008935000089350000C7
:1001400089350000893500002D2400008935000024
:1001500079290000893500008935000089350000C3
:100160008935000089350000893500008935000097
:100170008935000089350000893500008935000087
:100180008935000089350000893500008935000077
:100190008935000089350000584B4CF2205210B5CB
:1001A0001A804DF628121A8000BF00BF03F0F0F944
:1001B000534B4FF030621A60524A9A60524ADA60EA
:1001C000524B4FF470021A60514A136813F4807353
:1001D00004D150490B604FF4A85313604E4B1A786A
:1001E000110703D51A7842F008021A704B4B4C499C
:1001F0002A221A704B4A4C4B8B4204D252F8040FFD
:1002000043F8040BF8E7494B494900228B4202D2DC
:1002100043F8042BFAE74749474A002352F82300E2
:1002200041F823000133662BF8D1444B444A802126
:1002300003F8011B9342FBD1424B3E4A1A60424BEA
:100240008A221A70A3F5805324225A70A0221A70B1
:100250009A799207FCD59A79D406FCD43B4A9379D3
:1002600003F00C03082B394BF9D103221A714622F3
:100270005A719A799006FCD5344A9179334B4906E4
:10028000FBD5334A4FF08271116009215160202261
:100290001A709A7902F00C020C2AFAD12D4B2E4AD0
:1002A0001A602E4B2E4A1A6000225A60072243F829
:1002B000042C2C4AC3F80C2D62B603F05DFA154BE2
:1002C0001B68DA0705D5284803F0EAF9274B284AC6
:1002D0001A60284B1B785B0609D5244C244B2268F6
:1002E0009A4204D1204803F0DBF90023236004F094
:1002F00051F903F053F900F0B9F8FEE70E2005407C
:1003000030800440823F04000100002B88ED00E0B3
:1003100010D0034014D0034002D0074000E0074053
:10032000D80BFF1FB84C0000F806FF1FD80BFF1FAB
:100330008010FF1F0002FF1F0000000000E400E02B
:1003400056E400E008ED00E00050064000400640A2
:100350004480044004800440C010050014E000E024
:10036000BFD401000000202000DD68501CE00340E5
:10037000A5C3945A00F00740FFFFFFFFFFFFFFFFF8
:10038000FFFFFFFFFFFFFFFFFFFFFFFFFFFFFFFF7D
:10039000FFFFFFFFFFFFFFFFFFFFFFFFFFFFFFFF6D
:1003A000FFFFFFFFFFFFFFFFFFFFFFFFFFFFFFFF5D
:1003B000FFFFFFFFFFFFFFFFFFFFFFFFFFFFFFFF4D
:1003C000FFFFFFFFFFFFFFFFFFFFFFFFFFFFFFFF3D
:1003D000FFFFFFFFFFFFFFFFFFFFFFFFFFFFFFFF2D
:1003E000FFFFFFFFFFFFFFFFFFFFFFFFFFFFFFFF1D
:1003F000FFFFFFFFFFFFFFFFFFFFFFFFFFFFFFFF0D
:10040000FFFFFFFFFFFFFFFFFFFFFFFFDEF9FFFF23
:1004100010B5054C237833B9044B13B10448AFF33E
:1004200000800123237010BDD80BFF1F00000000C7
:10043000BC4C0000084B10B51BB108490848AFF38D
:1004400000800848036803B910BD074B002BFBD0A0
:10045000BDE81040184700BF00000000DC0BFF1F84
:10046000BC4C0000D80BFF1F0000000008B504F0D2
:1004700077F804F079F800F001F8FAE710B5224CAB
:10048000237803B110BD0123237002F01DFBA0B936
:1004900000F02AFBB8B900F0D5FED0B901F0A6F9FA
:1004A000E8B901F0AFFC00BB01F052FF18BB02F04D
:1004B000F5F930BB0023237010BD03F029F800F0DC
:1004C00013FB0028E7D002F07DFC00F0BBFE002803
:1004D000E4D002F02BFD01F089F90028E1D002F010
:1004E000D9FD01F08FFC0028DED002F087FE01F07C
:1004F0002FFF0028DBD002F035FF02F0CFF90028F3
:10050000D8D002F0E3FFD5E7F40BFF1F2DE9F84F39
:10051000214B1B6807460BB101221A70DFF8889047
:100520001E4D99F80040DFF884801D4E01343F2CA9
:100530008ABF4FF0000A5FFA84FA5446AB462B7824
:10054000A34216D103F02CF840281FDC33791B0698
:10055000F5D59BF8003001333F2B86BF00221346B0
:10056000DAB218F80330DBB2F3712A702B78A342A9
:10057000E8D00C490A4BFFB208F804700120BC22F5
:10058000087089F800A0DA70BDE8F88FFF28D6DD82
:10059000FFF774FFD3E700BF880CFF1F850CFF1F18
:1005A00000A00640840CFF1F8C0CFF1F000CFF1FD7
:1005B0002E4A2F491368F0B543F4806313600A781C
:1005C0002C4F2D4E2D4D2E4C2E490023152A3B70BD
:1005D00033702B7023700B7043D01B2A3CD04AB36E
:1005E000294B1B78052B2DD01A2B30D0012B1CD07A
:1005F000264B274C2749C0F34436C0F347151E70DD
:1006000000F01F005D7004224FF0020E88273C2688
:10061000402598729A704FF0004083F813E05A75A5
:100620001F74DE7025700860F0BD1B4B4FF45172D3
:100630001A60DDE7194B40F213321A60124B1B7837
:10064000052BD1D1164B4FF451721A60D0E7154BE0
:100650004FF451721A60CBE7134B40F213321A6019
:10066000BEE7124B40F213321A60B9E734800440FF
:10067000400CFF1FFC0BFF1FFD0BFF1F8C0CFF1F0F
:10068000850CFF1F840CFF1FF806FF1F00A006400B
:100690001FE400E000E100E044A0044040A004406A
:1006A0001CC00440389004403C90044018C00440F2
:1006B000194B19499B7803F0EC0200F00303134334
:1006C000420700F00F0248BF43F01003042A8B706A
:1006D0001CD0114B104A5B79C10603F0EF0348BFF1
:1006E00043F0100353719379820603F0EF030A4A33
:1006F00048BF43F010039371C30506D553781178B2
:10070000DBB241F020011170537070478B7943F0D8
:1007100040038B71DDE700BF00A00640284B1B683B
:100720005B0533D510B5274C237823B1FFF7A6FE20
:100730002378002BFAD12448244A254B4FF000445B
:1007400000210460D1701B78152B20D01B2B32D0D8
:100750001BB9204B40F203121A601F4B1B7803F0A9
:100760007F03052B1DD01A2B20D0012B03D11B4B4F
:1007700040F203121A601A4B1A481B491A680023E8
:1007800003700B700AB10123137010BD7047174B33
:1007900040F203121A60104B1B7803F07F03052B05
:1007A000E1D1134B40F203121A60E4E7114B40F21F
:1007B00003121A60DFE7104B40F203121A60CCE715
:1007C00034800440840CFF1F80E100E000A006405C
:1007D000400CFF1F40A00440F806FF1F44A0044047
:1007E000F80BFF1FFC0BFF1FFD0BFF1F18C0044081
:1007F0001CC00440389004403C9004400A4A38B57C
:100800000546137803F0FF04002BFAD10121284696
:1008100002F05EFF2146284602F054FF034A044BD3
:1008200052F835201A6038BD840CFF1F2C4A000096
:10083000880CFF1F09B140F080001E4A13789842CF
:100840001BD010B41C4C2468640513D503F07F033F
:10085000052B2AD01A2B24D0012B14D0002900F00C
:100860007F0114BF60234423052915D01A290ED017
:10087000012903D010705DF8044B70470F4943F411
:1008800040730B60F6E70D4B00241C60E6E70C4953
:1008900043F440730B60EDE70A4943F440730B6087
:1008A000E8E7074B00241C60D8E7064B00241C60D7
:1008B000D4E700BFF806FF1F3480044044A0044082
:1008C000389004401CC00440174A137883420ED06D
:1008D00016490968490509D5152B20D01B2B1AD0BC
:1008E0005BB115280DD01B2810D008B110707047CF
:1008F0000F4B40F213311960F8E70D4915280B60D2
:10090000F1D10C4B40F213311960EFE70A4B40F282
:1009100013311960EAE7084B00211960E1E7054B44
:1009200000211960DDE700BF400CFF1F3480044048
:1009300040A0044018C004403C9004400D4B1B688C
:1009400013F4806305D03F2805D90B4B00201860B5
:10095000704718467047094B10B5074C53F83030B4
:100960002360012102F0B4FE236800221A700120E6
:1009700010BD00BF34800440F80BFF1F2C4A00005C
:100980000F4B1B6813F4806308D0122808D014287A
:1009900011D00C4A537B03F0FE03537300207047C1
:1009A000094B40F202321A60064A537B43F00103BE
:1009B000537301207047054B40F202321A60F3E78F
:1009C0003480044000A006400CA0044014C0044041
:1009D000034B1B685B0501D5FFF798BD704700BF4F
:1009E000348004402DE9F84F294B1B685A0548D53F
:1009F000284B1B6805460BB101221A7005EB010A52
:100A0000554540D2DFF89C80234CDFF89C90234F63
:100A10000AE015F8012B09F80B20214A0123AA4509
:100A2000137088F800602ED098F80030227803F117
:100A3000010BBBF13F0F86BF0026B3465FFA8BF672
:100A40009345E6D1BC22FA7005E03A7913060BD43F
:100A500022789345DDD102F0A3FD4028F5DDFF2883
:100A6000F6DDFFF70BFDF3E7227801323F2A86BF60
:100A700000210A46D1B219F80220D2B2FA712170CF
:100A8000E6E7BDE8F88F054BBC22DA70BDE8F88FC9
:100A900034800440880CFF1F850CFF1F00A0064017
:100AA000840CFF1F8C0CFF1F000CFF1F10B5044CA3
:100AB000237823B1FFF7E2FC2378002BFAD110BD95
:100AC000840CFF1F064A074B1B781078DBB2C0B2BC
:100AD00083422CBF3F3000F1FF30C01A704700BF87
:100AE000850CFF1F8C0CFF1F054A064B10781B78E6
:100AF000C0B2DBB2984238BF4030C01A704700BF66
:100B0000FC0BFF1FFD0BFF1F30B4154B154C1A7863
:100B10002378D2B2DBB29A421ED001333F2B0ED9DA
:100B20001149124B087819680023C0B2237021B113
:100B3000D31A1A2B01DC00230B7030BC70470A4813
:100B40000A49C05C0968DDB2C0B225700029F4D042
:100B50009A4238BF4032EBE74FF0FF30EDE700BF7D
:100B6000FC0BFF1FFD0BFF1F440CFF1FF80BFF1FAB
:100B7000084A094B12781B78DBB29A4207D001333E
:100B8000402B28BF0023054AD05CC0B270474FF00D
:100B9000FF307047FC0BFF1FFD0BFF1F440CFF1FB6
:100BA0000D4B1B685B0516D530B40C4B0C4CDA783A
:100BB0000C480D4902F0CB024025DA705D74DA78FA
:100BC00042F03402DA7023780268DBB20B700AB1AB
:100BD0000023137030BC70473480044000A00640EE
:100BE000FD0BFF1FF80BFF1FFC0BFF1FF0B4384B72
:100BF0001A7912F0300F2CD072B6997D01F0FF02F5
:100C000000293DD062B6334F334938780D78334EE2
:100C10001C46C0B2EDB2431C402BE17928BF002333
:100C2000AB4202F1FF32C9B21CBFF154184612F0B8
:100C3000FF02F0D12A4B1B68C2B23A704BB1A842F6
:100C400036BFC5F14005401B40192728C4BF01220B
:100C50001A701F49CA78D2B2150616D452060DD59D
:100C60001B4B1B795B0609D51E4B1F491B680022D5
:100C70000A7003B11A70164B3C22DA70F0BC704750
:100C80004022D9795A7462B6E3E70B791C06E5D5A0
:100C9000164B174E1C783378E4B2DBB29C420ED070
:100CA000144D01E0A3420AD00133402B28BF00239A
:100CB0000879E85CC0B2C871087D0728F2D9DBB2B8
:100CC000034933700B79180644BF7C23CB70C5E70A
:100CD00000A00640FC0BFF1FFD0BFF1F440CFF1F75
:100CE000F80BFF1F880CFF1F840CFF1F8C0CFF1FCD
:100CF000850CFF1F000CFF1F264A27491368F0B41C
:100D000043F4006313600A78244F254E254D264C8A
:100D100026490023092A3B7033702B7023700B7017
:100D200032D03B2A23D0224B1B780A2B27D03A2BD8
:100D300003D1204B4FF451721A601F4B1F4D204CB2
:100D4000C0F34437C0F3471600F01F001F700421A2
:100D50005E700222987288273C2640209970DA74CF
:100D600059751F74DE7028702260F0BC7047154BF7
:100D700040F213321A600E4B1B780A2BD7D1124B5C
:100D80004FF451721A60D8E7104B40F213321A60D8
:100D9000C9E700BF34800440F906FF1F000DFF1FA4
:100DA000950CFF1F080DFF1F010DFF1F940CFF1F67
:100DB000FA06FF1F00D0044000B0064021E400E026
:100DC00004E100E004D0044010B004400CB0044042
:100DD000194B19499B7803F0EC0200F0030313430D
:100DE000420700F00F0248BF43F01003042A8B7043
:100DF0001CD0114B104A5B79C10603F0EF0348BFCA
:100E000043F0100353719379820603F0EF030A4A0B
:100E100048BF43F010039371C30506D5537811788A
:100E2000DBB241F020011170537070478B7943F0B1
:100E300040038B71DDE700BF00B00640204B1B680C
:100E40001B053BD510B51F4C237823B1FFF716FBCC
:100E50002378002BFAD11C481C491D4B0224002288
:100E60000460CA701B78092B19D03B2B01D1194B98
:100E70001A60194B1B7803F07F030A2B19D03A2B09
:100E800002D1164B00221A60154B164816491A68F3
:100E9000002303700B700AB10123137010BD134BB4
:100EA00040F203121A600C4B1B7803F07F030A2BED
:100EB000E5D10F4B40F203121A60E5E7704700BF1F
:100EC00034800440940CFF1F84E100E000B0064031
:100ED000F906FF1F04D00440FA06FF1F00D00440AB
:100EE000900CFF1F000DFF1F950CFF1F0CB004405E
:100EF00010B004400A4A38B50546137803F0FF04E1
:100F0000002BFAD10121284602F0E2FB21462846B7
:100F100002F0D8FB034A044B52F835201A6038BD62
:100F2000940CFF1F2C4A0000040DFF1F09B140F074
:100F30008000174A1378984217D010B4154C2468D3
:100F400024050FD503F07F030A2B1DD03A2B12D0B6
:100F5000002900F07F0114BF602344230A290ED02A
:100F60003A2903D010705DF8044B70470A4943F4E6
:100F700040730B60F6E7084B00241C60E8E7074964
:100F800043F440730B60EDE7044B00241C60DFE783
:100F9000FA06FF1F3480044000D0044010B0044023
:100FA000124B1A7882420CD011490968090507D5FD
:100FB000092A16D03B2A0AD009280DD03B2801D097
:100FC000187070470B4A40F213311160F8E7094A74
:100FD000002109281160F1D1074A40F21331116054
:100FE000EEE7054A00211160E6E700BFF906FF1FA2
:100FF0003480044004D004400CB004400D4B1B6806
:1010000013F4006305D03F2805D90B4B002018606E
:10101000704718467047094B10B5074C53F83030ED
:101020002360012102F054FB236800221A70012082
:1010300010BD00BF34800440900CFF1F2C4A0000FC
:101040000F4B1B6813F4006308D0172808D03C2806
:1010500011D00C4A537B03F0FE03537300207047FA
:10106000094B40F202321A60064A537B43F00103F7
:10107000537301207047054B40F202321A60F3E7C8
:101080003480044000B0064008B0044008D004405A
:101090002DE9F84F234B1B681A053BD5224B1B68E3
:1010A0000BB101221A70DFF89090204D99F80040A2
:1010B000DFF888801E4E0134272C8ABF4FF0000ACB
:1010C0005FFA84FA54460746AB462B789C4216D109
:1010D00002F066FA40281FDC33791B06F5D59BF831
:1010E00000300133272B86BF00221346DAB218F8EE
:1010F0000330DBB2F3712A702B789C42E8D00D49A3
:101100000B4BFFB20120BC2208F80470087089F86C
:1011100000A0DA70BDE8F88FFF28D6DDFFF7AEF942
:10112000D3E700BF34800440040DFF1F010DFF1FF3
:1011300000B00640940CFF1F080DFF1F980CFF1F06
:101140002DE9F84F294B1B681A0548D5284B1B6819
:1011500005460BB101221A7005EB010A554540D234
:10116000DFF89C80234CDFF89C90234F0AE015F8B1
:10117000012B09F80B20214A0123AA45137088F896
:1011800000602ED098F80030227803F1010BBBF1FB
:10119000270F86BF0026B3465FFA8BF69345E6D14C
:1011A000BC22FA7005E03A7913060BD422789345F5
:1011B000DDD102F0F5F94028F5DDFF28F6DDFFF777
:1011C0005DF9F3E722780132272A86BF00210A461B
:1011D000D1B219F80220D2B2FA712170E6E7BDE867
:1011E000F88F054BBC22DA70BDE8F88F34800440DC
:1011F000040DFF1F010DFF1F00B00640940CFF1FE0
:10120000080DFF1F980CFF1F10B5044C237823B165
:10121000FFF734F92378002BFAD110BD940CFF1F8F
:10122000064A074B1B781078DBB2C0B283422CBF52
:10123000273000F1FF30C01A704700BF010DFF1FBB
:10124000080DFF1F054A064B10781B78C0B2DBB2B1
:10125000984238BF4030C01A704700BF000DFF1FD2
:10126000950CFF1F30B4154B154C1A782378D2B269
:10127000DBB29A421ED001333F2B0ED91149124BDB
:10128000087819680023C0B2237021B1D31A1A2B31
:1012900001DC00230B7030BC70470A480A49C05C6F
:1012A0000968DDB2C0B225700029F4D09A4238BF77
:1012B0004032EBE74FF0FF30EDE700BF000DFF1FBE
:1012C000950CFF1FC00CFF1F900CFF1F084A094B15
:1012D00012781B78DBB29A4207D00133402B28BF2B
:1012E0000023054AD05CC0B270474FF0FF30704712
:1012F000000DFF1F950CFF1FC00CFF1F0D4B1B683F
:101300001B0516D530B40C4B0C4CDA780C480D4943
:1013100002F0CB024025DA705D74DA7842F03402D4
:10132000DA7023780268DBB20B700AB10023137005
:1013300030BC70473480044000B00640950CFF1F5D
:10134000900CFF1F000DFF1FF0B4384B1A7912F0FC
:10135000300F2CD072B6997D01F0FF0200293DD0EC
:1013600062B6334F334938780D78334E1C46C0B2DD
:10137000EDB2431C402BE17928BF0023AB4202F1C0
:10138000FF32C9B21CBFF154184612F0FF02F0D16F
:101390002A4B1B68C2B23A704BB1A84236BFC5F1A6
:1013A0004005401B40192728C4BF01221A701F495D
:1013B000CA78D2B2150616D452060DD51B4B1B792E
:1013C0005B0609D51E4B1F491B6800220A7003B13A
:1013D0001A70164B3C22DA70F0BC70474022D97963
:1013E0005A7462B6E3E70B791C06E5D5164B174E27
:1013F0001C783378E4B2DBB29C420ED0144D01E08D
:10140000A3420AD00133282B28BF00230879E85CC7
:10141000C0B2C871087D0728F2D9DBB20349337026
:101420000B79180644BF7C23CB70C5E700B006409B
:10143000000DFF1F950CFF1FC00CFF1F900CFF1F1E
:10144000040DFF1F940CFF1F080DFF1F010DFF1F50
:10145000980CFF1F2DE9F84F214B1B6807460BB175
:1014600001221A70DFF888901E4D99F80040DFF8CD
:1014700084801D4E0134272C8ABF4FF0000A5FFA8A
:1014800084FA5446AB462B78A34216D102F088F872
:1014900040281FDC33791B06F5D59BF8003001335B
:1014A000272B86BF00221346DAB218F80330DBB2CE
:1014B000F3712A702B78A342E8D00C490A4BFFB293
:1014C00008F804700120AC22087089F800A0DA70D6
:1014D000BDE8F88FFF28D6DDFEF7D0FFD3E700BFC9
:1014E000800DFF1F7D0DFF1F00C006407C0DFF1FFC
:1014F000840DFF1F140DFF1F174A18491368F0B51C
:1015000043F48053164C174D174FDFF874E0136007
:10151000164E174A002323708EF80030154C2B709E
:101520000B703B7040F213373760134D1349C0F313
:1015300044364FF4517727601670C0F347142C27B8
:1015400000F01F00402654709072082493701374AA
:10155000D7702E700C60F0BD348004407D0DFF1FED
:10156000100DFF1F840DFF1F7C0DFF1F08C00440DE
:1015700000C006400CC0044023E400E004E100E0A9
:10158000110DFF1F194B19499B7803F0EC0200F075
:1015900003031343420700F00F0248BF43F0100358
:1015A000042A8B701CD0114B104A5B79C10603F0E2
:1015B000EF0348BF43F0100353719379820603F0A1
:1015C000EF030A4A48BF43F010039371C30506D5E1
:1015D00053781178DBB241F02001117053707047DD
:1015E0008B7943F040038B71DDE700BF00C00640FC
:1015F000F8B5114B1B68DB041CD5104C237823B1C4
:10160000FEF73CFF2378002BFAD10D4B0D4F0E4E09
:101610000E4D0F4C0F48104908221A600023FB7032
:1016200040F2031232602A60226803700B7012B11C
:1016300001231370F8BDF8BD348004407C0DFF1FFA
:1016400084E100E000C0064008C004400CC0044033
:101650000C0DFF1F100DFF1F110DFF1F0A4A38B59B
:101660000546137803F0FF04002BFAD10121284628
:1016700002F02EF82146284602F024F8034A044BD3
:1016800052F835201A6038BD7C0DFF1F2C4A00002F
:10169000800DFF1F09B140F08000104A1378984276
:1016A0001AD010B40E4C2468E40412D503F07F0362
:1016B000082B02D10B4B00241C60002900F07F0393
:1016C00014BF60214421082B03D1064B41F4407123
:1016D000196010705DF8044B704700BFFB06FF1FD8
:1016E000348004400CC00440704700BF0D4B1B68A1
:1016F00013F4805305D03F2805D90B4B0020186008
:10170000704718467047094B10B5074C53F83030F6
:101710002360012101F0DCFF236800221A70012000
:1017200010BD00BF348004400C0DFF1F2C4A000088
:101730000C4B1B6813F4805306D00E2806D00A4ABF
:10174000537B03F0FE03537300207047074B064A98
:1017500040F202311960537B43F0010353730120BF
:10176000704700BF3480044000C0064004C00440FD
:10177000034B1B68DB0401D5FFF76CBE704700BF4D
:101780003480044070B5094E04464518AC4204F15B
:1017900001040AD03368DB04F8D514F8010CFFF714
:1017A00059FEAC4204F10104F4D170BD3480044010
:1017B00010B5044C237823B1FEF760FE2378002B8C
:1017C000FAD110BD7C0DFF1F064A074B1B7810781D
:1017D000DBB2C0B283422CBF273000F1FF30C01A09
:1017E000704700BF7D0DFF1F840DFF1F054A064B8C
:1017F00010781B78C0B2DBB2984238BF4030C01AB4
:10180000704700BF100DFF1F110DFF1F30B4154BA7
:10181000154C1A782378D2B2DBB29A421ED001332B
:101820003F2B0ED91149124B087819680023C0B21A
:10183000237021B1D31A1A2B01DC00230B7030BCAA
:1018400070470A480A49C05C0968DDB2C0B2257019
:101850000029F4D09A4238BF4032EBE74FF0FF3016
:10186000EDE700BF100DFF1F110DFF1F3C0DFF1F07
:101870000C0DFF1F084A094B12781B78DBB29A4205
:1018800007D00133402B28BF0023054AD05CC0B2EB
:1018900070474FF0FF307047100DFF1F110DFF1FF5
:1018A0003C0DFF1F054B064A1B7806491268DBB248
:1018B0000B700AB100231370704700BF110DFF1F9A
:1018C0000C0DFF1F100DFF1F30B42B4B1A7994061F
:1018D0001FD52A48DA790378294901333F2B097843
:1018E000C8BF00238B42D2B203D0264CD9B2E254F7
:1018F0000170254A116861B1244A1278D2B293422C
:1019000036BFC2F140029B1A9B18272BC4BF01238C
:101910000B70194AD378DBB2180611D45A060DD5CC
:10192000154B1B795B0609D5194B1A491B68002218
:101930000A7003B11A70104B2C22DA7030BC704759
:1019400011790906EAD5144910480C780178C9B212
:101950008C420DD04A1C272A84BF00210A460F4D15
:10196000054C98BFD1B2AA5CD2B2E2710170D5E742
:101970006C21D170D2E700BF00C00640100DFF1FE0
:10198000110DFF1F3C0DFF1F0C0DFF1F7D0DFF1FD5
:10199000800DFF1F7C0DFF1F840DFF1F140DFF1F07
:1019A0002DE9F84F214B1B6807460BB101221A7035
:1019B000DFF888901E4D99F80040DFF884801D4EB6
:1019C0000134272C8ABF4FF0000A5FFA84FA54468C
:1019D000AB462B78A34216D101F0E2FD40281FDC74
:1019E00033791B06F5D59BF800300133272B86BFD2
:1019F00000221346DAB218F80330DBB2F3712A7012
:101A00002B78A342E8D00C490A4BFFB208F80470C7
:101A10000120AC22087089F800A0DA70BDE8F88FC8
:101A2000FF28D6DDFEF72AFDD3E700BFFC0DFF1F20
:101A3000F90DFF1F00D00640F80DFF1F000EFF1F1D
:101A4000900DFF1F244A25491368F0B443F4005356
:101A500013600A78224F234E234D244C244900233F
:101A60001F2A3B7033702B7023700B702FD03F2ACE
:101A700020D0204B1B78202B24D03E2B03D11E4B93
:101A80004FF451721A601D4B1D4D1E49C0F3443670
:101A90001E70C0F3471400222C27402600F01F00C0
:101AA0005C70987220249A701A74DF702E700C602B
:101AB000F0BC7047144B40F213321A600D4B1B7888
:101AC000202BDAD1114B4FF451721A60DBE7104B27
:101AD00040F213321A60CCE734800440FC06FF1F4A
:101AE0008C0DFF1F8D0DFF1F000EFF1FF90DFF1F37
:101AF000F80DFF1FFD06FF1F10D0044000D0064068
:101B000025E400E004E100E014D004402CA00440EF
:101B100028A00440194B19499B7803F0EC0200F00F
:101B200003031343420700F00F0248BF43F01003C2
:101B3000042A8B701CD0114B104A5B79C10603F04C
:101B4000EF0348BF43F0100353719379820603F00B
:101B5000EF030A4A48BF43F010039371C30506D54B
:101B600053781178DBB241F0200111705370704747
:101B70008B7943F040038B71DDE700BF00D0064056
:101B8000204B1B689B043BD510B51F4C237823B119
:101B9000FEF774FC2378002BFAD11C481C491D4B1E
:101BA000202400220460CA701B781F2B19D03F2B01
:101BB00001D1194B1A60194B1B7803F07F03202BBE
:101BC00019D03E2B02D1164B00221A60154B164835
:101BD00016491A68002303700B700AB101231370B1
:101BE00010BD134B40F203121A600C4B1B7803F02C
:101BF0007F03202BE5D10F4B40F203121A60E5E77B
:101C0000704700BF34800440F80DFF1F84E100E0FE
:101C100000D00640FC06FF1F14D00440FD06FF1F45
:101C200010D00440880DFF1F8C0DFF1F8D0DFF1F6E
:101C300028A004402CA004400A4A38B50546137871
:101C400003F0FF04002BFAD10121284601F040FDEA
:101C50002146284601F036FD034A044B52F8352050
:101C60001A6038BDF80DFF1F2C4A0000FC0DFF1F45
:101C700009B140F08000174A1378984217D010B489
:101C8000154C2468A4040FD503F07F03202B1DD02E
:101C90003E2B12D0002900F07F0114BF60234423A3
:101CA00020290ED03E2903D010705DF8044B7047F8
:101CB0000A4943F440730B60F6E7084B00241C60AC
:101CC000E8E7074943F440730B60EDE7044B002459
:101CD0001C60DFE7FD06FF1F3480044010D0044085
:101CE0002CA00440124B1A7882420CD0114909688A
:101CF000890407D51F2A16D03F2A0AD01F280DD0E5
:101D00003F2801D0187070470B4A40F21331116020
:101D1000F8E7094A00211F281160F1D1074A40F273
:101D200013311160EEE7054A00211160E6E700BFBC
:101D3000FC06FF1F3480044014D0044028A0044057
:101D40000D4B1B6813F4005305D03F2805D90B4BEE
:101D500000201860704718467047094B10B5074CB3
:101D600053F830302360012101F0B2FC23680022D7
:101D70001A70012010BD00BF34800440880DFF1F81
:101D80002C4A000000207047034B1B689B0401D5C0
:101D9000FFF706BE704700BF3480044070B5094E9F
:101DA00004464518AC4204F101040AD033689B0490
:101DB000F8D514F8010CFFF7F3FDAC4204F101046F
:101DC000F4D170BD3480044010B5044C237823B1A5
:101DD000FEF754FB2378002BFAD110BDF80DFF1F3E
:101DE000064A074B1B781078DBB2C0B283422CBF87
:101DF000273000F1FF30C01A704700BFF90DFF1FF8
:101E0000000EFF1F054A064B10781B78C0B2DBB2EC
:101E1000984238BF4030C01A704700BF8C0DFF1F7A
:101E20008D0DFF1F30B4154B154C1A782378D2B2A4
:101E3000DBB29A421ED001333F2B0ED91149124B0F
:101E4000087819680023C0B2237021B1D31A1A2B65
:101E500001DC00230B7030BC70470A480A49C05CA3
:101E60000968DDB2C0B225700029F4D09A4238BFAB
:101E70004032EBE74FF0FF30EDE700BF8C0DFF1F66
:101E80008D0DFF1FB80DFF1F880DFF1F084A094B5E
:101E900012781B78DBB29A4207D00133402B28BF5F
:101EA0000023054AD05CC0B270474FF0FF30704746
:101EB0008C0DFF1F8D0DFF1FB80DFF1F054B064A30
:101EC0001B7806491268DBB20B700AB1002313704D
:101ED000704700BF8D0DFF1F880DFF1F8C0DFF1F6A
:101EE00030B42B4B1A7994061FD52A48DA79037837
:101EF000294901333F2B0978C8BF00238B42D2B256
:101F000003D0264CD9B2E2540170254A116861B160
:101F1000244A1278D2B2934236BFC2F140029B1AD1
:101F20009B18272BC4BF01230B70194AD378DBB24F
:101F3000180611D45A060DD5154B1B795B0609D529
:101F4000194B1A491B6800220A7003B11A70104B12
:101F50002C22DA7030BC704711790906EAD5144991
:101F600010480C780178C9B28C420DD04A1C272A3F
:101F700084BF00210A460F4D054C98BFD1B2AA5C20
:101F8000D2B2E2710170D5E76C21D170D2E700BF07
:101F900000D006408C0DFF1F8D0DFF1FB80DFF1FD9
:101FA000880DFF1FF90DFF1FFC0DFF1FF80DFF1F10
:101FB000000EFF1F900DFF1F2DE9F84F214B1B68EE
:101FC00007460BB101221A70DFF888901E4D99F870
:101FD0000040DFF884801D4E0134272C8ABF4FF06B
:101FE000000A5FFA84FA5446AB462B78A34216D116
:101FF00001F0D6FA40281FDC33791B06F5D59BF893
:1020000000300133272B86BF00221346DAB218F8BE
:102010000330DBB2F3712A702B78A342E8D00C496D
:102020000A4BFFB208F804700120AC22087089F84E
:1020300000A0DA70BDE8F88FFF28D6DDFEF71EFAA3
:10204000D3E700BF780EFF1F750EFF1F00A00E40E4
:10205000740EFF1F7C0EFF1F0C0EFF1F174A18493E
:102060001368F0B543F48063164C174D174FDFF833
:1020700074E01360164E174A002323708EF8003068
:10208000154C2B700B703B7040F213373760134DBB
:102090001349C0F344364FF4517727601670C0F3EC
:1020A00047142C2700F01F0040265470907204241F
:1020B00093701374D7702E700C60F0BD28800440AC
:1020C000750EFF1F080EFF1F7C0EFF1F740EFF1FF3
:1020D00064D0044000A00E4060D0044042E400E020
:1020E00008E100E0090EFF1F194B19499B7803F026
:1020F000EC0200F003031343420700F00F0248BF55
:1021000043F01003042A8B701CD0114B104A5B79EA
:10211000C10603F0EF0348BF43F0100353719379F6
:10212000820603F0EF030A4A48BF43F0100393719D
:10213000C30506D553781178DBB241F02001117048
:10214000537070478B7943F040038B71DDE700BF1C
:1021500000A00E40F8B5114B1B685B051CD5104C58
:10216000237823B1FEF78AF92378002BFAD10D4B9F
:102170000D4F0E4E0E4D0F4C0F48104904221A60A1
:102180000023FB7040F2031232602A602268037061
:102190000B7012B101231370F8BDF8BD2880044004
:1021A000740EFF1F88E100E000A00E4064D00440E0
:1021B00060D00440040EFF1F080EFF1F090EFF1F12
:1021C0000A4A38B50546137803F0FF04002BFAD10C
:1021D0000121284601F07CFA2146284601F072FAD6
:1021E000034A044B52F835201A6038BD740EFF1FA5
:1021F0002C4A0000780EFF1F09B140F08000104A01
:10220000137898421AD010B40E4C2468640512D585
:1022100003F07F03212B02D10B4B00241C6000290B
:1022200000F07F0314BF60214421212B03D1064B12
:1022300041F44071196010705DF8044B704700BFA5
:10224000FE06FF1F2880044060D00440704700BF96
:102250000D4B1B6813F4806305D03F2805D90B4B49
:1022600000201860704718467047094B10B5074C9E
:1022700053F830302360012101F02AFA236800224C
:102280001A70012010BD00BF28800440040EFF1FFB
:102290002C4A00000C4B1B6813F4806306D01828EE
:1022A00006D00A4A537B03F0FE03537300207047A5
:1022B000074B064A40F202311960537B43F0010399
:1022C00053730120704700BF2880044000A00E40D7
:1022D00068D00440034B1B685B0501D5FFF76CBE5B
:1022E000704700BF2880044070B5094E0446451869
:1022F000AC4204F101040AD033685B05F8D514F848
:10230000010CFFF759FEAC4204F10104F4D170BD99
:102310002880044010B5044C237823B1FEF7AEF8B2
:102320002378002BFAD110BD740EFF1F064A074B0D
:102330001B781078DBB2C0B283422CBF273000F18B
:10234000FF30C01A704700BF750EFF1F7C0EFF1FC5
:10235000054A064B10781B78C0B2DBB2984238BFF2
:102360004030C01A704700BF080EFF1F090EFF1F44
:1023700030B4154B154C1A782378D2B2DBB29A429E
:102380001ED001333F2B0ED91149124B0878196822
:102390000023C0B2237021B1D31A1A2B01DC002311
:1023A0000B7030BC70470A480A49C05C0968DDB24E
:1023B000C0B225700029F4D09A4238BF4032EBE712
:1023C0004FF0FF30EDE700BF080EFF1F090EFF1FA3
:1023D000340EFF1F040EFF1F084A094B12781B78AA
:1023E000DBB29A4207D00133402B28BF0023054AB5
:1023F000D05CC0B270474FF0FF307047080EFF1F2F
:10240000090EFF1F340EFF1F054B064A1B780649B5
:102410001268DBB20B700AB100231370704700BF63
:10242000090EFF1F040EFF1F080EFF1F30B42B4BB9
:102430001A7994061FD52A48DA7903782949013395
:102440003F2B0978C8BF00238B42D2B203D0264C61
:10245000D9B2E2540170254A116861B1244A127858
:10246000D2B2934236BFC2F140029B1A9B18272B6F
:10247000C4BF01230B70194AD378DBB2180611D4FC
:102480005A060DD5154B1B795B0609D5194B1A4910
:102490001B6800220A7003B11A70104B2C22DA70EC
:1024A00030BC704711790906EAD5144910480C78F8
:1024B0000178C9B28C420DD04A1C272A84BF002162
:1024C0000A460F4D054C98BFD1B2AA5CD2B2E27158
:1024D0000170D5E76C21D170D2E700BF00A00E409B
:1024E000080EFF1F090EFF1F340EFF1F040EFF1FF3
:1024F000750EFF1F780EFF1F740EFF1F7C0EFF1F4F
:102500000C0EFF1F2DE9F84F214B1B6807460BB13E
:1025100001221A70DFF888901E4D99F80040DFF80C
:1025200084801D4E0134272C8ABF4FF0000A5FFAC9
:1025300084FA5446AB462B78A34216D101F030F80A
:1025400040281FDC33791B06F5D59BF8003001339A
:10255000272B86BF00221346DAB218F80330DBB20D
:10256000F3712A702B78A342E8D00C490A4BFFB2D2
:1025700008F804700120AC22087089F800A0DA7015
:10258000BDE8F88FFF28D6DDFDF778FFD3E700BF61
:10259000F40EFF1FF10EFF1F00B00E40F00EFF1FE4
:1025A000F80EFF1F880EFF1F174A18491368F0B571
:1025B00043F40063164C174D174FDFF874E01360B7
:1025C000164E174A002323708EF80030154C2B70DE
:1025D0000B703B7040F213373760134D1349C0F353
:1025E00044364FF4517727601670C0F347142C27F8
:1025F00000F01F00402654709072102493701374E2
:10260000D7702E700C60F0BD28800440F10EFF1FC3
:10261000840EFF1FF80EFF1FF00EFF1F20C00440A6
:1026200000B00E4024C0044044E400E008E100E0B3
:10263000850EFF1F194B19499B7803F0EC0200F03F
:1026400003031343420700F00F0248BF43F0100397
:10265000042A8B701CD0114B104A5B79C10603F021
:10266000EF0348BF43F0100353719379820603F0E0
:10267000EF030A4A48BF43F010039371C30506D520
:1026800053781178DBB241F020011170537070471C
:102690008B7943F040038B71DDE700BF00B00E4043
:1026A000F8B5114B1B681B051CD5104C237823B1C2
:1026B000FDF7E4FE2378002BFAD10D4B0D4F0E4EA3
:1026C0000E4D0F4C0F48104910221A600023FB706A
:1026D00040F2031232602A60226803700B7012B15C
:1026E00001231370F8BDF8BD28800440F00EFF1FD1
:1026F00088E100E000B00E4020C0044024C0044047
:10270000800EFF1F840EFF1F850EFF1F0A4A38B57B
:102710000546137803F0FF04002BFAD10121284667
:1027200000F0D6FF2146284600F0CCFF034A044BB8
:1027300052F835201A6038BDF00EFF1F2C4A0000F9
:10274000F40EFF1F09B140F08000104A1378984240
:102750001AD010B40E4C2468240512D503F07F0360
:10276000302B02D10B4B00241C60002900F07F03AA
:1027700014BF60214421302B03D1064B41F440713A
:10278000196010705DF8044B704700BFFF06FF1F13
:102790002880044024C00440704700BF0D4B1B68D4
:1027A00013F4006305D03F2805D90B4B00201860B7
:1027B000704718467047094B10B5074C53F8303036
:1027C0002360012100F084FF236800221A70012099
:1027D00010BD00BF28800440800EFF1F2C4A00005F
:1027E0000C4B1B6813F4006306D0382806D00A4A45
:1027F000537B03F0FE03537300207047074B064AD8
:1028000040F202311960537B43F0010353730120FE
:10281000704700BF2880044000B00E4028D004401C
:10282000034B1B681B0501D5FFF76CBE704700BF4B
:102830002880044070B5094E04464518AC4204F1A6
:1028400001040AD033681B05F8D514F8010CFFF712
:1028500059FEAC4204F10104F4D170BD288004405B
:1028600010B5044C237823B1FDF708FE2378002B24
:10287000FAD110BDF00EFF1F064A074B1B781078E7
:10288000DBB2C0B283422CBF273000F1FF30C01A48
:10289000704700BFF10EFF1FF80EFF1F054A064BE1
:1028A00010781B78C0B2DBB2984238BF4030C01AF3
:1028B000704700BF840EFF1F850EFF1F30B4154BFD
:1028C000154C1A782378D2B2DBB29A421ED001336B
:1028D0003F2B0ED91149124B087819680023C0B25A
:1028E000237021B1D31A1A2B01DC00230B7030BCEA
:1028F00070470A480A49C05C0968DDB2C0B2257059
:102900000029F4D09A4238BF4032EBE74FF0FF3055
:10291000EDE700BF840EFF1F850EFF1FB00EFF1FE7
:10292000800EFF1F084A094B12781B78DBB29A42CF
:1029300007D00133402B28BF0023054AD05CC0B22A
:1029400070474FF0FF307047840EFF1F850EFF1F4A
:10295000B00EFF1F054B064A1B7806491268DBB212
:102960000B700AB100231370704700BF850EFF1F64
:10297000800EFF1F840EFF1F30B42B4B1A79940674
:102980001FD52A48DA790378294901333F2B097882
:10299000C8BF00238B42D2B203D0264CD9B2E25436
:1029A0000170254A116861B1244A1278D2B293426B
:1029B00036BFC2F140029B1A9B18272BC4BF0123CC
:1029C0000B70194AD378DBB2180611D45A060DD50C
:1029D000154B1B795B0609D5194B1A491B68002258
:1029E0000A7003B11A70104B2C22DA7030BC704799
:1029F00011790906EAD5144910480C780178C9B252
:102A00008C420DD04A1C272A84BF00210A460F4D54
:102A1000054C98BFD1B2AA5CD2B2E2710170D5E781
:102A20006C21D170D2E700BF00B00E40840EFF1FB2
:102A3000850EFF1FB00EFF1F800EFF1FF10EFF1F40
:102A4000F40EFF1FF00EFF1FF80EFF1F880EFF1F72
:102A500038B50F4D286878B143880288C118013312
:102A600093420C7A02D24380204638BD01F07EFCAE
:102A7000002320462B6038BD064B1B782BB103206A
:102A800000F00EFF28600028E6D14FF0FF3038BD7F
:102A9000040FFF1F6010FF1F10B5094C206818B10C
:102AA00043881844007A10BD064B1B782BB10320D5
:102AB00000F0F6FE20600028F2D14FF0FF3010BD8C
:102AC000040FFF1F6010FF1F044B054A1B6890880E
:102AD0001BB11A885B88D31A18447047040FFF1F74
:102AE0007810FF1F0B4B1B789BB110B50A4C206868
:102AF00048B101F03BFC00230320236000F0D0FE2E
:102B000030B101F033FC032000F0CAFE0028F8D1F8
:102B100010BD70476010FF1F040FFF1F2DE9F04F1D
:102B2000DFF8F89083B0012289F80020019169B3A1
:102B3000DFF8EC80364F019E8346D8F80000B0B332
:102B4000344D4488C4F14001B14228BF314604EB02
:102B5000010E00221FFA8EFE2A70761AA0F802E0FB
:102B600000F1080251B1013C224459441BF8014BC9
:102B700002F8014F8B45F9D1B0F802E0BEF13F0FEA
:102B80000BD8254A05211170002ED6D101980023BB
:102B900089F8003003B0BDE8F08F40220280014682
:102BA000042000F0F3FE0022C8F80020E9E73A789C
:102BB0002AB3184D4DF2E9044FF0010A07E0013C39
:102BC00016D02A78A2B9FDF759FC3A78BAB1042098
:102BD00000F084FE0728F2D889F800A001F0A6FBD7
:102BE000C8F800000028ACD10C4B013C1870E8D1AB
:102BF00001234FF0FF302B7003B0BDE8F08F0023AE
:102C00004FF0FF3089F8003003B0BDE8F08F00BF0F
:102C10006010FF1F000FFF1FF90EFF1FFA0EFF1FAE
:102C2000FC0EFF1F00B583B002AB012103F8010DBC
:102C30001846FFF773FF03B05DF804FBF8B5114BBE
:102C40001B788BB1104E114D346801272F7064B181
:102C50000F4A63880027177021462380042000F064
:102C600095FE376000232B70F8BD01F05FFB084B29
:102C700028B1014604201C7000F088FEF2E71F70A6
:102C8000F0E700BF6010FF1FFC0EFF1FFA0EFF1FD2
:102C9000F90EFF1F38B50E4B1B7873B90D4C216828
:102CA00061B103F0FF054B880B80042000F06EFE3D
:102CB000256038BD084B01221A7038BD01F036FB83
:102CC0000028F7D00146BDE83840042000F05EBE81
:102CD000FA0EFF1FFC0EFF1FF90EFF1F0368C9B29B
:102CE0001B6818470368C9B21B6818470368C9B254
:102CF0001B6818470368C9B21B68184708B508461F
:102D0000FDF766FE012008BD08B50846FDF760FE28
:102D1000012008BD38B508460D4601F071FC044697
:102D200001462846FDF75EFE204638BD10B5084630
:102D300014461146FDF756FE204610BDFDF7C2BEF3
:102D4000FDF72EBF08B50846FDF71AFE003018BF84
:102D5000012008BD08B50846FDF7F0FD003018BF9A
:102D6000012008BD08461146FDF764BD0846FDF781
:102D7000ABBD00BF0846FDF741BD00BFFDF7CEBCAF
:102D8000034B03EB5100B0FBF1F0FDF711BC00BFAA
:102D9000001C4E0E10B5064B144603EB5100B0FB61
:102DA000F1F0FDF705FC2046BDE81040FDF780BCC2
:102DB000001C4E0EFDF77ABEFDF7DABEFDF7A4BE8D
:102DC000FDF792BE704700BF044B054A1A604FF4EE
:102DD0007A71002299601A711A7370470C0FFF1FE5
:102DE000D047000008B50846FEF752F9012008BD9B
:102DF00008B50846FEF74CF9012008BD38B508466D
:102E00000D4601F0FDFB044601462846FEF798F901
:102E1000204638BD10B5084614461146FEF790F915
:102E2000204610BDFEF7FCB9FEF768BA08B50846A3
:102E3000FEF706F9003018BF012008BD08B50846A6
:102E4000FEF7DCF8003018BF012008BD0846114627
:102E5000FEF76CB80846FEF7A3B800BF0846FEF7B9
:102E600049B800BFFDF7EABF034B03EB5100B0FBCD
:102E7000F1F0FDF741BF00BF001C4E0E10B5064B30
:102E8000144603EB5100B0FBF1F0FDF735FF20468F
:102E9000BDE81040FDF79CBF001C4E0EFEF7B4B914
:102EA000FEF714BAFEF7DEB9FEF7CCB90368064A9E
:102EB0001B68934205D110B5C8B2FEF7E9F80120AE
:102EC00010BDC9B2184700BFF12D00000368064AC3
:102ED0001B68934205D110B5C8B2FEF7D9F801209E
:102EE00010BDC9B2184700BFF12D00000368064AA3
:102EF0001B68934205D110B5C8B2FEF7C9F801208E
:102F000010BDC9B2184700BFF12D00000368064A82
:102F10001B68934205D110B5C8B2FEF7B9F801207D
:102F200010BDC9B2184700BFF12D0000704700BFA7
:102F3000044B054A1A604FF47A71002299601A71A5
:102F40001A7370471C0FFF1F3048000008B5084671
:102F5000FEF70EFC012008BD08B50846FEF708FC88
:102F6000012008BD38B508460D4601F049FB04466E
:102F700001462846FEF706FC204638BD10B5084637
:102F800014461146FEF7FEFB204610BDFEF71CBCA2
:102F9000FEF788BC08B50846FEF7CAFB003018BF2C
:102FA000012008BD08B50846FEF7A0FB003018BF99
:102FB000012008BD08461146FEF76CBB0846FEF727
:102FC00093BB00BF0846FEF749BB00BFFEF710BB2E
:102FD000034B03EB5100B0FBF1F0FEF78DBA00BFDD
:102FE000000E270710B5064B144603EB5100B0FB4B
:102FF000F1F0FEF781FA2046BDE81040FEF7C2BAB4
:10300000000E2707FEF7D4BBFEF734BCFEF7FEBB6D
:10301000FEF7ECBB0368064A1B68934205D110B566
:10302000C8B2FEF7A5FB012010BDC9B2184700BF0A
:10303000592F00000368064A1B68934205D110B55A
:10304000C8B2FEF795FB012010BDC9B2184700BFFA
:10305000592F00000368064A1B68934205D110B53A
:10306000C8B2FEF785FB012010BDC9B2184700BFEA
:10307000592F00000368064A1B68934205D110B51A
:10308000C8B2FEF775FB012010BDC9B2184700BFDA
:10309000592F0000704700BF044B054A1A604FF4D7
:1030A0007A71002299601A711A7370472C0FFF1FF2
:1030B0009048000008B50846FEF766FE012008BDEE
:1030C00008B50846FEF760FE012008BD38B5084681
:1030D0000D4601F095FA044601462846FEF75EFECD
:1030E000204638BD10B5084614461146FEF756FE78
:1030F000204610BDFEF774BEFEF7E0BE08B50846D8
:10310000FEF740FE003018BF012008BD08B5084694
:10311000FEF716FE003018BF012008BD0846114614
:10312000FEF7A6BD0846FEF7DDBD00BF0846FEF768
:1031300083BD00BFFEF724BD034B03EB5100B0FB82
:10314000F1F0FEF77FBC00BF000E270710B5064B5D
:10315000144603EB5100B0FBF1F0FEF773FC204680
:10316000BDE81040FEF7D6BC000E2707FEF72CBEC8
:10317000FEF78CBEFEF756BEFEF744BE0368064A55
:103180001B68934205D110B5C8B2FEF7FDFD0120C2
:1031900010BDC9B2184700BFC13000000368064A1D
:1031A0001B68934205D110B5C8B2FEF7EDFD0120B2
:1031B00010BDC9B2184700BFC13000000368064AFD
:1031C0001B68934205D110B5C8B2FEF7DDFD0120A2
:1031D00010BDC9B2184700BFC13000000368064ADD
:1031E0001B68934205D110B5C8B2FEF7CDFD012092
:1031F00010BDC9B2184700BFC1300000704700BF02
:10320000044B054A1A604FF47A71002299601A71D2
:103210001A7370473C0FFF1FF048000008B50846BE
:10322000FFF758F8012008BD08B50846FFF752F827
:10323000012008BD38B508460D4601F0E1F9044605
:1032400001462846FFF750F8204638BD10B508461D
:1032500014461146FFF748F8204610BDFFF766B840
:10326000FFF7D2B808B50846FFF714F8003018BFCA
:10327000012008BD08B50846FEF7EAFF003018BF78
:10328000012008BD08461146FEF7B6BF0846FEF706
:10329000DDBF00BF0846FEF793BF00BFFEF75ABF71
:1032A000034B03EB5100B0FBF1F0FEF7D7BE00BFBC
:1032B000000E270710B5064B144603EB5100B0FB78
:1032C000F1F0FEF7CBFE2046BDE81040FEF70CBF44
:1032D000000E2707FFF71EB8FFF77EB8FFF748B8C4
:1032E000FFF736B80368064A1B68934205D110B54C
:1032F000C8B2FEF7EFFF012010BDC9B2184700BFEA
:10330000293200000368064A1B68934205D110B5B4
:10331000C8B2FEF7DFFF012010BDC9B2184700BFD9
:10332000293200000368064A1B68934205D110B594
:10333000C8B2FEF7CFFF012010BDC9B2184700BFC9
:10334000293200000368064A1B68934205D110B574
:10335000C8B2FEF7BFFF012010BDC9B2184700BFB9
:1033600029320000704700BF044B054A1A604FF431
:103370007A71002299601A711A7370474C0FFF1FFF
:103380005049000008B50846FFF74AFA012008BD79
:1033900008B50846FFF744FA012008BD38B50846CD
:1033A0000D4601F02DF9044601462846FFF742FA82
:1033B000204638BD10B5084614461146FFF73AFAC4
:1033C000204610BDFFF758BAFFF7C4BA08B5084643
:1033D000FFF706FA003018BF012008BD08B50846FF
:1033E000FFF7DCF9003018BF012008BD0846114680
:1033F000FFF7A8B90846FFF7CFB900BF0846FFF7A7
:1034000085B900BFFFF74CB9034B03EB5100B0FB8C
:10341000F1F0FFF7C9B800BF000E270710B5064B43
:10342000144603EB5100B0FBF1F0FFF7BDF8204666
:10343000BDE81040FFF7FEB8000E2707FFF710BAEF
:10344000FFF770BAFFF73ABAFFF728BA0368064ADF
:103450001B68934205D110B5C8B2FFF7E1F901200E
:1034600010BDC9B2184700BF913300000368064A77
:103470001B68934205D110B5C8B2FFF7D1F90120FE
:1034800010BDC9B2184700BF913300000368064A57
:103490001B68934205D110B5C8B2FFF7C1F90120EE
:1034A00010BDC9B2184700BF913300000368064A37
:1034B0001B68934205D110B5C8B2FFF7B1F90120DE
:1034C00010BDC9B2184700BF91330000704700BF5C
:1034D000044B054A1A604FF47A71002299601A7100
:1034E0001A7370475C0FFF1FB0490000FFF7FABA6C
:1034F000FFF7A4BBFFF7D0BAFFF7AABAFFF7E4BA09
:1035000008461146FFF70ABB0846FFF78BBB00BF12
:10351000704700BF044B054A1A604FF47A710022CD
:1035200099601A711A7370476C0FFF1F104A0000E0
:10353000024A136801331360704700BF7C0FFF1FFE
:1035400008B5104C08E0236859050DD423681A0506
:103550000FD42368DB0411D423685803F3D500F09B
:1035600057FA23685905F1D5FDF740FB23681A0582
:10357000EFD5FDF7E9FE2368DB04EDD5FEF7A4F9EE
:10358000EAE700BF3480044008B5FFF7D9FF00BF69
:10359000014B10221A80704700200540704700BF81
:1035A000EFF3138070B9EFF310836BB9EFF305827B
:1035B0005AB94FF48070EFF311832BB1984228BFB2
:1035C000184670474FF0FF3070470F2A01D8184651
:1035D000F1E7014BD05CEEE7F0E300E010B4114BF3
:1035E00053F8302092F8804234B1012379B182F847
:1035F00080305DF8044B704703EBC0035B681A68CA
:1036000051B922F002021A605DF8044B704782F84B
:1036100000315DF8044B704742F003021A605DF818
:10362000044B70472C4A00001C4A02EBC0030129DE
:103630005B6811D004291BD052F83000002280F8BA
:10364000802229B1022920D0032922D01A60704794
:103650004FF480721A60704752F830004FF4A27233
:1036600080F880121A601A6822F020021A607047EF
:1036700052F830104FF4A272012081F880021A60D3
:103680001A6842F020021A60704740F203121A6072
:1036900070474FF481721A60704700BF2C4A0000D7
:1036A00030B4054B054D064C002210211A602A60EB
:1036B0002060196030BC704714D0034004D0034030
:1036C00000D003403F2801D8FFF788BF704700BFF4
:1036D0003F2801D8FFF7A8BF704700BF2DE9F84386
:1036E000054672B6204F214B214A1B683C68126880
:1036F00062B6520102D5322B88BF013495B3C3F5AF
:10370000EA331C4EDFF86490DFF86480BF334FF477
:103710007A72A6FB031302FB04F404EB931472B653
:10372000D9F800103A68D8F800E062B6C1F5EA337B
:10373000BF33A6FB03031EF0806FC4EB93134FF45B
:103740007A7002D0322988BF013200FB0233B3F510
:103750007A7F04D3013D05D004F57A74DFE7FCF7E6
:103760008DFEDCE7BDE8F8837C0FFF1F18E000E06A
:1037700004ED00E089888888F8B53E4B3E49DFF8C3
:1037800018C13E4E3E4ADFF814E13E4D3E4C3F4FDD
:103790004FF0006018604FF0805018604FF00050FC
:1037A00018604FF0804018604FF000401860002013
:1037B000086028234EF6FF71CCF80010CEF80030D8
:1037C00033600EF5012E13602B60236005F5002594
:1037D0003B6004F50024B36207F50027936206F509
:1037E000012602F501220EF1100E05F6E87504F629
:1037F000E87407F57F67103220362B602360CEF81F
:1038000000303B6013603360214EBB61936109223D
:103810003260A7F5002706F58056203F083638604D
:103820003160BB60F36047F8042C06F5FD2607F510
:10383000FE2706F2FC76043730603960B360FB6027
:1038400046F8042C0836C7F8FC0F06F6FC7611483B
:1038500031602B602360026000F0AEFD3220FFF784
:103860003DFF00F0FFFC4FF4AF70BDE8F840FFF7FC
:1038700035BF00BF04E100E0048003401480034032
:103880001C800340248003402C800340348003408C
:103890000080034000900B40088003400C800340F0
:1038A000431E032B14D872B60A4951F8230068B19D
:1038B00070B4094C058834F81320466841F8236039
:1038C000521B24F8132062B670BC704762B6704772
:1038D00000207047D80FFF1F7810FF1F0138032802
:1038E0000BD872B6074B53F8203043B100205B6809
:1038F0000130002BFBD162B670470020704718469C
:10390000F9E700BF2C10FF1FF0B472B61A491B4E26
:10391000012311F8014B194F9A00240742F00105C9
:1039200005D556F8324064B156F83520BAB10133A6
:10393000052BEED162B6124B00221A70F0BC00F0DB
:1039400015BD0F4C0F4D217847F8325007EB43134C
:1039500008304A1E5860227062B6F0BC70470849B1
:10396000094B0A7847F8353007EBC5030830013AB0
:1039700058600A7062B6F0E72C4C00000000FF1F90
:103980005510FF1F88004000C8004000431E032B55
:103990001DD81B4A400140F0100030B4104472B6EC
:1039A000184CE25C032A1BD8DFE802F0021215175C
:1039B00003220D88E25410F0080F14BFC823882397
:1039C00043EA054308310360416062B630BC70478A
:1039D00008300222EDE70522EBE708300422E8E791
:1039E000094A52F8230038B1084A52F823004160CE
:1039F00042F8231062B6E9E742F82310034AF7E7DA
:103A00000000FF1F6410FF1F2C10FF1F3C10FF1F42
:103A10002DE9F04FDFF800A3DFF800B387B044E0F2
:103A2000A84F4FEA930807EBC809013ED9F80420D4
:103A300003F00803F6B2A2F1080003F0FF04002B24
:103A400040F0FC8057F838301B0C99B222F8081C63
:103A5000002B00F0EA809C4B22F8064C42F8044C04
:103A600053F82620002A00F02982984D55F8263078
:103A70005860974C45F8260034F81630194424F85D
:103A8000161000F053FC002800F01182914A924B6E
:103A900019F0080F00F1080018BF1346C9F8040018
:103AA00047F8383008238AF800309AF80040E4B22A
:103AB00060071AD5894B1B78A3B189490A7802F0AF
:103AC000FF0322B1013BDBB20B7003B900BE854995
:103AD0000A7802F0FF032AB1013BDBB20B70002B26
:103AE00000F0BB8104238AF8003004F0080303F0DF
:103AF000FF02002B00F0C6809BF80030DBB21E09ED
:103B00008ED19C086F4F57F8342007EBC401C2F3E5
:103B10008302013A49680C2A00F28380DFE802F050
:103B20007777818181818181408181810700086867
:103B30006D4B6E4D0193674B4A686D4E47F83430BC
:103B400081B240F28164684B6A60286000220120E3
:103B5000A1421A603A61BA61307000F2E180B1F5B9
:103B6000D06F80F02582B1F5817F00F0DE8100F218
:103B7000C181802900F03482822940F0DC81A9884B
:103B80005C4B042900F2D8815B4C89000B44227005
:103B900062701A78930740F122832070022023E29A
:103BA000514B01931A683AB3544B514E54491888FB
:103BB00034780D784028864645F0020828BF4FF03B
:103BC000400E002C84F001043470CEEB00000CBFDA
:103BD0008824C82407EBC80680B285F0010544EAB2
:103BE0000E447260188047F8384072440D70002807
:103BF00000F0B780019B1A603C4B1A88B2F5A06FA9
:103C00000FD100219A7859703E4B1A7009E0374A5B
:103C1000108842F22102904200F0A8802D4A47F815
:103C20003420394A012313703CE72A4A2A4B19F001
:103C3000080F18BF134647F8383033E700F096FBFB
:103C4000324A334952F82630002B00F03B81586845
:103C50008C5D42F8260003F10802C9F80420032C09
:103C600005D8DFE804F02C02292602228A551A889A
:103C700019F0080F0CBF8823C82343EA024347F812
:103C800038300FE7E00700F1EB80210600F12881D2
:103C9000A20706D51F4A204913780220DBB2137011
:103CA0000870E30602D51C4B10221A7007B0BDE85D
:103CB000F08F04228A55DAE705228A55D7E70322D6
:103CC0008A55D4E70000FF1FD80FFF1F840FFF1F86
:103CD0007810FF1FC8004000880040006010FF1FE0
:103CE000E90FFF1FF90EFF1F800FFF1F4C10FF1F72
:103CF000E80FFF1FC02007405810FF1F940FFF1F41
:103D00005410FF1F98200740942007402C10FF1FDD
:103D10006410FF1F88200740802007409020074044
:103D200042F22104A14200F0948043D8B1F5086F1B
:103D300000F0A881B1F5106F40F0FD80B84AB94C91
:103D4000A978117004F1800503E00834AC4200F05A
:103D50009E81236A1906F8D5606A083800F006FBD0
:103D6000F3E7BEF1400F18BF002243E7AE4ACD1D76
:103D700011F8013B02F8013FA942F9D1AB4A1268A0
:103D8000862A00F01181AA49AA4E0A78307882F07A
:103D90000105002842F002020D700CBF8821C821E5
:103DA00047F8321007EBC20280F0010000213070AA
:103DB000516033E742F22124A14240F0FE81DFF856
:103DC000BCC29D4B9D49AC78DCF800501D6081461B
:103DD0000C700020029080468446044694490D7879
:103DE00045F0020E07EBCE03B9F1000F5C600CBF8B
:103DF0008824C82444EA080385F0010447F83E30CB
:103E000032700C70DFF81CE28A4BDFF82482002845
:103E100040F09880BCF1400F1BD144F0020407EB46
:103E2000C403029FDFF8FCE15F60002A40F09F803E
:103E3000020442F0880207444EF8342086F80090CD
:103E40000D703B46402804D100207D4A0199108026
:103E50000B607C4A01231370E3E6FEF71BFF41E68B
:103E6000704B784872491A614FF0020E80F800E0FA
:103E7000754F0A70754919609960754E754D764C8D
:103E80009A610D213970FF213170DFF8F4E129705A
:103E90002270724D724A8EF800109F27012406F896
:103EA000047C5D600470DA6007B0BDE8F08F6D4A95
:103EB00047F83800137801331370F3E543F8260010
:103EC000694DD6E58B5D032B67D801A252F823F02C
:103ED000A53A0000A53A0000253F00001F3F000062
:103EE00059495C4B80220D2008701A70A2077FF59B
:103EF000D8AECFE640F20232914240F05681A98816
:103F000001F07F01042916D86A88A2B94E4C8900B5
:103F10000C448146217841F00201217059E70123C8
:103F20008B55BFE500238B55BCE5A98801F07F01C7
:103F3000042940F24781444B0F221A70414A012361
:103F400013706EE640287FF668AF44F002040EEB73
:103F5000C401029E4E60AAB1444A83F800903346E1
:103F6000403888F8005040334EF834206DE70204A2
:103F7000029B86F8009042F0C8020D7003444EF890
:103F800034205FE783F80090029B304A88F80050A5
:103F9000403840334EF8342057E719F0080F0CBF73
:103FA000022303238B557DE5314A0F211170EAE688
:103FB000304A5468002CBED06888B5F804E003E0AD
:103FC0000C325468002CB6D013888342F8D1538841
:103FD0007345F5D1000A03280CBF2078108903E04F
:103FE000254C022022706270EA88824280F00C81A7
:103FF0000F490D78402A45F0020E944607EBCE009B
:1040000028BF4FF0400C04EB0C0344600293CCEB50
:1040100002004FEA0C484FF001090022C824E9E6EB
:104020006010FF1F0000FF1F6B10FF1F6C10FF1FB1
:104030005410FF1FE80FFF1F7410FF1F080FFF1F12
:10404000940FFF1F94200740C020074088004000C5
:10405000882007408020074098200740980FFF1FC6
:10406000EC0FFF1F5510FF1F840FFF1FC8004000FB
:10407000E90FFF1F304C00005810FF1F7C0FFF1F7F
:104080008C200740684A694C12782270ACE7684976
:10409000684B694A02916949694C6A4D03940596D7
:1040A0004FF0000988461C4616460495206828B142
:1040B000456800F05BF92846002DF9D10023236004
:1040C000049B30681A46002342F8293028B145681D
:1040D00000F04CF92846002DF9D100223260029AF6
:1040E00098F800301146002241F8042B039A0291FF
:1040F000023B4FF0000122F81910032B07D8DFE82C
:1041000003F0340234024FF0010388F8003009F163
:104110000109B9F1040F04F1040406F1040608F1E1
:104120000108C3D1484B059EDFF83091DFF830819C
:1041300000211970012518F8013B09F8043B1A0702
:1041400018D4AC0044F0020244F00304002347F802
:10415000323047F834303D4B994505F10105EAD13D
:1041600096F8009089F0010233E64FF0000388F8DA
:104170000030CCE700F0DAF8AC0007EB451300F1B3
:104180000802002837D05A60314B47F8343000F02D
:10419000CDF844F0010307EBC30200F1080100B3BE
:1041A00051602C4A47F83320CCE7B1F5A06F7FF47B
:1041B000C2AE00224FF001090BE642F221329142D9
:1041C000F7D0B8E66A88002A7FF4B5AE224C8900A1
:1041D0000C448146217821F002012170F9E502208A
:1041E00002E7194B44F001021B7847F83200164AE7
:1041F00001331370A6E7144B134A1B78AC0001334C
:1042000047F834001370C2E74028844628BF4FF0B7
:10421000400C04EB0C03CCEB00004FEA0C4802937B
:1042200000224FF00109D9E56010FF1F5810FF1F51
:104230003C10FF1FD80FFF1F2C10FF1F6410FF1F23
:104240007810FF1F840FFF1F5510FF1FD420074059
:1042500088004000C8004000C0200740C42007403C
:104260002C4C00002DE9F843244C00F015F90022F5
:1042700004F1880023461A605A60083383424FF0E5
:104280000001F8D11E481F4A0368DFF890E01E4F76
:104290001E4D1F4EDFF88880DFF888C0DFF8889059
:1042A00043F48023036013681A4843F0407313609B
:1042B000C4F307238EF80030C4F307433B70240E89
:1042C000FF2302F5C9222C7002F5847288F80030B1
:1042D000114D8CF800303370012389F800307026BE
:1042E0008EF864104FF40014102107F82C3C2E7047
:1042F000046011700EF1640EBDE8F8830000FF1F2A
:104300003480044000D80040B0200740B42007406B
:104310001020074004E100E035E400E09C20074065
:1043200080200740882007409420074072B60D483F
:104330000268B2FA82F30B2B10DC4FF00041D94037
:1043400022EA0102026062B6074803EBC303DB0006
:10435000C2180021C15010465160704762B600205B
:10436000704700BF0007FF1F9803FF1F0D4B0E4A49
:10437000C31AA2FB03231B090B2B0CD80B4A127880
:1043800052B972B60A484FF00041026821FA03F3AD
:104390001A43026062B67047064A1278002AF0D0CB
:1043A000FFF7B2BA9803FF1F398EE3385510FF1F8D
:1043B0000007FF1F6010FF1F30B42948294A2A4B0D
:1043C0002A4D6024E121047011701B78284C082BC1
:1043D00030D00A2B2748284937D00C2B0CBF352268
:1043E0005D2212232A60236002600B60234B244964
:1043F0001B78244ABBB101230B601360224B234975
:104400001B78234A012B26D9042B0FD9082B1ED940
:10441000102B94BF862387230B6013601D4B012252
:104420001A7030BC70470B601360E7E784230B60A1
:104430001360F3E700F58E200F4908302122132383
:104440002A60236002600B60D0E73922F7E78523FA
:104450000B601360E2E780230B601360DEE700BFB0
:1044600000400740014007400407FF1F08B0034019
:104470000CB0034008B00B400CB00B406910FF1F9C
:1044800020B0034020B00B400507FF1F24B00340BD
:1044900024B00B406810FF1F72B6184A184B194918
:1044A0001160702280211A701A46197013781B0649
:1044B000FCD510B5144B84B0186862B6134B144C7D
:1044C000984298BF00EB800001A998BF40000A22E3
:1044D00000F020F801A92046002311F8012B013338
:1044E0003AB10A2B20F8022FF7D11623237004B01B
:1044F00010BD5B00DBB2237004B010BD04000240AD
:1045000000000240000007410C0002407F96980026
:104510009407FF1FF0B44D1E2E46002400E0013426
:10452000B0FBF2F302FB1300092800F130078ABF49
:104530003730F8B2C0B206F8010F1846002BEED1A2
:104540000A1953704CB1107815F8016F28700133B7
:10455000E01A834202F80169F5DB0846F0BC7047B7
:1045600001210D20FFF7B4B8074B1B689B0605D44B
:10457000064B20221A603220FFF7B0B8044B2022ED
:104580001A603220FFF7AAB890F00F4084F00F4075
:1045900088F00F4070B50F4E0F4D761BB61018BF48
:1045A000002405D0013455F8043B9847A642F9D1C0
:1045B0000A4E0B4D761B00F067FBB61018BF0024A7
:1045C00006D0013455F8043B9847A642F9D170BD96
:1045D00070BD00BF944C0000944C0000B84C00002B
:1045E000944C0000FFFFFFFFFFFFFFFFFFFFFFFFF7
:1045F000FFFFFFFFFFFFFFFFFFFFFFFFFFFFFFFFCB
:1046000090F800F06DE9024520F007016FF0000C12
:1046100010F0070491F820F040F049804FF00004BA
:104620006FF00700D1E9002391F840F000F1080095
:1046300082FA4CF2A4FA8CF283FA4CF3A2FA8CF3CD
:104640004BBBD1E9022382FA4CF200F10800A4FA34
:104650008CF283FA4CF3A2FA8CF3E3B9D1E9042388
:1046600082FA4CF200F10800A4FA8CF283FA4CF3BF
:10467000A2FA8CF37BB9D1E9062301F1200182FA79
:104680004CF200F10800A4FA8CF283FA4CF3A2FA7F
:104690008CF3002BC6D0002A04BF04301A4612BA8D
:1046A000B2FA82F2FDE8024500EBD2007047D1E990
:1046B000002304F00305C4F100004FEAC50514F01F
:1046C000040F91F840F00CFA05F562EA05021CBFF0
:1046D00063EA050362464FF00004A9E7024B13B1F9
:1046E000024800F005B8704700000000FD460000D9
:1046F000002301461A46184600F014B838B5074D95
:10470000074C2C1BA41005D0013C55F8043D9847DC
:10471000002CF9D1BDE8384000F0CEBA000000000E
:10472000000000002DE9F047254C2568D5F84841E8
:104730000646884692469946C4B360681F2817DC2F
:10474000431C76B104EB80050122C5F888A0D4F89B
:10475000881182401143022EC4F88811C5F80891CF
:104760001ED00230636044F820800020BDE8F0874E
:10477000144B03B34FF4C870AFF300800446D0B1BC
:10478000D5F84831002780E88800C5F84841384608
:104790000123C4F88871C4F88C71002EE1D0D1E7F0
:1047A000D4F88C110A43C4F88C21DAE705F5A67415
:1047B000C5F84841C1E74FF0FF30BDE8F08700BFC2
:1047C000844C000000000000000000000000000019
:1047D000092D00002D2D0000C12D0000BD2D000071
:1047E000B92D0000B52D0000812D0000952D000091
:1047F0007D2D0000752D00006D2D0000652D000041
:10480000552D0000452D0000412D00003D2D0000DC
:10481000DD2C0000E52C0000ED2C0000F52C000044
:10482000152D0000FD2C000000000000000000001D
:10483000F12D0000152E0000A92E0000A52E00006D
:10484000A12E00009D2E0000692E00007D2E00008C
:10485000652E00005D2E0000552E00004D2E00003C
:104860003D2E00002D2E0000292E0000252E0000D8
:10487000CD2E0000ED2E00000D2F0000AD2E00000B
:10488000FD2D0000E52D00000000000000000000EC
:10489000592F00007D2F0000113000000D30000066
:1048A0000930000005300000D12F0000E52F000086
:1048B000CD2F0000C52F0000BD2F0000B52F000038
:1048C000A52F0000952F0000912F00008D2F0000D4
:1048D0003530000055300000753000001530000004
:1048E000652F00004D2F00000000000000000000B8
:1048F000C1300000E5300000793100007531000062
:10490000713100006D310000393100004D3100007F
:10491000353100002D310000253100001D3100002F
:104920000D310000FD300000F9300000F5300000CE
:104930009D310000BD310000DD3100007D310000FF
:10494000CD300000B5300000000000000000000085
:10495000293200004D320000E1320000DD3200005B
:10496000D9320000D5320000A1320000B53200007B
:104970009D320000953200008D320000853200002B
:104980007532000065320000613200005D320000C7
:10499000053300002533000045330000E5320000F8
:1049A000353200001D320000000000000000000051
:1049B00091330000B5330000493400004534000055
:1049C000413400003D340000093400001D34000073
:1049D00005340000FD330000F5330000ED33000026
:1049E000DD330000CD330000C9330000C5330000C3
:1049F0006D3400008D340000AD3400004D340000F3
:104A00009D3300008533000000000000000000001E
:104A10000935000001350000FD340000F9340000C4
:104A2000F5340000F1340000ED3400004008FE438E
:104A300040A004404408FE4344A004400018FE4344
:104A400000C004403000FE43309004403400FE4378
:104A5000349004401C18FE431CC004401018FE4350
:104A600010C004400818FE4308C004400C18FE4360
:104A70000CC004400C10FE430CB004401010FE4368
:104A800010B004401810FE4318B004401C10FE4340
:104A90001CB004401410FE4314B004400418FE433C
:104AA00004C004400010FE4300B004400008FE4370
:104AB00000A004400408FE4304A004400C08FE4388
:104AC0000CA004400808FE4308A004401418FE434C
:104AD00014C004401818FE4318C004400410FE43DC
:104AE00004B004400810FE4308B004406820FE43B0
:104AF00068D004401400FE43149004403800FE4384
:104B0000389004403C00FE433C9004404000FE438B
:104B1000409004404808FE4348A004404C08FE432F
:104B20004CA004402808FE4328A004402C08FE4363
:104B30002CA004406020FE4360D004406420FE436B
:104B400064D004402010FE4320B004402410FE43F3
:104B500024B004402810FE4328B004402C10FE432B
:104B60002CB004404400FE43449004407000FE43D7
:104B7000709004407400FE43749004406800FE434B
:104B8000689004405008FE4350A004405808FE437B
:104B900058A004405C08FE435CA004405408FE4357
:104BA00054A004402018FE4320C004402418FE43B3
:104BB00024C004401008FE4310A004401408FE4323
:104BC00014A004403818FE4338C004403418FE4393
:104BD00034C004403018FE4330C004403C18FE434B
:104BE0003CC004402C18FE432CC004402820FE4347
:104BF00028D004402C20FE432CD004400020FE434B
:104C000000D004400420FE4304D004400820FE43AA
:104C100008D004400C20FE430CD004401020FE437A
:104C200010D004401420FE4314D004400015191580
:104C3000000100000807FF1F120000000002000032
:104C40003407FF1F43000000000300009007FF1F10
:104C500000000000010309041C07FF1F0000000002
:104C6000020309047807FF1F000000000303090482
:104C70009407FF1F0000000000000000000000007B
:104C800000000000B007FF1FF8B500BFF8BC08BC6B
:104C90009E467047DD46000035040000C92D000027
:104CA000312F00009930000001320000693300000C
:084CB000D134000015350000AD
:044CB800F8B500BF8C
:104CBC0001090A081F202130FFFFFFFF0A04000032
:104CCC001201010102000040C0168304000201021F
:104CDC000301000018035400650065006E007300AA
:104CEC0079006400750069006E006F0009024300D2
:104CFC00020100C032090400000102020100052477
:104D0C0000100105240101010424020605240600FB
:104D1C00010705820310004009040100020A00008B
:104D2C000007050302400000070584024000000054
:104D3C00160355005300420020005300650072001A
:104D4C00690061006C000000040309040C030000FE
:104D5C000000000000000000000000000000000047
:104D6C000000000000000000000000009C0AFF1F73
:104D7C00040BFF1F6C0BFF1F000000000000000065
:104D8C000000000000000000000000000000000017
:104D9C000000000000000000000000000000000007
:104DAC0000000000000000000000000000000000F7
:104DBC0000000000000000000000000000000000E7
:104DCC0000000000000000000000000000000000D7
:104DDC0000000000000000000000000000000000C7
:104DEC0000000000000000000000000000000000B7
:104DFC0000000000000000000000000000000000A7
:104E0C000000000000000000000000000000000096
:104E1C0001000000000000000E33CDAB34126DE633
:104E2C00ECDE05000B00000000000000000000009C
:104E3C000000000000000000000000000000000066
:104E4C000000000000000000000000000000000056
:104E5C000000000000000000000000000000000046
:104E6C000000000000000000000000000000000036
:00000001FF
