:1000000000800020BD010000A10700006D07000076
:100010006D0700006D0700006D0700006D07000010
:100020006D0700006D0700006D070000A1070000CC
:10003000A10700006D070000A10700005D07000098
:10004000A1070000A1070000A1070000A107000010
:10005000A1070000A1070000A1070000A107000000
:10006000A1070000A1070000A1070000A1070000F0
:10007000A1070000A1070000A1070000A1070000E0
:10008000A1070000A1070000A1070000A1070000D0
:10009000A1070000A1070000A1070000A1070000C0
:1000A000A1070000A1070000A1070000A1070000B0
:1000B000A1070000A1070000A1070000A1070000A0
:1000C000A1070000A1070000A1070000A107000090
:1000D000A1070000A1070000A1070000A107000080
:1000E000A1070000A1070000A1070000A107000070
:1000F000A1070000291B0000A1070000890E0000D5
:10010000A1070000F51E0000A1070000A1070000E4
:10011000A1070000A1070000A1070000A10700003F
:10012000A1070000A1070000A1070000A10700002F
:10013000A1070000A1070000A1070000A10700001F
:10014000A1070000A1070000A1070000A10700000F
:10015000A11F0000B91F0000D11F0000E91F00000F
:10016000A107000005110000A1070000A107000081
:10017000A1070000A1070000A1070000A1070000DF
:10018000A1070000A1070000A1070000A1070000CF
:10019000A1070000A1070000A1070000A1070000BF
:1001A000A1070000A1070000A1070000A1070000AF
:1001B000A1070000A1070000C9200000554B4CF228
:1001C000205210B51A804DF628121A8000BF00BFC9
:1001D00000F0EAFA504B4FF010621A604F4A9A60F2
:1001E0004F4ADA60A3F53043203B1A6812F480725C
:1001F00004D14C490A604FF4A8521A604A4B1A784D
:10020000110703D51A7842F008021A70474B2A22C8
:100210001A700023464A47499818884204D2464932
:10022000595899500433F5E7444A454B9A424FF0E8
:10023000000302D242F8043BF7E74249424A5958C8
:1002400099500433B3F5DE7FF7D1404B802103F89A
:10025000011B3F498B42F9D13E4B1A603E4B0A22AB
:100260001A70A3F6FF7324221A70A02203F8012C3F
:100270003A4B1A789207FBD51A78D406FCD41A7830
:1002800002F00C02082AFAD1354B03221A704022E0
:100290005A70324B1A789006FBD51A785106FCD565
:1002A000304B314A1A6002225A60304B20221A70B9
:1002B0002A4B1B7803F00C030C2BF9D12C4B2D4A45
:1002C0001A602D4B2D4A1A60072243F8042C62B69F
:1002D00000F0B0FB134B1B68DA0705D5284800F087
:1002E0001DFB284B284A1A60284B1B785B0609D552
:1002F000244C254A2368934204D1214800F00EFB88
:100300000023236002F026F900F054FA01F0B3FE56
:10031000FEE700BF0E20054030800440823F04000D
:100320000100002B14D0034002D0074000E007403A
:100330006087FF1F0888FF1F502800000888FF1FE4
:10034000208BFF1F000000000082FF1F00E400E080
:100350005FE400E008ED00E0005006400640064083
:100360000440064044800440000003010040064071
:1003700004800440C010050014E000E0FF76010096
:1003800000DD68501CE00340A5C3945A00F007400C
:10039000FFFFFFFFFFFFFFFFFFFFFFFFFFFFFFFF6D
:1003A000FFFFFFFFFFFFFFFFFFFFFFFFFFFFFFFF5D
:1003B000FFFFFFFFFFFFFFFFFFFFFFFFFFFFFFFF4D
:1003C000FFFFFFFFFFFFFFFFFFFFFFFFFFFFFFFF3D
:1003D000FFFFFFFFFFFFFFFFFFFFFFFFFFFFFFFF2D
:1003E000FFFFFFFFFFFFFFFFFFFFFFFFFFFFFFFF1D
:1003F000FFFFFFFFFFFFFFFFFFFFFFFFFFFFFFFF0D
:10040000FFFFFFFFFFFFFFFFFFFFFFFFFEFFFFFFFD
:1004100010B5054C237833B9044B13B10448AFF33E
:1004200000800123237010BD0888FF1F000000001A
:100430005028000008B5064B1BB106480649AFF32B
:1004400000800648036813B1054B03B1984708BD07
:1004500000000000502800000C88FF1F0888FF1FC4
:100460000000000010B5104C23686BB12068428872
:10047000531C0244147A0288934212D300F026F9E6
:10048000094B00221A600DE0084B1B7813B94FF09E
:10049000FF3010BD032000F08BFD20600028E5D167
:1004A000F5E74380204610BD3088FF1F8F89FF1F6E
:1004B00010B50B4C236813B123686BB902E0094BEC
:1004C0001B7813B94FF0FF3010BD032000F070FD12
:1004D00020600028F0D1F5E75A881344187A10BD3F
:1004E0003088FF1F8F89FF1F044B9888044B1B68BF
:1004F0001BB11A885B88D31A18447047188BFF1FEA
:100500003088FF1F2DE9F8432D4E012307460C4686
:100510003370002C4FD02B4D2B68A9462BBB4AF2D1
:10052000F928294B1B7803F0FF020BB9327015E054
:10053000042000F059FD072808D80123337000F08B
:10054000A7F8C9F8000080B91D4B1870B8F1010870
:100550001E4B01D01A782AB101221A704FF0FF30D9
:10056000BDE8F88301F090FDDBE72968174A488869
:1005700000231370C0F14002944238BF224600F1BC
:10058000080C10448C444880A41A934204D0F85CB0
:100590000CF803000133F8E71F444B883F2B06D9C2
:1005A00040230B80042000F06DFD00232B60084BDE
:1005B00005221A70ADE734702046BDE8F88300BF0D
:1005C0002588FF1F2888FF1F8F89FF1F2C88FF1F8A
:1005D0002488FF1F07B502AB012103F8010D18465F
:1005E000FFF790FF03B05DF804FBFFFF2DE9F0413A
:1005F000114B1B78F3B1114E114B3468114D01278B
:100600001F7098464CB1002763882F700420238008
:10061000214600F037FD376009E000F039F8014667
:1006200020B104202C7000F02DFD00E02F7000237D
:1006300088F80030BDE8F0818F89FF1F2888FF1FF0
:100640002588FF1F2488FF1F38B50E4B1B7803F049
:10065000FF05ABB90C4C216831B14B880B800420ED
:1006600000F010FD256038BD00F012F8014620B101
:100670000420BDE8384000F005BD044B01221A708B
:1006800038BD00BF2588FF1F2888FF1F2488FF1F53
:1006900072B60C4A1168B1FA81F30B2B02D962B61B
:1006A000002070474FF00040D84021EA000111605F
:1006B00062B6054948225343C8180022CA50426016
:1006C000704700BF6487FF1F0084FF1F0C4B482248
:1006D000C31AB3FBF2F30B2B11D80A4A127822B1DA
:1006E000094A12780AB100F091BC72B6074A4FF07D
:1006F000004121FA03F311681943116062B6704793
:100700000084FF1F8689FF1F8F89FF1F6487FF1FDB
:100710000023C25C0AB10133FBE71846704710B5ED
:100720000023B0FBF2F402FB1400092894BF303020
:100730003730C0B2C85420460CB10133F1E7CA18B3
:10074000547022469A4206DA885CCC5C8C54C854B9
:100750000132013BF6E7084610BDFFFF024B1A6865
:1007600001321A60704700BF3888FF1F08B50B4C74
:100770002368580301D500F0C5FC2368590501D54D
:1007800001F0D2F923681A0501D500F07DFB23683A
:10079000DB04ECD501F0AEFBE9E700BF3480044098
:1007A00008B5FFF7E3FFFFFF014B10221A807047E7
:1007B000002005407047FFFFEFF313839BB9EFF371
:1007C000108098B9EFF3058323B10F2B04D9084AA1
:1007D000985C01E04FF48070EFF311833BB18342EA
:1007E00038BF184670474FF0FF30704718467047C3
:1007F000F0E300E010B5204B2048214960221A7038
:10080000E1225A701F4B204A1C78204B082C01D142
:10081000012402E00A2C03D139240460132005E0EE
:100820000C2C0CBF35243D24046012200860146099
:100830001860174B17491B78174A03B101230B6047
:100840001360164B164A1978164B012901D88021DE
:100850000BE0042901D8842107E0082901D885216B
:1008600003E0102994BF86218721116019600E4B87
:1008700001221A7010BD00BF0040074008B00340BD
:100880000CB003406887FF1F08B00B400CB00B4052
:100890003688FF1F20B0034020B00B406987FF1F40
:1008A00024B0034024B00B403588FF1F1FB572B63B
:1008B000154B70221A70154A412111700F2102F850
:1008C000011C80221A701A781206FCD5104B186889
:1008D00062B6104B984298BF0A2301AC98BF5843A8
:1008E00021460A22FFF71BFF0023E15C0A4A29B1D7
:1008F00002EB430001330A2B4180F6D101335B0048
:10090000137004B010BD00BF000002400700024099
:10091000080002407F969800F287FF1F044B0549AC
:1009200000221A600A60044A106010221A607047A0
:1009300014D0034004D0034000D00340212810B558
:1009400018D80D4A52F8303093F880423CB1012259
:1009500011B183F8802010BD83F8002110BD02EB97
:10096000C00043681A6811B142F0030201E022F0AE
:1009700002021A6010BD00BFF8250000212806D829
:10098000044B53F8303093F80002C0B27047002097
:10099000704700BFF8250000212816D80B4A02EB4B
:1009A000C00301295B6852F8302004D182F880121C
:1009B0004FF4A27208E0002082F8800211B94FF4CF
:1009C000807201E040F203121A607047F8250000BF
:1009D00072B60B4B0B491A680B4B1B68096862B661
:1009E000490102D5322A88BF0133C2F5BB326021EA
:1009F000FF32B2FBF1F24FF47A7000FB0320704734
:100A000018E000E004ED00E03888FF1F38B5044628
:100A1000FFF7DEFF054664B1FFF7DAFF401BB0F5D4
:100A20007A7F03D3013C04D005F57A7501F02CFBE5
:100A3000F2E738BD1F4B4FF4000210B51A604FF0BB
:100A400080721A604FF000721A604FF080621A6074
:100A50004FF000621A60184B184A194C00204BF6F0
:100A6000FF711860596028231360936013619361CC
:100A700013629362136393630922226004F5805426
:100A8000043420606160A360236144F8042C04F501
:100A9000FE2420600B4801600B490B608B600B4B00
:100AA0001A60FFF7A7FE0420FFF7B0FFBDE8104073
:100AB00000F01EBE08E100E0048003400C8003400B
:100AC0000080034008800B400C800B4000800B40EE
:100AD000194B1A6842F400621A60184A0023137016
:100AE000174A1370174A1370174A1370174A137076
:100AF000174B40F213321A604FF451725A60154B83
:100B0000C0F344321A70C0F347125A7000F01F004D
:100B10000422022198729A70D9745A7588221A7424
:100B20003C22DA700C4B40221A70A3F22B334FF4A4
:100B300000421A60704700BF34800440A688FF1F3F
:100B40003D88FF1FAC88FF1FA788FF1F3C88FF1F41
:100B50000CB0044000B006402FE400E0134A937844
:100B600000F0030103F0EC030B43410748BF43F0DF
:100B70001003937000F00F03042B0C4903D18B7901
:100B800043F040038B715379C20603F0EF03074A29
:100B900048BF43F0100353719379810603F0EF03CC
:100BA00048BF43F010039371704700BF00B0064088
:100BB00008B50E4B1B681B0500D408BD0C4B1A78FA
:100BC00002F0FF0312B101F05FFAF7E7094A4FF4B0
:100BD00000411160084A0949D37040F203120A60CB
:100BE0004A60074A1370074A137008BD34800440F6
:100BF0003C88FF1F84E100E000B006400CB00440D8
:100C0000A688FF1F3D88FF1F38B50446094B1B7897
:100C100003F0FF05002BF9D120460121FFF7BCFEB0
:100C200020462946FFF78AFE034B53F83420034B36
:100C30001A6038BD3C88FF1FF8250000A888FF1FF8
:100C4000F8B51D4B1B681A05064633D51B4B1B68B0
:100C50000BB101221A701A4B1C780134282C1F4644
:100C600028BF0024174D2B78A34218D1FFF7A4FD0D
:100C700040280FDC144A13791B06F3D52B7813494F
:100C80000133282B28BF0023C95CDBB2C9B2D17164
:100C90002B70E7E7FF28E5DD01F0F6F9E2E70B4B03
:100CA000F6B21E550A4B01221A70074BE4B2BC2261
:100CB0003C70DA70F8BD00BF34800440A888FF1F84
:100CC000AC88FF1FA788FF1F00B006403E88FF1FAB
:100CD0003C88FF1F274B1B681A052DE9F047074684
:100CE0008A4644D5244B1B680BB101221A703D463D
:100CF00007EB0A039D4237D2DFF890801F4E98F829
:100D0000004096F800900134282C28BF00245FFA98
:100D100089F9A1451DD11A4BBC22DA70FFF74CFDB1
:100D200040280FDC164A13791B060FD53378154976
:100D30000133282B28BF0023C95CDBB2C9B2D171B3
:100D4000337003E0FF2801DD01F09EF933784B4555
:100D5000E4D00C4B15F8012B1A550B4B0122E4B2D1
:100D60001A7088F80040C3E7054BBC22DA70BDE872
:100D7000F08700BF34800440A888FF1FA788FF1FAA
:100D800000B006403E88FF1F3C88FF1FAC88FF1F55
:100D900008B5034B1B7813B101F076F9F9E708BDEC
:100DA0003C88FF1F064A074B1B781078DBB2C0B2A5
:100DB00083422CBF273000F1FF30C01A704700BFBC
:100DC000A788FF1FAC88FF1F054B1878054B1B78C1
:100DD000C0B2DBB2984238BF4030C01A704700BF83
:100DE000A688FF1F3D88FF1F094B0A4A1978137810
:100DF000DBB2994208D00133402B28BF00230649BB
:100E0000C85CDBB2137070474FF0FF30704700BF13
:100E1000A688FF1F3D88FF1F6688FF1F084B1A78B2
:100E2000084B1B78DBB29A4207D00133402B28BF16
:100E30000023054AD05CC0B270474FF0FF307047C6
:100E4000A688FF1F3D88FF1F6688FF1F0A4B1B688F
:100E50001B050FD5094BDA7802F0CB02DA7040227D
:100E60005A74DA7842F03402DA70054B1A78054B7E
:100E7000D2B21A70704700BF3480044000B0064000
:100E80003D88FF1FA688FF1F30B5304B1A7912F03E
:100E9000300F23D072B69A7D02F0FF0122B9DA79C1
:100EA00040225A7462B619E062B6294B29481A7872
:100EB0000478D2B2E4B21846244BDD79531C402B9F
:100EC00028BF0023A342EDB202D0234AD5541A46CC
:100ED0004B1E13F0FF01EFD1D2B202701B4BD97839
:100EE000C9B20C0620D51B7918061DD51B4B1C4A10
:100EF0001D781378EDB2DBB21046AB420CD0134A2A
:100F00000133282B1479174C28BF0023E45CE4B28A
:100F1000D471127D072AF0D9DBB203700B4B1A791A
:100F2000120644BF7C22DA704B060ED5074B1A79A5
:100F300012F0400F194608D00B4B00221A700B4BD1
:100F40001B6803B11A703C23CB7030BD00B0064063
:100F5000A688FF1F3D88FF1F6688FF1FAC88FF1F04
:100F6000A788FF1F3E88FF1F3C88FF1FA888FF1F20
:100F7000F0B50C4B0C4C1A7842F0020504EBC50698
:100F800082F00102706009481A700678002E0CBFCA
:100F90008827C82786F0010647EA0141067044F811
:100FA0003510F0BD1889FF1F0080FF1F9089FF1FBB
:100FB000431E032B10B510D872B6094A52F823000D
:100FC00048B1416842F82310064A018832F81340BC
:100FD000611A22F8131062B610BD002010BD00BFC8
:100FE0000889FF1F188BFF1F013803280AD872B623
:100FF000054B53F82030002013B101305B68FBE74C
:1010000062B67047002070475C89FF1F10B572B64A
:101010000123174A1A4412F8012C12071CD5990013
:10102000144A52F831402CB902EB4313083058608F
:10103000114B09E041F0010152F8314064B902EB73
:10104000C103083058600D4B42F831300C4B1A7810
:10105000013A1A7062B610BD0133052BD9D162B6C0
:10106000074B00221A70BDE81040FFF72FBB00BFEE
:10107000A02500000080FF1F88004000C80040003D
:101080008689FF1F431E032B30B532D8194A400111
:1010900040F01000104472B6174CE25C032A09D8E5
:1010A000DFE802F0160218050830022213E00830CB
:1010B000042210E01148124A50F8234014B940F8B5
:1010C000231002E052F82300416042F823100FE0A1
:1010D000032200E00522E25410F0080F01F108039A
:1010E0000A8843600CBF8823C82343EA0243036095
:1010F00062B630BD0080FF1FC488FF1F5C89FF1FE0
:101100006C89FF1F2DE9F84FAB4F3C78E4B214F027
:10111000040F3D4619D0A94B1B78A3B1A84A1178FA
:1011200001F0FF0321B1013BDBB2137003B900BE34
:10113000A44A117801F0FF0329B1013BDBB213701F
:101140000BB9FFF781FA04233B7004F0080303F0A6
:10115000FF02002B00F063829B4B9C4C1A78D2B2AA
:1011600015094FEA920840F0E08104EBC803596882
:1011700054F83830C3F38303013B0C2B00F2D281C7
:10118000DFE813F091019101D001D001D001D0012D
:10119000D001D001AC01D001D001D0010D008C4DA7
:1011A0000A684B688B486B6001218B4B44F83830E0
:1011B0002A60DFF85082017092B240F28160002311
:1011C0008242C8F800302361A36117D8B2F5D06F0E
:1011D00080F01E81B2F5817F00F0CF8006D8802A92
:1011E00000F0BA80822A00F0BB802DE140F2023389
:1011F0009A4200F0D180B2F5A06F1CE042F22100CB
:10120000824200F04D810ED8B2F5086F00F09E804A
:10121000B2F5106F40F01881684B6C4EAA781A70C6
:1012200006F180090AE042F221218A4200F0088199
:1012300042F221339A4200F00B8105E1336A1B062A
:1012400003D5706A0838FFF741FA08364E45F5D1E4
:101250000026B146DFF8B0A156F80A0028B1D0F850
:1012600004B0FFF733FA5846F8E74AF806005B4B3C
:10127000DFF898A1F05056F80A0028B1D0F804B071
:10128000FFF724FA5846F8E7554B4AF80600F050A5
:10129000544B23F81900544B19F80320023A032A3F
:1012A00008D8DFE802F002040204002200E0012274
:1012B00003F8092009F10109B9F1040F06F1040648
:1012C000C8D14A4B00221A7001269A46484A494B17
:1012D0003244334412F8012C9B0012F0080F1A70AC
:1012E0004FEA860925D0FFF7D3F938B104EB46134E
:1012F00008305860404B44F8393006E09AF8003026
:1013000044F8390001338AF80030FFF7C1F949F099
:10131000010338B104EBC302083050602E4A44F890
:10132000332006E044F833009AF8003001338AF89D
:10133000003049F00202013649F003090023052E6E
:1013400044F8323044F83930C0D182E01B4B2B4C8A
:101350001B7823700B467FE0284C237063707AE083
:10136000AA88042A70D8254C920023706370244BFD
:101370009B5C9E076FD521706DE0AA8802F07F0309
:10138000042B61DC6B88002B5ED191001C4A0A445F
:10139000117821F0020155E0AA8802F07F03042BA6
:1013A00052DC6B88002B4FD19100154A0A4411780A
:1013B00041F0020146E000BF802007408F89FF1FF7
:1013C0001989FF1F2488FF1F902007400080FF1FFE
:1013D0007C89FF1F9089FF1FC8004000B488FF1F51
:1013E0006C89FF1F188BFF1FC488FF1F8689FF1F92
:1013F000A025000030C80110880040008789FF1F29
:10140000C0200740B088FF1F0889FF1F5C89FF1FAD
:101410006A88A9889D4B53F8084CA3F10C009CB135
:1014200033F80C6C964209D133F80A6C8E4205D120
:10143000120A032A0CBF237803890DE00C33EAE774
:10144000A978934A117004E0924B0F221A7027E09A
:1014500000231C4600E00223EE88B34238BF1E463C
:10146000402E34BF3546402520462946FFF780FDF3
:10147000761B2C4403D1402D12D1354603E0402E7B
:1014800034BF3546402520462946FFF771FD761BBF
:101490002C4401D1402D03D17F4AC8F8004016806A
:1014A00001227E4B3DE07E4B1A8842F221039A4294
:1014B00010D100237B4AC85C98540133072BF9D123
:1014C0001368862B02D1784B0F221A700020014638
:1014D000FFF74EFD754B44F8383023E0744E356805
:1014E000B5B1DFF8B481B8F80090B9F1400F34BF5E
:1014F0004C46402428462146FFF73AFDC4EB090339
:101500009BB2A8F800300BB9402C00D12B193360E6
:10151000634B1A88B2F5A06F04D100225A709A78F2
:10152000644B1A7001225D4B6CE004EBC806013D70
:10153000736802F00802A3F10800EDB202F0FF01A7
:10154000002A36D0FFF7C2F85B485C4B50F82520E4
:10155000EAB1516840F8251002F108017160595D47
:1015600003290BD8DFE801F002040608032104E098
:10157000022102E0052100E00421595516F0080F70
:1015800012880CBF8823C82343EA024342E05A5D15
:10159000032A07D8DFE802F040400204002206E0F8
:1015A000012204E016F0080F0CBF022203225A5554
:1015B00032E054F83820120C23F8082C22B3DFF85C
:1015C0002CE123F8061C43F8041C5EF825303C4946
:1015D00013B94EF8250002E051F825305860394B18
:1015E00041F8250033F815100A4423F81520FFF7B9
:1015F0004FF810B10830706006E0334B44F8380003
:101600001A7801321A7007E0284B304A16F0080F9A
:1016100008BF134644F8383008233B7074E5E007F0
:101620001FD51E4929482A4C02230B70294B1A70DA
:10163000294B186098602948D8601A619A615C60EB
:10164000144B0D2018702648FF2303702B70027472
:10165000244A1370244B9F221A7001230B70BDE89B
:10166000F88F210604D50B4B0D221A7080232B70A6
:10167000A20705D51A4B1A78D2B21A7002232B7022
:10168000E30644BF10232B70BDE8F88FB02500009F
:101690003488FF1FC02007408489FF1F9420074023
:1016A0007C89FF1F108BFF1F1989FF1FC800400096
:1016B000B088FF1F982007405C89FF1FC488FF1F68
:1016C000B488FF1F188BFF1F8689FF1F880040000A
:1016D000C888FF1F1889FF1F0080FF1F1C89FF1F7C
:1016E000882007408C200740842007400889FF1F7E
:1016F00008B5FFF7DBF800221A4B0021D1509818EB
:101700000832882A4160F7D1174A106840F48020D7
:10171000106002F528326832C3F307201070C3F35B
:1017200007401B0E10751376FF2302F81C3C02F8CD
:10173000143C02F88C3C012302F8083C82F8641047
:1017400002F8183C094B70226FF450711A700B4468
:101750004FF400721A6003F1C04303F5C82310224E
:101760001A7008BD0080FF1F3480044049E400E087
:10177000194B1A6842F480621A60184A00231370E9
:10178000174A1370174A1370174A1370174A1370C9
:10179000174B40F213321A604FF451725A60154BD6
:1017A000C0F344321A70C0F347125A700221042267
:1017B00000F01F0098729A70D9745A7588221A74B2
:1017C0003C22DA700C4B40226FF44A711A700B44C1
:1017D0004FF400521A60704734800440138AFF1F90
:1017E0009289FF1F1C8AFF1F148AFF1F9189FF1F08
:1017F00040A0044000A006402DE400E0134A937886
:1018000000F0030103F0EC030B43410748BF43F032
:101810001003937000F00F03042B0C4903D18B7954
:1018200043F040038B715379C20603F0EF03074A7C
:1018300048BF43F0100353719379810603F0EF031F
:1018400048BF43F010039371704700BF00A00640EB
:1018500008B50E4B1B685B0500D408BD0C4B1A780D
:1018600002F0FF0312B100F00FFCF7E7094A4FF452
:1018700000511160084A0949D37040F203120A600E
:101880004A60074A1370074A137008BD3480044049
:101890009189FF1F84E100E000A0064040A00440C1
:1018A000138AFF1F9289FF1F38B50446094B1B7826
:1018B00003F0FF05002BF9D120460121FFF76CF85A
:1018C00020462946FFF73AF8034B53F83420034BE0
:1018D0001A6038BD9189FF1FF8250000188AFF1F84
:1018E000F8B51D4B1B685A05064633D51B4B1B68C4
:1018F0000BB101221A701A4B1C780134402C1F4680
:1019000028BF0024174D2B78A34218D1FEF754FFAF
:1019100040280FDC144A13791B06F3D52B781349A2
:101920000133402B28BF0023C95CDBB2C9B2D1719F
:101930002B70E7E7FF28E5DD00F0A6FBE2E70B4BA5
:10194000F6B21E550A4B01221A70074BE4B2BC22B4
:101950003C70DA70F8BD00BF34800440188AFF1F65
:101960001C8AFF1F148AFF1F00A006409389FF1FD7
:101970009189FF1F274B1B685A052DE9F047074641
:101980008A4644D5244B1B680BB101221A703D4690
:1019900007EB0A039D4237D2DFF890801F4E98F87C
:1019A000004096F800900134402C28BF00245FFAD4
:1019B00089F9A1451DD11A4BBC22DA70FEF7FCFE55
:1019C00040280FDC164A13791B060FD533781549CA
:1019D0000133402B28BF0023C95CDBB2C9B2D171EF
:1019E000337003E0FF2801DD00F04EFB33784B45F8
:1019F000E4D00C4B15F8012B1A550B4B0122E4B225
:101A00001A7088F80040C3E7054BBC22DA70BDE8C5
:101A1000F08700BF34800440188AFF1F148AFF1F1C
:101A200000A006409389FF1F9189FF1F1C8AFF1F9A
:101A300008B5034B1B7813B100F026FBF9E708BD8E
:101A40009189FF1F064A074B1B781078DBB2C0B2A2
:101A500083422CBF3F3000F1FF30C01A704700BFF7
:101A6000148AFF1F1C8AFF1F054B1878054B1B7833
:101A7000C0B2DBB2984238BF4030C01A704700BFD6
:101A8000138AFF1F9289FF1F094B0A4A197813789E
:101A9000DBB2994208D00133402B28BF002306490E
:101AA000C85CDBB2137070474FF0FF30704700BF67
:101AB000138AFF1F9289FF1FD389FF1F084B1A78D3
:101AC000084B1B78DBB29A4207D00133402B28BF6A
:101AD0000023054AD05CC0B270474FF0FF3070471A
:101AE000138AFF1F9289FF1FD389FF1F0A4B1B68B0
:101AF0005B050FD5094BDA7802F0CB02DA70402291
:101B00005A74DA7842F03402DA70054B1A78054BD1
:101B1000D2B21A70704700BF3480044000A0064063
:101B20009289FF1F138AFF1F30B5304B1A7912F0CC
:101B3000300F23D072B69A7D02F0FF0122B9DA7914
:101B400040225A7462B619E062B6294B29481A78C5
:101B50000478D2B2E4B21846244BDD79531C402BF2
:101B600028BF0023A342EDB202D0234AD5541A461F
:101B70004B1E13F0FF01EFD1D2B202701B4BD9788C
:101B8000C9B20C0620D51B7918061DD51B4B1C4A63
:101B90001D781378EDB2DBB21046AB420CD0134A7D
:101BA0000133402B1479174C28BF0023E45CE4B2C6
:101BB000D471127D072AF0D9DBB203700B4B1A796E
:101BC000120644BF7C22DA704B060ED5074B1A79F9
:101BD00012F0400F194608D00B4B00221A700B4B25
:101BE0001B6803B11A703C23CB7030BD00A00640C7
:101BF000138AFF1F9289FF1FD389FF1F1C8AFF1FB3
:101C0000148AFF1F9389FF1F9189FF1F188AFF1FE6
:101C1000174B1A6842F480521A60164A0023137058
:101C2000154A1370154A1370154A1370154A13702C
:101C3000154A40F2133111604FF451715160134A4B
:101C4000C0F344311170C0F3471100F01F00517010
:101C50009072937013742C23D3700D4B40226FF449
:101C60004B711A700B444FF400321A60704700BF7A
:101C700034800440878AFF1F1E8AFF1F908AFF1F3F
:101C8000888AFF1F1D8AFF1F08C0044000C006404D
:101C900031E400E0134A937800F0030103F0EC0311
:101CA0000B43410748BF43F01003937000F00F034C
:101CB000042B0C4903D18B7943F040038B7153798A
:101CC000C20603F0EF03074A48BF43F01003537105
:101CD0009379810603F0EF0348BF43F0100393713B
:101CE000704700BF00C0064008B50E4B1B68DB0400
:101CF00000D408BD0C4B1A7802F0FF0312B100F0BB
:101D0000C3F9F7E7094A4FF400311160084A09495D
:101D1000D37040F203120A604A60074A1370074A00
:101D2000137008BD348004401D8AFF1F84E100E069
:101D300000C0064008C00440878AFF1F1E8AFF1F9C
:101D400038B50446094B1B7803F0FF05002BF9D189
:101D500020460121FEF720FE20462946FEF7EEFD33
:101D6000034B53F83420034B1A6038BD1D8AFF1F04
:101D7000F82500008C8AFF1FF8B51D4B1B68DA049C
:101D8000064633D51B4B1B680BB101221A701A4B48
:101D90001C780134282C1F4628BF0024174D2B78AF
:101DA000A34218D1FEF708FD40280FDC144A13792E
:101DB0001B06F3D52B7813490133282B28BF0023AA
:101DC000C95CDBB2C9B2D1712B70E7E7FF28E5DD52
:101DD00000F05AF9E2E70B4BF6B21E550A4B01220E
:101DE0001A70074BE4B2AC223C70DA70F8BD00BF49
:101DF000348004408C8AFF1F908AFF1F888AFF1F4F
:101E000000C006401F8AFF1F1D8AFF1F38B5044609
:101E10004518AC4204D014F8010BFFF7ADFFF8E70A
:101E200038BDFFFF08B5034B1B7813B100F02CF948
:101E3000F9E708BD1D8AFF1F064A074B1B7810787B
:101E4000DBB2C0B283422CBF273000F1FF30C01A92
:101E5000704700BF888AFF1F908AFF1F054B1878C4
:101E6000054B1B78C0B2DBB2984238BF4030C01A75
:101E7000704700BF878AFF1F1E8AFF1F094B0A4A4F
:101E800019781378DBB2994208D00133402B28BF70
:101E900000230649C85CDBB2137070474FF0FF3077
:101EA000704700BF878AFF1F1E8AFF1F478AFF1FD8
:101EB000084B1A78084B1B78DBB29A4207D00133E3
:101EC000402B28BF0023054AD05CC0B270474FF0BA
:101ED000FF307047878AFF1F1E8AFF1F478AFF1F38
:101EE000024B1A78024BD2B21A7070471E8AFF1F3B
:101EF000878AFF1F10B5214B1A7992060FD5204A09
:101F0000D87913781F490133402B097828BF002363
:101F10008B42C0B203D01C49C854DBB21370174ABD
:101F2000D178C9B20C0616D51379180613D5174BFC
:101F300017481C780378DBB29C4202D16C23D37023
:101F400009E00133282B28BF0023124CE45CDBB2EC
:101F5000E4B2D47103704B060ED5084B1A7912F017
:101F6000400F194608D00C4B00221A700B4B1B680F
:101F700003B11A702C23CB7010BD00BF00C0064007
:101F8000878AFF1F1E8AFF1F478AFF1F908AFF1F35
:101F9000888AFF1F1F8AFF1F1D8AFF1F8C8AFF1F51
:101FA00008B5034B01221A60024B1B68984708BD15
:101FB0000C710340988AFF1F08B5034B01221A6079
:101FC000024B5B68984708BD1C710340988AFF1F4D
:101FD00008B5034B01221A60024B9B68984708BD65
:101FE0002C710340988AFF1F08B5034B01221A6029
:101FF000024BDB68984708BD3C710340988AFF1F7D
:10200000064B01221A6003F588333C331A6822F428
:1020100000021A60024B00221A70704700700340E1
:10202000958AFF1F8268002310B51360027B01218F
:10203000541102F01F0201FA02F2084941F824206B
:10204000074A41785354D15C31B90133042BFAD19A
:10205000BDE81040FFF7D4BF10BD00BF80E100E035
:10206000918AFF1F037810B504460BB1FFF7DAFF22
:102070000023237010BD08B500F042FA00F044FAC6
:1020800000F002F8FAE7FFFF10B50E4C2378BBB959
:1020900001232370FEF728FA08B100F032F9FFF7A8
:1020A000E3FC08B100F08AF9FEF78EFE08B100F0FB
:1020B00009F9FFF7D3FE08B100F0F2F9002323700D
:1020C00010BD00BFA88AFF1FF8B5164B164D1A6841
:1020D00042F080721A60154B1A6842F001021A60D1
:1020E000134B2E681C688CB1237A6BB123682F6860
:1020F0001B68204698472A68E188D21B120993B2D0
:102100008A42A38088BFE3806469ECE72968094BB1
:10211000891B09098AB21A80074B1888814288BF37
:102120001A80F8BDFCED00E0041000E0001000E0B3
:10213000AC8AFF1FB28AFF1FB08AFF1F08B5036871
:10214000C9B21B68984708BD08B50368C9B21B68C7
:10215000984708BD08B50368C9B21B68984708BD11
:1021600008B50368C9B21B68984708BD08B503687D
:10217000C9B21B68984708BD08B50368C9B21B6897
:10218000984708BD08B50368C9B21B68984708BDE1
:1021900008B50368C9B21B68984708BD4B0803F12E
:1021A000376000F5D830B0FBF1F0FFF7E1BA10B5B9
:1021B0004B0803F1376000F5D8301446B0FBF1F05E
:1021C000FFF7D6FA2046BDE81040FFF717BBFFF730
:1021D0003FBB0846FFF768BBFFF746BCFFF76EBC86
:1021E000FFF752BCFFF724BCFFF780BCFFF72ABC07
:1021F00008B50846FFF774FB012008BD08B508467E
:10220000FFF76EFB012008BD10B5084614461146C5
:10221000FFF7B0FB204610BD38B508460D46FEF767
:1022200077FA044621462846FFF7A4FB204638BD2E
:102230004B0803F1376000F5D830B0FBF1F0FEF742
:1022400047BC10B54B0803F1376000F5D830144691
:10225000B0FBF1F0FEF73CFC2046BDE81040FEF775
:102260007DBCFEF7A5BC0846FEF7CEBCFEF7ACBDB4
:10227000FEF7D4BDFEF7B8BDFEF78ABDFEF7E6BD9A
:10228000FEF790BD08B50846FEF7DAFC012008BD50
:1022900008B50846FEF7D4FC012008BD10B5084675
:1022A00014461146FEF716FD204610BD38B5084607
:1022B0000D46FEF72DFA044621462846FEF70AFD94
:1022C000204638BD7047FFFF044B00221A714FF4BF
:1022D0007A711A73024A99601A607047B48AFF1FB4
:1022E00010270000FEF700B9FEF7BCB8FEF7E0B813
:1022F000FEF77CB90846FEF76DB908461146FEF7B1
:1023000001B97047044B00221A714FF47A711A73A5
:10231000024A99601A607047C48AFF1F6027000054
:1023200070B505468AB022B90368C9B21B689847E0
:102330002CE0012A08BF0A2221B930228DF825207D
:10234000212413E02124B1FBF2F002FB1011C9B2E9
:1023500009290AAE94BF303137312644C9B206F894
:10236000241C014610B1013CE4B2ECE733B1013C5E
:10237000E4B20AAB23442D2203F8242C2B6801A9D4
:102380005B6828462144C4F1220298470AB070BD18
:1023900010B50446FFF766FE204610BD0448054907
:1023A000054A002303708023437300F0BDB800BFCB
:1023B000D48AFF1F912300006087FF1F7047FFFF33
:1023C000044B00221A714FF47A711A73024A996011
:1023D0001A607047E88AFF1F8027000008B503686D
:1023E000C9B21B68984708BD08B50368C9B21B6825
:1023F000984708BD08B50368C9B21B68984708BD6F
:1024000008B50368C9B21B68984708BD4B0803F1BB
:10241000B76000F55840B0FBF1F0FFF7F9BB10B51D
:102420004B0803F1B76000F558401446B0FBF1F0DB
:10243000FFF7EEFB2046BDE81040FFF72BBCFFF78F
:1024400053BC0846FFF77CBCFFF708BDFFF730BD63
:10245000FFF714BDFFF7E6BCFFF742BDFFF7ECBC8A
:1024600008B50846FFF788FC012008BD08B50846F6
:10247000FFF782FC012008BD10B50846144611463E
:10248000FFF7C4FC204610BD38B508460D46FEF7E0
:102490003FF9044621462846FFF7B8FC204638BDE0
:1024A0007047FFFF044B00221A714FF47A711A73C0
:1024B000024A99601A607047F88AFF1FD02700000F
:1024C00070B506460D4600243319284619790A22AC
:1024D00000230134FFF724FF042C05D02B68284685
:1024E0001B682E219847EFE7204670BD024B034A38
:1024F0001A6000225A607047088BFF1F20280000D6
:102500000D200121FEF748BA08B50D20FEF736FA76
:10251000D0F1010138BF00210D20FEF70FFA322063
:10252000BDE80840FEF772BA03460846194600F0B7
:1025300001B8FFFF70B5064C06460D4613462CB198
:1025400031462A460220AFF3008070BD204670BDA0
:102550000000000070B50E4B0E4DED1AAD100024BA
:102560001E46AC4204D056F8242090470134F8E7C8
:1025700000F05AF9084D094BED1AAD1000241E4623
:10258000AC4204D056F8242090470134F8E770BDDF
:1025900034280000342800005028000034280000AF
:1025A00000151915000100006A87FF1F12000000C6
:1025B000000200009487FF1F43000000000300009A
:1025C000EE87FF1F00000000010309047C87FF1F46
:1025D0000000000002030904D887FF1F000000006C
:1025E00003030904F287FF1F000000000000000041
:1025F00000000000000000004008FE4340A004402E
:102600004408FE4344A004400018FE4300C00440B8
:102610003000FE43309004403400FE4334900440C8
:102620001C18FE431CC004401018FE4310C0044098
:102630000818FE4308C004400C18FE430CC00440B8
:102640000C10FE430CB004401010FE4310B00440C8
:102650001810FE4318B004401C10FE431CB0044088
:102660001410FE4314B004400418FE4304C0044098
:102670000010FE4300B004400008FE4300A00440E8
:102680000408FE4304A004400C08FE430CA00440D0
:102690000808FE4308A004401418FE4314C0044078
:1026A0001818FE4318C004400410FE4304B0044050
:1026B0000810FE4308B004401400FE431490044088
:1026C0004C08FE434CA004400420FE4304D00440C8
:1026D0002410FE4324B004402010FE4320B00440E8
:1026E0002810FE4328B004402C10FE432CB00440B8
:1026F0000020FE4300D004404808FE4348A00440A8
:102700001000FE4310900440000000000000000094
:10271000852200009D2200006D220000752200002D
:1027200071220000792200003122000043220000C3
:1027300063220000672200007D2200008122000049
:102740006D21000079210000852100009121000009
:10275000AD220000912200000000000000000000F7
:10276000F5220000FB220000E5220000E922000023
:10277000ED220000F1220000000000000000000037
:10278000F121000009220000D9210000E121000010
:10279000DD210000E52100009D210000AF210000A7
:1027A000CF210000D3210000E9210000ED2100002D
:1027B0003D21000049210000552100006121000059
:1027C00019220000FD2100000000000000000000B0
:1027D00061240000792400004924000051240000F5
:1027E0004D240000552400000D2400001F2400008B
:1027F0003F24000043240000592400005D24000011
:10280000DD230000E9230000F5230000012400007F
:10281000892400006D24000000000000000000007A
:10282000C124000000000000F8B500BFF8BC08BCDF
:102830009E46704735040000C922000005230000B1
:102840009D230000C1230000A5240000ED2400000A
:1028500000000000FFFFFFFF0A0412010002020057
:102860000040C01683040001010203011803540054
:10287000650065006E0073007900640075006900F2
:102880006E006F0009024300020100C0320904001B
:1028900000010202010005240010010524010101CC
:1028A00004240206052406000107058203100040E7
:1028B00009040100020A00000007050302400000AD
:1028C0000705840240000000160355005300420033
:1028D0002000530065007200690061006C00040371
:1028E00009040C03000000000000000000000000CC
:0828F0000000000000000000E0
:00000001FF
