:1000000000800020BD010000ED040000A5040000F8
:10001000A5040000A5040000A5040000A50400003C
:10002000A5040000A5040000A5040000ED040000E4
:10003000ED040000A5040000A9150000AD150000A6
:10004000ED040000ED040000ED040000ED040000EC
:10005000ED040000ED040000ED040000ED040000DC
:10006000ED040000ED040000ED040000ED040000CC
:10007000ED040000ED040000ED040000ED040000BC
:10008000ED040000ED040000ED040000ED040000AC
:10009000ED040000ED040000ED040000ED0400009C
:1000A000ED040000ED040000ED040000ED0400008C
:1000B000ED040000ED040000ED040000ED0400007C
:1000C000ED040000ED040000ED040000ED0400006C
:1000D000ED040000ED040000ED040000ED0400005C
:1000E000ED040000ED040000ED040000ED0400004C
:1000F000ED040000ED040000ED040000ED0400003C
:10010000ED040000ED040000ED040000ED0400002B
:10011000ED040000ED040000ED040000ED0400001B
:10012000ED040000ED040000ED040000ED0400000B
:10013000ED040000ED040000ED040000ED040000FB
:10014000ED040000ED040000ED040000ED040000EB
:10015000ED040000ED040000ED040000ED040000DB
:10016000ED040000D5080000ED040000ED040000DF
:10017000ED040000ED040000ED040000ED040000BB
:10018000ED040000ED040000ED040000ED040000AB
:10019000ED040000ED040000ED040000ED0400009B
:1001A000ED040000ED040000ED040000ED0400008B
:1001B000ED040000ED040000ED040000564B4CF28D
:1001C000205210B51A804DF628121A8000BF00BFC9
:1001D00000F090F9514B4FF010621A60504A9A604B
:1001E000504ADA60504A136813F4807304D14F49BF
:1001F0000B604FF4A85313604D4B1A78110703D5C9
:100200001A7842F008021A704A4B4B492A221A7097
:100210004A4A4B4B8B4204D252F8040F43F8040B6A
:10022000F8E7484B484900228B4202D243F8042B9E
:10023000FAE74649464A002352F8230041F82300D2
:1002400001336F2BF8D1434B434A802103F8011B44
:100250009342FBD1414B3D4A1A60414B8A221A70AE
:10026000A3F5805324225A70A0221A709A7992071B
:10027000FCD59A79D406FCD43A4A937903F00C035E
:10028000082B384BF9D103221A7140225A719A79FE
:100290009006FCD5334A9179324B4906FBD5324A58
:1002A000324911600221516020221A709A7902F0BD
:1002B0000C020C2AFAD12E4B2E4A1A602E4B2F4AD2
:1002C0001A6000225A60072243F8042C2C4AC3F813
:1002D0000C2D62B600F0B8F9144B1B68DA0705D58F
:1002E000284800F04BF9284B284A1A60284B1B7805
:1002F0005B0609D5244C254B22689A4204D121483B
:1003000000F03CF90023236001F0E6FA00F0F8F871
:1003100001F054F9FEE700BF0E2005403080044094
:10032000823F04000100002B10D0034014D0034092
:1003300002D0074000E00740188FFF1F981B000005
:10034000F089FF1F188FFF1FB890FF1F0082FF1F4B
:100350000000000000E400E05FE400E008ED00E0E1
:100360000050064000400640448004400000030165
:1003700004800440C010050014E000E0FF76010096
:1003800000002020310000001CE00340A5C3945A67
:1003900000F00740FFFFFFFFFFFFFFFFFFFFFFFF32
:1003A000FFFFFFFFFFFFFFFFFFFFFFFFFFFFFFFF5D
:1003B000FFFFFFFFFFFFFFFFFFFFFFFFFFFFFFFF4D
:1003C000FFFFFFFFFFFFFFFFFFFFFFFFFFFFFFFF3D
:1003D000FFFFFFFFFFFFFFFFFFFFFFFFFFFFFFFF2D
:1003E000FFFFFFFFFFFFFFFFFFFFFFFFFFFFFFFF1D
:1003F000FFFFFFFFFFFFFFFFFFFFFFFFFFFFFFFF0D
:10040000FFFFFFFFFFFFFFFFFFFFFFFFDEF9FFFF23
:1004100010B5054C237833B9044B13B10448AFF33E
:1004200000800123237010BD188FFF1F0000000003
:100430009C1B0000084B10B51BB108490848AFF3DE
:1004400000800848036803B910BD074B002BFBD0A0
:10045000BDE81040184700BF000000001C8FFF1FC0
:100460009C1B0000188FFF1F0000000001210D20C1
:1004700000F096B8084B1B689B0606D4074B202259
:100480001A604FF4FA7000F091B8054B20221A6000
:100490004FF4FA7000F08AB890F00F4084F00F40EB
:1004A00088F00F4008B5104C08E0236859050DD4BA
:1004B00023681A050FD42368DB0411D4236858037A
:1004C000F3D500F007FA23685905F1D500F00EF8CE
:1004D00023681A05EFD500F009F82368DB04EDD591
:1004E00000F004F8EAE700BF3480044008B5FFF7E5
:1004F000D9FF00BF014B10221A8070470020054031
:10050000704700BF1C4A02EBC00301295B6811D091
:1005100004291BD052F83000002280F8802229B133
:10052000022920D0032922D01A6070474FF480722C
:100530001A60704752F830004FF4A27280F88012AF
:100540001A601A6822F020021A60704752F83010C0
:100550004FF4A272012081F880021A601A6842F0FA
:1005600020021A60704740F203121A6070474FF47D
:1005700081721A60704700BF141A000030B4054B36
:10058000054D064C002210211A602A602060196077
:1005900030BC704714D0034004D0034000D0034067
:1005A000212801D8FFF7AEBF704700BF2DE9F843FF
:1005B000054672B6204F214B214A1B683C681268E1
:1005C00062B6520102D5322B88BF013495B3C3F510
:1005D000BB331C4EDFF86490DFF86480FF334FF4C8
:1005E0007A72A6FB031302FB04F404EB931472B6B5
:1005F000D9F800103A68D8F800E062B6C1F5BB330C
:10060000FF33A6FB03031EF0806FC4EB93134FF47C
:100610007A7002D0322988BF013200FB0233B3F571
:100620007A7F04D3013D05D004F57A74DFE700F04A
:100630000FFFDCE7BDE8F883348FFF1F18E000E010
:1006400004ED00E0ABAAAAAAF8B52D4B2D49DFF8BE
:10065000D0E0DFF8D0C02C4E2C4D2D4C2D4A2E4F23
:100660004FF4000018604FF0807018604FF0007079
:1006700018604FF0806018604FF000601860002034
:10068000086028234BF6FF71CCF80010CEF800303C
:10069000336013602B6023603B60B3629362092276
:1006A00045F8242CC4F8D80F05F57F65C7F8D41F8A
:1006B00007F5FF2707F5FA67C6F8F83F2B6006F540
:1006C000FF26C4F8D42F05F5FD2504F5FF24386076
:1006D00006F2F4761148316005F5FF6504F5FD6416
:1006E0002B602360026000F0A7FF1920FFF75EFF78
:1006F00000F052FE40F21310BDE8F840FFF756BF7D
:1007000008E100E00480034014800340248003409B
:100710002C8003401C8003403480034000800B4049
:100720000C8003400880034030B472B6434A13780B
:100730001C0706D5424B196A00295BD0996A00292B
:1007400066D05378190706D53D4B196C002969D03E
:10075000996C00295ED093781B0706D5384B196E2B
:10076000002963D0996E002956D0D3781D0708D58B
:10077000334BD3F88010002956D0D3F888100029C5
:100780004CD013791C0708D52D4BD3F8A0100029A5
:100790004ED0D3F8A810002942D05379190707D5B5
:1007A000274BD3F8C010002944D0D3F8C81091B11A
:1007B00093791B0708D5224BD3F8E020002A3BD0C1
:1007C000D3F8E8201D243AB162B61E4B00221A70FD
:1007D00030BC01F05BB819241A491B4D0A7843F864
:1007E000345003EBC4030830013A58600A7062B613
:1007F00030BC70470422134C144D217843F832501A
:1008000003EBC20308304A1E5860227062B6EFE75D
:100810000524E1E70924DFE70D24DDE71124DBE708
:100820001524D9E70822E6E71022E4E70C22E2E7E4
:100830001422E0E71822DEE71C22DCE7241B00007C
:100840000080FF1F3D90FF1FC8004000880040004F
:10085000431E062B1DD81B4A400140F0100030B447
:10086000104472B6184CE25C032A1BD8DFE802F091
:100870000212151703220D88E25410F0080F14BF5E
:10088000C823882343EA054308310360416062B608
:1008900030BC704708300222EDE70522EBE7083054
:1008A0000422E8E7094A52F8230038B1084A52F80E
:1008B0002300416042F8231062B6E9E742F82310B2
:1008C000034AF7E70080FF1F4C90FF1FFC8FFF1FBC
:1008D0001890FF1F2DE9F04FDFF8F8B2DFF8F8A20B
:1008E00087B044E0A74F4FEA930807EBC809013CE3
:1008F000D9F8042003F00803E4B2A2F1080003F0E1
:10090000FF05002B40F0118157F838301B0C99B2CD
:1009100022F8081C002B00F0FF809B4B22F8065C9D
:1009200042F8045C53F82420002A00F07D81974EA1
:1009300056F824305860964D46F8240035F81430A7
:10094000194425F8141000F081FF002800F065819B
:10095000904A914B19F0080F00F1080018BF134698
:10096000C9F8040047F8383008238BF800309BF8AA
:100970000040E4B2650726D5884B1B7803B388494D
:100980000A7802F0FF032AB1013BDBB20B70002BA7
:1009900000F0EB8483490A7802F0FF032AB1013B9F
:1009A000DBB20B70002B00F035817F490A7802F032
:1009B000FF032AB1013BDBB20B70002B00F0278153
:1009C00004238BF8003004F0080303F0FF02002B2F
:1009D00000F006819AF80030DBB21C0982D19B0836
:1009E000684C54F8332004EBC301C2F38302013A8C
:1009F00049680C2A00F28180DFE802F083837F7F60
:100A00007F7F7F7F467F7F7F07000868674E684A49
:100A100001924A685F4944F83310664F726040F2B1
:100A2000816382B26249306000254FF001099A4229
:100A30000D602561A56187F8009000F2F980B2F59C
:100A4000D06F80F04983B2F5817F00F0608300F2BF
:100A50004D81802A00F06A82822A40F09982B38810
:100A600003F07F03072B00F29382534A53489B0005
:100A70001A440570457013789D0740F15D8380F836
:100A800000904FF0020956E2494B01931B6853B3A3
:100A9000DFF848E1474F4A4ABEF800103878157829
:100AA00040290E4645F0020C28BF4026002880F061
:100AB00001003870A1EB06010CBF8820C82004EBB0
:100AC000CC0789B285F0010540EA06407B60AEF8AC
:100AD000001044F83C003344157011B9402E18BF83
:100AE0000023019A1360314B1A88B2F5A06F04D12C
:100AF00000219A785970334B1A70334A01231370CE
:100B000032E72A4A158842F22100854200F05881D6
:100B1000204A44F83320F0E71E4A1F4B19F0080F13
:100B200018BF134647F838301EE700F0AFFE274ADB
:100B3000274952F82430002B00F0338158680D5DAE
:100B400042F8240003F10802C9F80420032D05D857
:100B5000DFE805F012150F0204220A551A8819F071
:100B6000080F0CBF8823C82343EA024347F83830F4
:100B7000FAE605220A55F1E703220A55EEE70222BA
:100B80000A55EBE70080FF1F9C8FFF1F3C8FFF1F64
:100B90009090FF1FC8004000880040004890FF1F51
:100BA000B98FFF1F7590FF1F8490FF1F3490FF1FA8
:100BB000388FFF1FB88FFF1FC02007404090FF1FD6
:100BC0003C90FF1F9820074094200740FC8FFF1F98
:100BD0004C90FF1F8020074090200740588FFF1F38
:100BE000E00700F13381210600F19681A20706D5C6
:100BF000AE4AAF4913780220DBB213700870E306E7
:100C000002D5AB4B10221A7007B0BDE8F08F00F090
:100C1000F9FDD5E600F0ECFCC7E6A64A47F8380037
:100C20001378013313709FE643F82400A24E82E646
:100C300042F221039A4200F0B08000F2F280B2F555
:100C4000086F00F09481B2F5106F40F0A1819B4BCA
:100C50009B4DB2781A7005F1E00602E00835AE420D
:100C600009D02B6A1806F9D5686A0835083800F0EB
:100C70000DFEAE42F5D1934B934A94498E4E944D5E
:100C80009448039504964FF0000902908846154653
:100C900005971E46306828B1476800F0F7FD3846D2
:100CA000002FF9D100233360049B28681A460023E3
:100CB00042F8293028B1476800F0E8FD3846002F97
:100CC000F9D1029B00221B782A6048F8042F039A6E
:100CD0004FF00001023B22F81910032B00F28D8126
:100CE000DFE813F0F5018701F501870140F20233D7
:100CF0009A4240F04181B28802F07F02072A00F256
:100D000047817388002B40F043817349029392001E
:100D100011440A7842F002020A70002188468C468B
:100D20008E4608466D4A157845F0020604EBC60368
:100D3000B9F1000F58600CBF8820C8204CEA000CA5
:100D40009DF8083044F836C085F001003B70107003
:100D50005B4EDFF888C1002940F02181BEF1400FD1
:100D60001BD140F0020004EBC004029BC4F80480D5
:100D7000534E0C04002B40F0298144F0880446F8BF
:100D8000304087F80090157008EB0103402904D12A
:100D90000021534A019811800360524A01231370C5
:100DA000ABE60B5D032B00F21D8101A252F823F08C
:100DB0006909000069090000A10E00009B0E0000F7
:100DC0009288002A6FD0022A14D1474A08781070FE
:100DD0004878507088789070C878D0700879107111
:100DE00048795071106889799171862802D13F4AFB
:100DF0000F211170394A3E4F1178387881F0010582
:100E0000002841F0020115700CBF8822C82244F866
:100E1000312004EBC10180F00100002238704A60EB
:100E200076E642F221239A4240F0AE80B388002B4E
:100E300000F08581022B40F07D812E482E4B2F4AF9
:100E40000068B17818600295117066E71C4B254860
:100E500022491A614FF0020E80F800E01E4F0A701E
:100E6000274919609960114E114D264C9A610D2148
:100E70003970FF213170DFF89CE029702270224D1B
:100E8000224A8EF800109F27012406F8047C5D603A
:100E90000470DA6007B0BDE8F08F01230B5563E5FD
:100EA00000230B5560E51A4A90E700BF88200740F1
:100EB000802007403D90FF1F3C8FFF1F4890FF1F81
:100EC0000080FF1F9C8FFF1FFC8FFF1F1490FF1FD0
:100ED0009090FF1F4C90FF1FC02007403C90FF1FC9
:100EE000588FFF1F94200740B090FF1FB98FFF1F3E
:100EF000B88FFF1F348FFF1FAC90FF1F8390FF1F21
:100F000088004000982007405C8FFF1FBC8FFF1FA8
:100F1000A090FF1F8C200740BB49BC4B80220D20B6
:100F200008701A70A2077FF56AAE61E6B8484FF004
:100F3000020905704570F3884B4580F01782B54A69
:100F4000157845F0020604EBC601402B9E4628BFEB
:100F50004FF0400E4860CEEB0301002300EB0E087B
:100F60004FEA0E4C02934FF00109C820E6E6AA4B67
:100F7000A7481B780370DEE7B2F5A06F08D1002305
:100F800002934FF00109C8E642F221339A42F6D0AB
:100F90009D4A0F231370A14A01231370ADE5402928
:100FA0007FF6DFAE40F0020006EBC002029BC2F803
:100FB0000480ABB19A4A9B4B8CF8005083F80090A8
:100FC000403908F1400346F83020E2E644F0C80416
:100FD00087F80090157008EB010346F83040D5E61D
:100FE000914AE8E719F0080F0CBF022303230B55C1
:100FF000BAE4029B4FF001021A70029B09F1010949
:101000000133B9F1070F06F1040605F10405029357
:101010007FF440AE854D864E2B78059F00223270BE
:10102000844A1907137000F14181834A6B78137069
:1010300000222263A2631A07DFF8148200F12581DF
:10104000AB787E4ADFF80882137000221B07226506
:10105000A26500F10781EB78794ADFF8F48113701B
:1010600018074FF000022267A26700F1B6802B79C3
:10107000744ADFF8DC81137019074FF00002C4F8DE
:101080009020C4F8982000F191806F4A6B7913701A
:101090000022C4F8B020C4F8B8201A07DFF8B081E5
:1010A0006DD4AB79694A6A4D137000221B07C4F8EE
:1010B000D020C4F8D8204BD497F80090002289F0B3
:1010C00001030293C4F8F020C4F8F82025E6029B3F
:1010D0004FF000021A7090E75E4B586800283FF40A
:1010E00057AF7188B58804E00C33586800283FF486
:1010F0004FAF1A888A42F7D15A88AA42F4D1090A16
:1011000003290CBF90F80090B3F8089013E7B28859
:1011100002F07F02072A3FF63BAF7388002B7FF473
:1011200037AF39490293920011440A7822F0020243
:101130000A70F2E50295F0E54FF00209FBE6464D34
:101140004648474A2D68B178056002931170E4E57E
:1011500000F07CFB002800F0EB800830324BC5F833
:10116000E400C5F8E03000F071FB002800F0DA8000
:1011700008302B4BC4F8EC00C4F8E8309CE700F0D2
:1011800065FB002800F0C8800830274BC8F8C40071
:10119000C8F8C03000F05AFB002800F0B7800830D3
:1011A0001F4BC4F8CC00C4F8C8307AE700F04EFBFF
:1011B000002800F0C98008301B4BC8F8A400C8F80C
:1011C000A03000F043FB002800F0B8800830144B3A
:1011D000C4F8AC00C4F8A83057E700F037FB00288B
:1011E00000F08E800830104BC8F88400C8F88030BA
:1011F00000F02CFB00287DD00830094BC4F88C008F
:10120000C4F8883033E700BFC02007408020074083
:101210004090FF1F3C90FF1F4890FF1F9420074005
:10122000C8004000B88FFF1F88004000241B00004A
:101230003D90FF1FC4200740C8200740CC20074036
:10124000D0200740D4200740D8200740DC200740AA
:101250000080FF1F2C1B0000348FFF1FA890FF1F72
:101260008090FF1F00F0F2FA002878D00830484B39
:10127000C8F86400C8F8603000F0E8FA002869D0C7
:101280000830444BE066A366E5E600F0DFFA08B3F9
:1012900008303F4BC8F84400C8F8403000F0D6FA98
:1012A00098B108303B4BE064A364C9E600F0CEFA85
:1012B000D8B10830364B6062236200F0C7FA78B1CB
:1012C0000830344BE062A362AFE63378A0640133A8
:1012D0003370B5E63378C8F8400001333370DDE78A
:1012E0003378A062013333709FE633782062013394
:1012F0003370E2E73378C4F8880001333370B6E620
:101300003378C8F880000133337071E73378C4F85C
:10131000C80001333370C4E63378C8F8C000013325
:10132000337037E73378C4F8E80001333370C3E62D
:101330003378C5F8E0000133337014E73378C4F82C
:10134000A80001333370A0E63378C8F8A000013359
:10135000337036E73378A066013333707BE6337839
:10136000C8F860000133337086E700BEB9F1400F62
:10137000CE464FF0000328BF4FF0400ECEEB0901E0
:101380004FEA0E4C00EB0E0802934FF00109C9E43E
:1013900088004000C80040002DE9F843204C00F0D0
:1013A000BBF9002204F5807023461A605A600833A6
:1013B00083424FF00001F8D11A4A1B4F13681B4DAE
:1013C0001B481C4EDFF87880DFF878C0DFF8789093
:1013D000DFF878E043F480231360C4F307233B7005
:1013E000C4F307432B70240EFF2302F52832047048
:1013F000114D88F8003011488CF80030D432337029
:10140000012389F8003070268EF800104FF4007424
:10141000102107F8183C2E7004601170BDE8F883A5
:101420000080FF1F348004409C200740B02007400C
:10143000B42007401020074049E400E008E100E044
:101440008020074088200740942007400021074063
:101450002DE9F8433A4E3378A3B13A4F3A788AB936
:101460000122D8073A7040D4190736D49A0719D404
:1014700000225B073A7005D5334B1A6812B1EFF3BF
:1014800005820AB1BDE8F883EFF3108172B61868DF
:1014900018B12E4C2278002A3BD00029F2D162B636
:1014A000BDE8F883DFF8B48098F80020002ADFD088
:1014B000DFF8AC90002405E0013498F80030E4B285
:1014C000A3421AD959F824502B6828461B6998471B
:1014D0000028F1D02B699847EEE700F085F948BB6A
:1014E0001B4B1B785BB93378C0E700F073F8F0B999
:1014F000184B1B7843B93378B6E73378B8E73378BD
:1015000003F0F7033370B1E7337803F0FE03337071
:10151000AAE745691D600123237075B1AA6101B96D
:1015200062B600254577836898472570AAE700F0E2
:101530004FF8DDE700F04AF8D2E7074B1D60EEE711
:10154000F089FF1F5390FF1F6090FF1F6490FF1FE3
:10155000F189FF1FF289FF1F5C90FF1F7490FF1F2E
:101560006890FF1F70B5EFF3108272B60C4C2068C4
:1015700080B10C4E00254369236073B19D6102B9AF
:1015800062B6457783689847EFF3108272B6206899
:101590000028F0D102B962B670BD3360EFE700BF3A
:1015A0005490FF1F5890FF1FFFF7DCBF024A1368DB
:1015B00001331360704700BF348FFF1F08B5FEF77B
:1015C00055FFFEF757FFFFF743FFFAE7704700BFED
:1015D000704700BF044B054A1B6890881BB11A88EE
:1015E0005B88D31A184470477C90FF1F9090FF1FB0
:1015F00038B50E4B1B7873B90D4C216861B103F0FF
:10160000FF054B880B800420FFF722F9256038BDC9
:10161000084B01221A7038BD00F018F90028F7D0E5
:101620000146BDE838400420FFF712B97690FF1F4D
:101630007890FF1F7590FF1F30B42948294A2A4B24
:101640002A4D6024E121047011701B78284C082B6E
:1016500030D00A2B2748284937D00C2B0CBF352215
:101660003D2212232A60236002600B60234B244931
:101670001B78244ABBB101230B601360224B234922
:101680001B78234A012B26D9042B0FD9082B1ED9EE
:10169000102B94BF862387230B6013601D4B012200
:1016A0001A7030BC70470B601360E7E784230B604F
:1016B0001360F3E700F58E200F4908300122132351
:1016C0002A60236002600B60D0E73922F7E78523A8
:1016D0000B601360E2E780230B601360DEE700BF5E
:1016E0000040074001400740F389FF1F08B0034056
:1016F0000CB0034008B00B400CB00B408290FF1FB1
:1017000020B0034020B00B40F489FF1F24B00340F9
:1017100024B00B408190FF1F70B584B072B6194B96
:10172000194D1A48702241260F2480211A702E70FC
:101730001A460470197013781B06FCD5144B1868F0
:1017400062B6144B144C984298BF00EB800001A97C
:1017500098BF40000A2200F021F801A9204600238A
:1017600011F8012B01333AB10A2B20F8022FF7D1DF
:101770001623237004B070BD5B00DBB2237004B08D
:1017800070BD00BF0000024007000240060002409A
:10179000080002407F969800D08AFF1FF0B44D1ECB
:1017A0002E46002400E00134B0FBF2F302FB1300EC
:1017B000092800F130078ABF3730F8B2C0B206F806
:1017C000010F1846002BEED10A1953704CB1107856
:1017D00015F8016F28700133E01A834202F801699D
:1017E000F5DB0846F0BC7047044B054A1B6850897E
:1017F0001BB11A885B88D31A184470478C90FF1F5E
:101800009090FF1F38B50E4B1B7873B90D4C2168B3
:1018100061B103F0FF054B880B800720FFF718F834
:10182000256038BD084B01221A7038BD00F00EF853
:101830000028F7D00146BDE838400720FFF708B878
:101840008590FF1F8890FF1F8490FF1F72B60D4880
:101850000268B2FA82F3152B10DC4FF00041D94038
:1018600022EA0102026062B6074803EBC303DB0011
:10187000C2180021C15010465160704762B6002066
:10188000704700BFE88AFF1FBC83FF1F0D4B0E4A45
:10189000C31AA2FB03231B09152B0CD80B4A127881
:1018A00052B972B60A484FF00041026821FA03F3B8
:1018B0001A43026062B67047064A1278002AF0D0D6
:1018C000FEF732BFBC83FF1F398EE3383D90FF1F08
:1018D000E88AFF1F4890FF1F70B50F4E0F4D761B13
:1018E000B61018BF002405D0013455F8043B9847C2
:1018F000A642F9D10A4E0B4D761B00F043F9B61003
:1019000018BF002406D0013455F8043B9847A6427E
:10191000F9D170BD70BD00BF901B0000901B00008E
:10192000981B0000901B0000024B13B1024800F00E
:1019300005B8704700000000491900000023014667
:101940001A46184600F014B838B5074D074C2C1B42
:10195000A41005D0013C55F8043D9847002CF9D15E
:10196000BDE8384000F018B9000000000000000099
:101970002DE9F047254C2568D5F8484106468846AC
:1019800092469946C4B360681F2817DC431C76B1A1
:1019900004EB80050122C5F888A0D4F888118240A4
:1019A0001143022EC4F88811C5F808911ED00230E8
:1019B000636044F820800020BDE8F087144B03B337
:1019C0004FF4C870AFF300800446D0B1D5F8483169
:1019D000002780E88800C5F8484138460123C4F84C
:1019E0008871C4F88C71002EE1D0D1E7D4F88C1145
:1019F0000A43C4F88C21DAE705F5A674C5F8484116
:101A0000C1E74FF0FF30BDE8F08700BF801B00004A
:101A1000000000004008FE4340A004404408FE438C
:101A200044A004400018FE4300C004403000FE43C0
:101A3000309004403400FE43349004401C18FE43B0
:101A40001CC004401018FE4310C004400818FE4398
:101A500008C004400C18FE430CC004400C10FE43A8
:101A60000CB004401010FE4310B004401810FE43A8
:101A700018B004401C10FE431CB004401410FE4378
:101A800014B004400418FE4304C004400010FE4398
:101A900000B004400008FE4300A004400408FE43D8
:101AA00004A004400C08FE430CA004400808FE43B8
:101AB00008A004401418FE4314C004401818FE4344
:101AC00018C004400410FE4304B004400810FE4354
:101AD00008B004401400FE43149004404C08FE4338
:101AE0004CA004400420FE4304D004402410FE43D4
:101AF00024B004402010FE4320B004402810FE43D0
:101B000028B004402C10FE432CB004400020FE43BB
:101B100000D004404808FE4348A004401000FE43A3
:101B20001090044000151915151915FF000100004B
:101B3000F889FF1F1200000000020000248AFF1F26
:101B40008D00000000030000CC8AFF1F0000000091
:101B5000010309040C8AFF1F0000000002030904AE
:101B6000B48AFF1F0000000003030904D08AFF1F8E
:101B70000000000000000000000000000000000065
:101B8000F08AFF1FF8B500BFF8BC08BC9E4670473E
:081B90002919000035040000D2
:041B9800F8B500BFDD
:101B9C000901010A040000001201100100000040BC
:101BAC00C0168B04750201020301000018035400D7
:101BBC00650065006E0073007900640075006900B3
:101BCC006E006F0009028D00040100C032080B008A
:101BDC0002020201000904000001020201000524B6
:101BEC00001001052401010104240206052406004D
:101BFC00010705820310004009040100020A0000DD
:101C0C00000705030240000007058402400000089D
:101C1C000B0202020201000904020001020201008F
:101C2C0005240010010524010101042402060524E9
:101C3C000602030705850310004009040300020A8D
:101C4C00000000070506024000000705870240005F
:101C5C000000000018034400750061006C002000B7
:101C6C00530065007200690061006C0004030904F4
:101C7C000C03000000000000000000000000000049
:101C8C000000000000000000FFFFFFFF000000004C
:101C9C0000000000DC8DFF1F448EFF1FAC8EFF1F69
:101CAC000000000000000000000000000000000028
:101CBC000000000000000000000000000000000018
:101CCC000000000000000000000000000000000008
:101CDC0000000000000000000000000000000000F8
:101CEC0000000000000000000000000000000000E8
:101CFC0000000000000000000000000000000000D8
:101D0C0000000000000000000000000000000000C7
:101D1C0000000000000000000000000000000000B7
:101D2C0000000000000000000000000000000000A7
:101D3C000000000000000000010000000000000096
:101D4C000E33CDAB34126DE6ECDE05000B0000005B
:101D5C000000000000000000000000000000000077
:101D6C000000000000000000000000000000000067
:101D7C000000000000000000000000000000000057
:101D8C000000000000000000000000000000000047
:00000001FF
